:100000004D424E014D3448306101040001000000B2
:100010006000000000C000000000000000000000C0
:100020000000390100000000000000000004000092
:10003000010061010100260000040000009800009A
:100040000200050227002C00009C000000180000A0
:10005000030005022D002F0000B40000000C00007A
:10006000001C00203502000000000000000000001D
:100070000000000000000000000000000000000080
:100080000000000000000000000000000000000070
:10009000000000000000000000000000550000000B
:1000A0005700000051010000790000008D000000A1
:1000B00000000000FEE708B5044B01221A70044B53
:1000C0000022DA77034B1B68984708BD0000002028
:1000D0000800005034000020034B01225A70A02376
:1000E0000022DB051A70704700000020034B01223C
:1000F0009A70A0230022DB059A7070470000002050
:100100008D23013B002B01D0C046FAE7044B10229F
:100110001B78DBB21807C00F134018437047C04666
:100120002B0000500F4BF7B518261E700E4BA02762
:100130001E70FFF7E5FFFF050B4B01AC00252C37C8
:1001400060701D703E70FFF7DBFF064B20703D7046
:100150001D7023786278181C504040001340034300
:10016000D8B2FEBD2A0000502D00005000230360CD
:1001700030B50B601312012B13D10423013B10D3B4
:10018000084DD4B25D5D641BF8D4074A9D00126827
:10019000AA58002A05D012190260044AD35C1C1B1D
:1001A0000C6030BDF0030000EC030000F40300001D
:1001B00070B58022D2051379DBB2002B19D12B4CFC
:1001C0006360A3602A4B1289261C251C1B6892B20F
:1001D00010361435E260301C291C002B06D09847DD
:1001E0002169002937D1E268301C291CFFF7BEFFC6
:1001F00031E0012B0CD11D4B186900282BD09968D8
:100200005C69A14227DA4C1C9C60137A435422E0BB
:10021000022B1BD1154C2369002B12D06068616939
:1002200088420EDA1B5C1BBAD360124B1B68002B92
:1002300003D0E268101880B29847636801336360A6
:1002400009E080230022DB05DA6004E0032B02D101
:10025000064B00229A60C0468023DB0501221A70FB
:10026000C04602221A7000221A7070BD00000020E1
:100270003C0000203800002080230222DB05FF32F2
:100280001A600421024AFF31118000221A7070475F
:1002900006000040F0B5A023DB059B68584A1F21EB
:1002A0008DB0DBB21160D12B0BD0D02B01D8013334
:1002B000DBB2A022D2059168FF20814319439160EF
:1002C000F1E7504B504A191D043B934203D20022E0
:1002D0001A600B1CF6E7FFF7CFFF4C4A8023DB02C6
:1002E0001A804B4A0026093A92B25A809E80C04634
:1002F000484ADB881168526809914749474C0A927D
:100300000A889FB209AB1A8123625F81FFF70AFF57
:1003100006AD311C01900A22281C09F0F3F9404B6C
:1003200034221B78AA7048222B70EA704D233022A9
:100330006B702A716B71019A4523AB713A23EA7194
:10034000FF33694602AA0296A2610B81012204AB27
:100350000496E3615A70334B6562DA89324B211C93
:100360005D88324B28311B8803960B70211C1B0AB9
:1003700029310B7005962E4901232B265B42361935
:1003800033700B70201C211CB4462A4E2A302E31AB
:10039000337003700B70204E2F34237033889F42CC
:1003A00029D1254B9A4226D0AA4224D1234DEE8949
:1003B0009E4220D0EF89224D6E88B7421BD1214E3C
:1003C000F7899F4217D0144FF689FB889E4212D1BD
:1003D00063460270120A1A706B88154E9BB2337016
:1003E000144F0D4E1B0A3B70F3889BB20B701B0A17
:1003F000237000F03DF8144B02221A6062B6FEE74B
:1004000028000050040000204000002000040000EC
:1004100000C00000F0BF0000F8BF00000000002096
:100420004700005000040000FC9B0000FE03000099
:100430002C0000202D000020FFFF0000009C000089
:10044000FCB3000000B4000000E100E01800002050
:100450002030407008080C0AFFFFFFFFFFFF390142
:100460004D344830434F5432000000000000610119
:10047000F0B5D9B002AF03F046FE05F0D3FBF86348
:1004800008F0C0FF08F0EEFF09F0F2FB00F07CFE80
:10049000CA4ACB4B1A60CB4ACB4B1A60CB4ACC4BE7
:1004A0001A6005F0BFFB7864052800D146E316D832
:1004B000022800D1FFE207D8002827D0012800D168
:1004C000ECE27C6CFC63ECE77D6C032D00D127E350
:1004D000042DF6D105F02CFC02F0C2FB29E37C6C64
:1004E000092C00D152E307D8072C00D13AE3082C9D
:1004F000E7D105F01DFC3FE37D6C0A2D00D157E3E9
:100500000B2DDED105F014FC00F0FDFB05F0A0FB87
:10051000041E1AD00128D4D1AE4B02221B68391C0C
:100520001D6A7031BD611D691A627D617D6C261C7A
:100530001D61281C3F232A1C8D803D670B7105F02F
:1005400077FCBD637D6C3D64B8E00124012C02D0D2
:10055000022C0AD098E0002002F06CF803F022FA96
:10056000C0B205F0B3FC02F04BF89A4B6C461B6826
:10057000BC635D681E681B696E43F3189B000A33F9
:10058000DB08DB00E01A8546862502AC6D003C6482
:100590007C19201C0021142209F0B4F89E20400090
:1005A0003B1C9021BC333A1849005A607A189A6073
:1005B000391C283A1A61B031143A874D4A60143A0E
:1005C0008A602A688548DC60F03200241470026872
:1005D000386C5361824BB6001B68861910609161BC
:1005E00056602D331A7869465200131C0833DB0815
:1005F000DB00C91A8D4602AB181C211C7B6309F075
:1006000081F805F0EBFC3A6C4178331C201C00F0BB
:10061000A7FEF86BA04201D005F08AFB2B689C6016
:1006200005F04EFC041C03F0BDF9A04204D0201CD0
:1006300003F0BDF902241DE07C6B3A1C00943B1CC6
:10064000311CBC32B033386C01F066FC624B654A39
:100650001B68041C9968914202D09A6801329A6022
:10066000002807D105F0F4FA002803D105F0DAFAE2
:100670000028D5D0594D00232A6813605360536178
:100680009361BD6BFB63AD4605F0E2FA002803D031
:10069000002001F0F5F814E705F0C4FA002800D1B5
:1006A00054E7F5E7022E0DD005F0D2FA012800D06C
:1006B000EDE105F0B7FA002800D0E8E1012EF1D114
:1006C00001F09EFF434D6C462B683C6158681C68E6
:1006D0001B694443E3189B000A33DB08DB006946CF
:1006E000C91A8D4602AA7A6302F0B2FD8620002361
:1006F00040003A1CFB6564323B185A60043A9A6029
:10070000043ADA60391C043A1A61E431043A4A6066
:10071000043A8A602A686D4690695269A40042438F
:1007200092000A32D208D200AD1AAD4602ADAAB08C
:1007300002A8BD62AAB0F825E85102AAFC20C25165
:10074000264A7D6B12682C191560546053619161C3
:10075000FC6205F043FC041C04F02EF861780520CF
:100760007A6BFB6A00F0FCFD04F0A6FB1A4BB86A3A
:100770001B680024596900F01BFCFD6BA54201D0E9
:1007800005F0D6FA0020391C7831A223021C8C8097
:10079000BC670B7105F04CFB0F4B1B689C60002481
:1007A00005F08EFBF86303F0FDF8FD6BA8421BD04B
:1007B000281C03F0FCF8022659E1C046D558000079
:1007C0003C000020915E000038000020FD10000079
:1007D000340000201C0300204000002044000020C2
:1007E000500B0020FFFFFF7F002C74D1D84B6D46CB
:1007F0001B687D6298695A69410001324A43131CA3
:100800000833DB08DB00E91A8D4602AD281C211CE9
:100810003D6308F077FF386CCE4D082808D104F00E
:100820004BFB2B68B86A596900F0C2FB3C6450E08E
:10083000042003F089FA2B68386B5969BA6A06F00C
:1008400023F8051E012D12D103F0B6FF052003F099
:100850007BFA391C80318C800C60A323201C221C65
:100860002C1C00250B7105F0E3FA3D6431E0BA4D14
:10087000B86A2B68396B35331A7806F0DDF82B68C7
:10088000B86B35331B785B0098420ADD03F094FFA8
:10089000052001217A6BFB6A00F062FD04F00CFB7D
:1008A000BC63B96B2B680131B9633433187803F03A
:1008B0007EF803F093F82B6800263533187802F0A1
:1008C0007FFE002002F09EFEF86B03F070F803F04C
:1008D000A9F87D6AB6E0A04B1B68363318789D4BAB
:1008E0001B68186002F06CFE052003F005FA786BB7
:1008F000F96A00F0E7FE061E06D086214900781846
:1009000000F0BEFF01249EE06C4692B002AD92B0B2
:10091000FC6002AC8AB0FD6302AD90B03C6302ACF7
:100920008AB07D62311C02AD402288B0F86B3C6217
:10093000FD6108F0E7FE311C4022386B08F0E2FE52
:10094000311C2022786A08F0DDFE311C4022386A12
:1009500008F0D8FE02AC311C2022F86908F0D2FE63
:10096000201C311C202208F0CDFE902040003D18B4
:10097000F96B3A6B7B6AAC61784C6960AA60EB609A
:10098000386A2368F9698622520028616961281C47
:10099000B9181D63102200F0CFFE9E204000391CC4
:1009A0003C18BC3161600C39A1604439E160043904
:1009B00021613B1C6949D03363611E605E603A1C53
:1009C0000B684C32A2611C6186235B001680FA180A
:1009D0003B1CE433281C211CFE66BE6600F0E2FED0
:1009E0006068A16806F05AFA6068A16802300231B6
:1009F00006F054FA381CF830396C07F0D1FE386430
:100A0000032804D0072800D083E1182505E0381C0E
:100A1000F83008F021FA051E09D005F027F96B1E01
:100A200001229A401040D84000D172E188E103F0E1
:100A300057F903F035F80124484B00221B681A616E
:100A40001A63FD68AD46434B454A1B68996891425D
:100A500002D09A6801329A60002E08D105F0F8F8A9
:100A6000012804D105F0DEF8002800D198E603F053
:100A700037F903F0A1FE394B1A6800231360536065
:100A80001361536193613C69FB63A5460CE6304BEF
:100A9000BD691B687C691D621C6112E505F048F99F
:100AA00005F0C0F80128FBD008F08AFC00F06CFBD0
:100AB00004F068FE05E500F0B7FE284B1B68586996
:100AC00000F0DEFE04F0F4FF002003F011FA03F062
:100AD00077F900F057F901F093FD05F029F905F0D9
:100AE00041F903280DD004D801280AD0022808D0E3
:100AF0000FE005280BD007D306280AD102F032FDFB
:100B000007E002F0E5F804E004F068FC01E002F020
:100B100017FD05F087F80228E1D000F097FED0E439
:100B200005F006F901F06CFD05F07CF80328FBD018
:100B3000C7E405F077F80428FBD0C2E405F0F8F824
:100B400003F016FB05F06EF80528FBD0B9E4C046AB
:100B50001C03002040000020500B00204400002017
:100B6000FFFFFF7F05F0E4F8012001F063FD05F0D1
:100B700059F80728FBD0A4E4002003F0E5F803F0BF
:100B8000C5F905F04FF80828F6D09AE405F0D0F83A
:100B9000002002F0DEFB002003F0D6F803F0B6F9E7
:100BA00005F040F80928F6D0012002F0D2FB88E4D5
:100BB0006C4600207C6308F089FC08F053FC0020A0
:100BC00003F096F96D4D2B685E6818681B69464303
:100BD000F3180733DB08DB00E11A8D4602ACA619D7
:100BE000FC6202F017FB02F02DFB02F01FFBF86A1B
:100BF000311CFE6303F068FB2B686D465A681B6965
:100C0000D3189B000A33DB08DB00ED1AAD4602ACBB
:100C10003C6405F08DF8594D391C2B6898311868E3
:100C20001A7908704A708A705A1DD27F1B69FC6A53
:100C3000CA700B71002201234B710420131C009415
:100C400005F0BCF8F96BF86A04F0E6FA002003F04E
:100C50007BF82B684A495D680E68BD630022B86B5B
:100C6000824208DA90008446B069644600593D6CBF
:100C700001322851F3E73C6C8200A4181D690E680C
:100C8000A4460022AA4206DA306A9100405864461F
:100C900060500132F6E7BA6B391CA03118684A700F
:100CA0009A6808708A700533DB7F0132CB70344B51
:100CB00092001B680D715B6904259A184D710092B2
:100CC0000022131C022005F079F8391CA8310123F9
:100CD0000B702A4B3C6C1B6805201A794A708A708D
:100CE0005A1DD27F1B69CA7000220B714D71131CF3
:100CF000009405F063F804F095FF0A288BD07D6B13
:100D0000AD46FFF7DEFB04F08DFF0B28FBD0FFF7AD
:100D1000D8FB3C6C082C00D089E602F0E1FF0120F2
:100D200002F043FC0024391C8831A223201C221C21
:100D30008C800C600B7105F07BF804F0BDF87BE64D
:100D400002214820C155381C49224830D55504F0AD
:100D5000F5FE02F0C5FF012002F027FC0024391C3B
:100D60009031A223201C221C08258C800C600B7162
:100D700005F05EF804F0A0F83D645DE61C03002079
:100D800040000020F8B5184D7146281C764603F047
:100D9000FFFA164C276802F099FE7862276802F085
:100DA00099FEB862276802F099FE7861276802F020
:100DB00099FEF861276802F0E1FEB861276802F049
:100DC000F1FE0B4B0B491B68096838621878097CE7
:100DD0002268414302331161E832281C311C136040
:100DE00003F0EEFAF8BDC046250D000040000020DB
:100DF000540B0020500B0020014B18607047C04678
:100E0000500B0020014B18687047C046500B002063
:100E1000014B18607047C046540B0020014B186806
:100E20007047C046540B0020014B18687047C046FD
:100E300040000020014B58687047C0464000002029
:100E400082B0F0B589B0109C151C0F9306930294E4
:100E500007900E1C119C02F0DDF947793A4B04977C
:100E60008279964206D11B680021DA69AB00D05A1C
:100E700003910BE01A68354B52691968731C896835
:100E800003964B43EB1801339B00D05A04997143EE
:100E900049194A00A4182388069E0193019F7318DC
:100EA000874203D8C61B029FBE521CE0029EB618A2
:100EB00005960027F65F013610D01F787EB2B44643
:100EC000013601DA013703E06646002E06DD013FF8
:100ED0001F7002235B42238001202FE0069F7918B8
:100EE0000F78002F01D120800CE07FB27C1C05D14F
:100EF000019E059F301A3880002002E0012F01D1A9
:100F0000FF2008701978039C049E079F48B2744321
:100F10007D19002805DC029EB25E013208D000294E
:100F200006D12A5700203E2A08DC0131197005E05D
:100F30002A57002A01DD01391970002009B0F0BCE0
:100F400008BC02B01847C046400000201C03002027
:100F500070B5154C7146201C754603F019FA134BF9
:100F600000221B68191C88310A601E1C01219C3656
:100F70004942181C3160B2600830083EF18232608C
:100F80007283C26790300160826008380183191C47
:100F9000AC31026004330A8020390A60201C291C0D
:100FA000DA6703F00DFA70BDF10E0000400000207A
:100FB000F0B5754685B00395294D01900F1C281C8E
:100FC000714603F0E5F9274B00211B680198DA69A7
:100FD000920008F097FB05F001F802904478214D4B
:100FE000002C21D0042002F0AFFE28684269561E72
:100FF000009617D383690099019E5943C918890047
:1010000071180439013B0BD3866856439E1901368B
:10101000B600F5590E68AC46B44465460D60F0E77D
:10102000009AE4E7013CDAE72F687D69013D11D3BE
:10103000BC69019A261C6E433619B6009619043E07
:10104000013CF3D3029B3068597808F04BFA000456
:101050003060F4E70248039903F0B2F905B0F0BD3F
:10106000510F00001C03002038B50B4C7146201CAA
:10107000754603F08DF9094B201C1B68DA6A002ABB
:1010800003DD596B5218D20F00E000227433291C83
:101090001A7003F095F938BD0910000040000020D7
:1010A000F0B52C4F72468BB07146381C019203F09C
:1010B0006FF9294D2B681A1CCC321178583A002947
:1010C00004D1191CB0310978002901D00021117018
:1010D0001478002C21D0996F002407915A6B03A932
:1010E0000892DB6A07AA099303234B708B707C2359
:1010F0005B42CB7001261023201C8C800E700B717C
:1011000004F096FE2B689A6FD96F8A4202DC92191E
:101110009A6718E09C67341C15E05A6B05A9079282
:10112000DB6A0920089301230B7002234B708B703C
:101130007C235B42CB7007AA64238C800B7104F084
:1011400077FE2B689C67381C019903F039F9201C45
:101150000BB0F0BD411000004000002038B5094C34
:101160007146201C754603F013F904F071FD002848
:1011700002D1022002F0C0FD291C201C03F020F93E
:1011800038BDC046FD10000037B5114C7146201C1B
:10119000754603F0FDF805F0C9FC02F047FE021E9B
:1011A00007D16946A923888000900B7104F040FEA6
:1011B000FEE7084B1B6803CB02F0D8F805F0D2FC21
:1011C000FFF7E0FD291C201C03F0FAF837BDC046EC
:1011D000291100001C030020F0B587B000AF754650
:1011E000786039615C487146FD6003F0D1F803F026
:1011F0001BF883000A33DB08DB006E46F61AB5469F
:10120000041C684603F016F863000833DB08DB00B3
:10121000F61A301C6D46B546BE6003F025F84F4BFC
:101220001B68191C88310868632807DD012000222B
:1012300040420A604861CA61191DCA671A1C883297
:101240001068191C013008311060CA6F632A09DD6B
:1012500000220120CA67404290318A6008601A1D4E
:101260000121D1671A1C0832D16F0131D167191CD5
:1012700094310E68012E07DD0120002240420A60F1
:10128000C8824A8308390A601A1C943211680131F5
:101290001160191C90310868012809DD0022012025
:1012A0000A608A8340421A1C08838C320121116033
:1012B0001A1C90321168013111600022101C013C8F
:1012C00008D3A1006958BE6840186100715A5218CD
:1012D00092B2F4E7191CAA310024A4261D19B446C1
:1012E000AC447D6165462D68854201D2664630601A
:1012F0007E699C363568854200D930608E8896427A
:1013000000D28A800E88964200D90A80043C261CAE
:1013100002390836E1D11A1DD26F7D6892009A1801
:10132000111CA0319832096812683E698A1A2A8015
:101330001A1C8C321268084852009B181A1CAC32D6
:10134000A83312881B88F968D31A338003F038F861
:10135000BD4607B0F0BDC046791100004000002036
:10136000F0B5284E85B075460191041C7146301CBD
:101370001F1C0395009203F00BF8234D00212B68EE
:101380000098DA68920008F0BDF92B68381C1A69D9
:101390000021920008F0B6F9019D002D0CD0201C10
:1013A00002F0D2FC194B00981B68391C5A69DB69A2
:1013B00005F030FA013DF0E7002C0FD1134B1B680C
:1013C0005D699E69029502F070FB051C02F076FBD8
:1013D000311C031C2A1C029804F018FE0098391CCA
:1013E000019A04F07BFF002C06D1084B201C1D68DD
:1013F00002F05AFEEC3528600248039902F0E0FF43
:1014000005B0F0BD011300001C03002040000020C7
:10141000F0B595B004AF754678613961A34871465F
:10142000FA61BB61FD6002F0B3FF04F0D7FDA04B91
:101430006C461B68BC601C68786204346400221C23
:101440000832D2086846D200851A5A68AD4604327E
:101450005200131C0833DB08DB006846C01A04ADD9
:10146000854604AE301C00213D6208F04BF9221C79
:101470000021386A08F046F98E4C7D6923685A6964
:10148000191C9B690095386A2C3104300190301D7D
:101490000290F86904F0C4FF2368874D191C683175
:1014A0003960796A78602A68097B58699268009186
:1014B000396A029601912C33396807F045FDBA6804
:1014C000236838699546191CDA691B6A00902C312B
:1014D000B86905F005F97E680643F6B23E6204F08D
:1014E0008FFD0679012E0BD12B685B691B78002BD1
:1014F00006D104F0ADFB012802D0301C02F055F8F3
:101500002568281C291C68312C3004F04FFF6B4AD9
:1015100023681268E8660C24115F9D6D8D420EDC15
:101520000E20115EDC6D8C4209DB1025515F186EB8
:10153000884204DC1221525E5B6E934221DA002362
:101540003B8738220123D35504F09EFB002818D195
:1015500004F0AAF9002814D0564B1A68FF239168AA
:10156000FE2901DC9368DBB2381C022139243830B3
:10157000E35504F0E3FA524802F05EFF01F012FF77
:10158000E2E74B4E2921336828255A681868CA5566
:101590009A682A23DA558023E8555B4202252B43BB
:1015A0002B200024C3552C215323BC850132CB555D
:1015B000FB695200391C9A180120283104F038FCCC
:1015C00032680121137C3020C15531203221C355AE
:1015D000CB5580235B422B433322D35534206D23DC
:1015E000391CBC863031C355BA69012004F020FC97
:1015F000336838211A683920CA555968C1559A6824
:101600003A20C255591DC97F3B20C1551B693D2059
:101610003C21CB55C35D7F218B43802149422B4325
:101620000B430132F96952008A18391CC35538310D
:101630000120231C0092221C04F0C0FBFFF714FDC4
:10164000FFF72EFDA04227D11A4C2368586902F0FB
:10165000A7FC2368D86E02F09FFB02F083F93D6A75
:10166000002D0DD12368F9691A1C2C321B6878698A
:1016700004F048FD236838691A68B96904F09EFDD2
:10168000022001F0BFFFB86905F034FB2068002498
:10169000703006F079FE00E02C1C0448F96802F076
:1016A0008FFE201CBD4611B0F0BDC046B113000036
:1016B0001C0300204000002044000020540B0020A8
:1016C00010270000F7B5194C00AF73467960061C6F
:1016D0007146201C3B6002F05BFE154B68461B68A0
:1016E000144D19689B688A1C5B005A4301315B08E2
:1016F0004B430832D208D200801A8546013329684C
:101700006A465B00D3188A60CB60301C7968FFF7AB
:101710007FFE2B680022061C3968201C9A60DA6064
:1017200002F04EFEBD46301CFEBDC04665160000F0
:101730001C03002044000020F0B585B002AF7446C1
:10174000051C3C607960141C7146144802F020FEB0
:10175000A200131C0A33DB08DB006946C91A8D4658
:1017600002AC201C002107F0CDFF0D4E281C326872
:10177000516A936A68320092221C06F027FE336891
:101780007A68596A281C9B6A0092221C06F09AF912
:101790003968024802F014FEBD46F7BDD9160000B4
:1017A00040000020F7B51E4F75460C1C161C7146F4
:1017B000019500901D1C381C02F0EAFD211C2B1C19
:1017C000321C009806F0AEFB201C05F0F1FC154B16
:1017D000201C1B68596A9A6A06F0BAFC201C05F0A6
:1017E00017FC2A1C201C311C05F0B2FA04F008FC7E
:1017F000051C05F0B1F9963003783C1C002B09D18B
:101800002B79002B06D004F023FA012802D0012006
:1018100001F0CBFE201C019902F0D2FDF7BDC046BD
:10182000451700004000002038B5074C7146201CC9
:10183000754602F0ADFD07F093FD01F0F1FC291CA7
:10184000201C02F0BDFD38BDC917000038B50B4C97
:101850007146201C754602F09BFD07F03DFE07F027
:1018600087FD01F0DDFC002002F042FB01F07AFE72
:10187000291C201C02F0A4FD38BDC046ED17000055
:10188000F0B5C5B000AF73467146041C38487B60A4
:101890003E1C02F07DFD381C2C3600211422403005
:1018A0003D1C07F02FFFE835301C0021142207F003
:1018B00029FF00212822281C07F024FF381C0A22B7
:1018C0000C30002107F01EFF3B1C6833D022D3519F
:1018D000143BD422D3514023DB19D822D351DC232B
:1018E000DE51E0220C23D551DB19E422D351204EE6
:1018F000002C2AD16A46583D3A60281C211C14222B
:1019000007F000FF3B1CB833FB61143B3B62283BF4
:10191000BB62184B7D621B681B6A5B00023B9A1C12
:1019200002D0FF22EA52F9E7381C391CCC301831BA
:1019300005F058FA05F088FA381C391CCC301831FB
:1019400005F0F0FC3B689D460BE0381CCC30211CB8
:1019500005F048FA05F078FA381CCC30211C05F067
:10196000E1FC301C796802F02BFDBD4645B0F0BDAE
:10197000211800001C030020F7B5304E7146301CC2
:10198000754602F005FD05F0E7F82D4C963023680A
:1019900001781A79002902D151B2481C04D10027DC
:1019A000DF60BA420DD118E0D8681A69904202DAB5
:1019B000D8680130D86001290FD0DB6893420CDB76
:1019C000012700223B1C69460E33101C8A800092BE
:1019D0000B7104F02DFA23681F7123681A79002A0D
:1019E00003D1184A1268127804E0012A03D1154A7B
:1019F000126852781A60186802F0FAFC2368071C13
:101A0000EC33186802F018FD3F1A002F0BDD236835
:101A1000186802F0EDFC2368071CEC33186802F02C
:101A20000BFD381A00E0012001F0BFFD01F0DEFDE2
:101A3000301C291C02F0C4FCF7BDC0461919000077
:101A400040000020540B0020F0B5734691B0041CF8
:101A50000E1CAF487146059302F09AFC04F0D0FAD0
:101A6000049005F079F82278AA4B002A08D1723048
:101A70000278511E8A41D2B20292002A06D001E0B9
:101A8000012002901A680021B83205E01A68B832C5
:101A90001168FE2901DC013111601B6800211A1C4C
:101AA000B43211700299002904D09B490968097D5C
:101AB00000295FD0181CB3300178C9B2002908D0C2
:101AC00003785BB2022B00D0012313700023037054
:101AD00084E11D1CB0352C78002C09D00124147031
:101AE0001A1CB132BC33017029701170196076E193
:101AF000029800283ED1191CBC310C68002C09DD6D
:101B0000013C012C01D00C6034E0029B0B600323EC
:101B1000137064E11A1CE832126811887F4A9142FE
:101B200028D01A1CC83211887D4A126852888A420D
:101B300020D8794C2068427C181CB830006890424C
:101B400018DB0EAA1180CA331B8806A95380029B9A
:101B500002988B8001230B7002234B708B70CB702B
:101B600015230B7104F064F96A4B22681B68927CA0
:101B7000BC331A60684C2768F87C002800D02DE13F
:101B80000299644D002900D08AE02C68231CE733B9
:101B90001B78002B5CD03B1C2C331B78002B57D0C0
:101BA000231C0E91DC331B680393231CC83303985A
:101BB0001A8843009A533B1C2D33197802984B0026
:101BC000F618031C994206D05A00B21A023A12883B
:101BD00001338018F6E707F0D3FC0E90FA8B231C34
:101BE000E033904202DA1A68013200E000221A6003
:101BF0003B1C221C2E33E0321B7812689A4219DDFE
:101C00007C2308A900265B420124CB70301C1623DC
:101C10000EAA8E800C700B714C708C7004F008F959
:101C20002B68301C1A1CDC32E03316601E6004F096
:101C300041F9D4E03B1C2D331A780399231C013A57
:101C4000DC33914202DA0A1C013200E000221A6001
:101C5000C4340137FB7F22689A4219DB00240AA9A9
:101C60001223201C221C8C800A940B7104F0E0F8D3
:101C70002A682948131CC0331968006801311960AB
:101C80000230C07F814203DB1C60B4320223137038
:101C90002A680023111CB231C4320B70136049E072
:101CA0002B681A1CBC3210602A321278002A41D0EC
:101CB000191CC83109880EAA1180CA331B880CA9C7
:101CC000538001230B7002234B708B70CB70192350
:101CD00088800B7104F0ACF82B682268191CC8319D
:101CE0000C88D08B163984421CD2181CCA30048848
:101CF000508D844216D2097800291BD1C433013299
:101D00001968D27F914215DA0131196012E0C0469C
:101D1000E919000040000020500B0020FFFF0000E8
:101D2000540B002001220A70191C0022C431C03358
:101D30000A601A602D4D2B681A1CE6321278002AB0
:101D40004CD104980279002A46D01A1CB03214787B
:101D5000002C43D1264ED86A3768798BBA8BFB8A20
:101D60003F8B009704F0F4F836682B68718CB28CC6
:101D7000071CD86AF38C368D009604F0E9F82B68BE
:101D80001A1CC8321188CA33B94202DA1A88824250
:101D900014DB08AA11801B880EA95380022300209F
:101DA00001254B708B70CB70172388800D700B71E1
:101DB00004F03EF80D4B1B68B1331D700B4B1B68D4
:101DC0001A1CB1321278002A08D00299002905D0D5
:101DD000B03301221A7002E0B1331A7001240548B1
:101DE000059902F0EDFA201C11B0F0BD4000002072
:101DF000500B0020E9190000F7B575460195424DDA
:101E00007146041C281C02F0C3FA404E33681A1CA9
:101E1000B1321278002A24D01A1CE6321278002A35
:101E20001FD11A1CCC32117800291AD1B0331B787B
:101E3000002B16D10123137001F0F8F9071C01F0F3
:101E4000E9F9334A031C1268453303CA3A1C5B3272
:101E500004F0F6F901F044FF022001F04DFFFFF716
:101E600077F833681A1CCC321278002A45D01A1C35
:101E70000020B0321070274A00901768011C3A6A9F
:101E8000013A0BD3E5685600755B002DF8D02EB2F1
:101E90000131B042F4DA301C0092F1E71A1CE6324C
:101EA0001278002A0ED101290CDD012222703A6A33
:101EB000013A09D300998A42FAD0E568510000201E
:101EC0004853F5E7002903D01A1C0021D43208E05A
:101ED0001A1C181CD432D03011680068814201DC11
:101EE000013111601A1CD4321168043A126891420F
:101EF00005DDB03301221A7001E0D4331A600248C4
:101F0000019902F05DFAF7BD991D00004000002024
:101F1000440000201C030020F0B5C1B002AF75469C
:101F2000F861B961D94871467D603A62BB6002F0E0
:101F30002FFAD74E6C4632683C61136892689D1C3C
:101F4000520055430133291C520853430831C90834
:101F5000C900601A8546013302AC5B00FC62E318DD
:101F6000CC4CBB622368FC6A00219C60BC6A3C22AA
:101F7000DC60C94C20682C3007F0C4FB2A1C00210F
:101F8000F86A07F0BFFBA623002038210025388718
:101F9000CB55391C2A1C281C34317D6303F048FFC3
:101FA000FFF7EAFC21683C25081CC830CA31FFF75E
:101FB00013F9316800234022D35301200B79E855EF
:101FC0003D223E25D355EB5540225B23D3550421BA
:101FD00023683F20C155391C9A6902203C3103F027
:101FE00027FF326800254823DD530121137C44205C
:101FF000C15545254620EB55C35548256C23EB5567
:10200000042223684721CA55391C1A6A0220443128
:1020100003F00EFF23683D1C1A1CC8321288DC3501
:102020002A80CA331B88391C4C3101220020888049
:102030000A700A716B800C2002232A1C4B708B7073
:10204000CB7003F0F5FE3368391C5A6818685431B8
:102050004A709A680870581D1B698A70C07F0B719E
:1020600004234B71236801325B6992009A18C8708F
:1020700000920022131C022003F0A0FEF869B96947
:10208000FA6ABB6AFFF7C4F9F862002803D0386A1D
:10209000FFF7F6FBCEE0684692B002AC92B0BC62AD
:1020A00002AC8AB0FC6102AC90B002AE8AB0BC61F6
:1020B00002AC88B0F8607C62F96A02AC4022B86A6F
:1020C0007C6107F01FFBF96A4022F86907F01AFBF0
:1020D000F96A2022B86907F015FB301CF96A402222
:1020E00007F010FBF96A2022786A07F00BFBF96A07
:1020F0002022786907F006FB3C1CF969C034B86AF5
:102100007B6AA1606349BA696060636178690B6842
:10211000E2601C63A061396A201C10222661FFF76F
:102120000BFB3E1C8AB002AA8436BA62F96A1422FA
:10213000301C07F0E7FA381CF96A1422703007F0F7
:10214000E1FAF96A2822B86A07F0DCFA381CF96A61
:102150000A22643007F0D6FA3B1CAC336B60143BA8
:10216000AB604C4A7023DB192B61B86A1368642199
:10217000C9196861A961EE60201C1D61291C3A6AB9
:10218000BB68FFF70FFB88235B00D959281CFFF7BA
:102190005BFC424B1B681B7D002B02D1281CFFF708
:1021A0002BFE3C1CDC34201C396A05F0BBF825787A
:1021B0006C46AB000733DB08DB00E41AA54602AC33
:1021C0003C622E1C12243B1CDC33D868025F002AC0
:1021D00009DD3A6A013E5B69B000610010185918C8
:1021E000042207F04DFA023CA31CECD1284B391C09
:1021F0001B685C311C6858689A680C7048708A705B
:102200000533DB7F0132CB707E235B424B71224B67
:1022100052001B6800249B6A0C719A1800923B6A5A
:1022200003202A1C03F0CAFD1A4B1B681C611C63A7
:10223000FC68A546174B00221B689A60DA603D696E
:10224000AD4601F02DFC01F04BFD01F005FA012037
:1022500001F07AFD01F04AFB0F4BB4201B681856C1
:1022600000F0F0FB041E00D1FC6A0D4B1B681A68DD
:102270000C4B9A4202D001F07BFFFEE703487968DD
:1022800002F09EF8201CBD463FB0F0BDB91E000014
:102290001C0300204400002040000020500B0020C0
:1022A000780B0020CDCDCDCDF0B59DB002AF7446FA
:1022B0007146CE487C6002F06BF800F0ABFF061C64
:1022C00000F0C0FF386100F0B1FFC94B6D461C68DB
:1022D000B860E36800211A1C0E32D208D200AD1A91
:1022E0002269AD460E32D208D2006846801A02AD8D
:1022F0008546FD6102AD7D6272799A18131C0E331A
:10230000DB08DB00C01A53000E33DB08DB00854618
:10231000C01A02AD8546C01ABD6102AD854602A84D
:102320007861B86907F0EEF9E1687279281C5218F3
:1023300001215200494207F0E5F9E3687279AD499D
:10234000D2185200786907F0DDF9E2683969F86956
:102350003D6607F095F939692269BA31FF31786A2B
:102360004024002507F08CF9FC603D62796AF86929
:1023700002F052FF032001F0E7FC9D4D00202B6886
:1023800038861A6858682C212D24CA55E0559A6859
:1023900004242F23DC55984C51233020C355236847
:1023A0002E21CA555B6901329200391C9A1802200D
:1023B0002C3103F03DFD01233422D3552B68362008
:1023C0001B7C3525EB55C35500215A233825398709
:1023D00004223721EB552368CA55391CDA690220DB
:1023E000343103F025FDB479013C631C2CD07579A0
:1023F000013D6A1CF8D0737978696343EB185B0080
:102400001A5A7E4B9A42F3D0B96960223960F96555
:102410007866D219694609CA09C1211C3B68F86966
:102420002A1CFEF70DFD002803D03B6A01339BB246
:102430003B627379BA6963433869EB18D15CC25C5B
:102440008A18F969CA54D3E7F479013C601C2FD08B
:10245000B17973797D694B43E3185B005A5B674B35
:102460009A42F2D0BD6960203D60FD65C0197D696A
:1024700084467D666846624628CA28C0221C3B689E
:10248000786AFEF7DDFC002803D03B6A01339BB27B
:102490003B627379B279BD695A432B193D699A5CE5
:1024A0002919BA31FF310B787D6AD3182B55CCE747
:1024B0004F4B3C6A1B68DA681B69D3189C4206DAEA
:1024C000FB68013BDBB2FB60002B00D04EE7002431
:1024D0004025FC63EC53B3793C20C35573793D210F
:1024E0003E223F25D355CB55EB5D7F20012583430D
:1024F00080212B4349420B433F22D3554020D22316
:10250000391CC3553C310820FA6903F091FC391C91
:1025100044317C648C800D70F3797F224B708B701A
:10252000CB78082093431D4380235B422B43CB7021
:102530007A6AD3230B7103F07BFCB379013B0FD391
:102540007279013AFAD37179BD685943FC698918E7
:10255000E818611864300C78007820180870F0E7EB
:10256000F379013B08D3BC687D6AE2187C321178AC
:10257000EA5C8A18EA54F4E7F869796A02F04CFEDA
:10258000391C4C310024FC648C80B3797F200B70A3
:10259000737901254B708B70CB78802283432B435A
:1025A00052421343CB70FA691D2308200B7103F0CC
:1025B0003FFC391C54317C658C800D70F3797F248D
:1025C0004B708B70CB788026A3431D4376421E232D
:1025D0007A6A2E4308200B71CE7003F029FC034861
:1025E000796801F0EDFEBD461BB0F0BD4922000048
:1025F0001C030020FFFF000040000020FEFF000041
:1026000038B50B4C7146201C754601F0C1FE00F038
:102610000DFE58300378002B02D1FFF745FE01E094
:1026200001F084FE291C201C01F0CAFE38BDC04602
:10263000A1250000F0B5A5B000AF724671467861E3
:10264000E1487A6001F0A4FEE04C23689B683B629D
:102650005B0001333B6501F099F92368FF229B6819
:10266000F865D31A984200DDFB65F86D3B6A0024DB
:10267000C31AFB6101F090F93A6D694655002B1CB5
:102680000833DB08DB00C81A85466A466423DC533E
:10269000602001237965FA6461216222C355CB551C
:1026A000D3557C235B426320C3556421B123CB55B2
:1026B0003A1C391C201C60315C3203F0B9FB3A6DC6
:1026C000944206DAF869F96C63002218CA520134A0
:1026D000F5E700246C23D1B2DC530126682069227F
:1026E0006A23C655D155D955B96402236B20391CCC
:1026F000C3556831201CFA6C03F09AFB2B1C796DD2
:1027000008338D46DB08DB006A46D21A9546D21A9A
:1027100069469546F9637A6301F086FD3861301C9D
:1027200000F0D2FF211C2A1C786B06F0EBFF211C65
:10273000F86B2A1C06F0E6FF386D69468000031C22
:102740000A33DB08DB00C91A8D46C91A3B69B86138
:102750009B00684638638D46F962BB60FC640021CB
:10276000BA69386B06F0CEFFF86AFF21BA6906F045
:10277000C9FF00207865954B786D1B685B689842AF
:102780004BDAF9690026C9B2081CB96301F00FF9E8
:1027900001F0DCF800F08EFFFC6A3D6B386D01360D
:1027A000F217C30F86425341DBB2BB62002B06D146
:1027B000B96B8819C0B201F0FAF801F0C7F86B469E
:1027C000FB60BB686A460A33DB08DB00D01A85462B
:1027D0006A467A6401F02EFD00231A1C39698A4288
:1027E00005DA786C9100415801325B18F6E72A68E7
:1027F000934200D92B602068834200D22360F9689D
:10280000BA6A8D4604340435002A02D100F052FF22
:10281000C4E77B6D01337B65ADE700216C4D7965C5
:102820000C1C3A6D944217DA3A6BF96AA300D0583F
:10283000CB58C01A854204DDFA69051CA2187A62D9
:102840003C647B6D834200DA786500F027FFF96B0A
:102850006300C8520134E4E7786D00F01FFF5B4B62
:102860001B685B88984206DA7B69012B03D0F86D00
:10287000396A78623964574D00262C683222231D4C
:10288000DE670433DA67396C803364221A6002220F
:1028900091409A60FA6A01208A58D8605E60101CE4
:1028A0003A60B96300F0FAFE9834BB6B396B206074
:1028B00058582C6800F0F2FE2B6801211A1CAA322D
:1028C000A0344942206011807A69AE331E80012A0B
:1028D0002BD17A6B331C396D8B4209DAF86B5900B6
:1028E000415A1088884200D2118001330232F2E747
:1028F0003A6C786B53001A5AF96C131C8A4200D256
:102900000B1C9BB27021FB640123CB557422BB6C62
:102910000020D05372217122D355CB55732202234C
:10292000391CD35570317A6B10E0786D00F0B6FE2B
:10293000391C80B278310222F864B86C0123CA7065
:10294000FA6B487088708E800B70301C03F070FA40
:10295000386C8823D8537A6AFB6B8A214400CA53A7
:102960001C19FA6C23888E21CA538C20391C8031A3
:10297000C35304234B708B70002502233A1CCB7089
:102980008832B2230126281C8D800E700B7103F053
:102990004FFA23880F4C2268111CE8310968098816
:1029A000994224D206F098FD051C06F0EDFC037850
:1029B0007865002B10D0301C03F07CFA23687E6D04
:1029C000E83302361E6023E0D5250000540B0020BA
:1029D000FFFFFF7F40000020002D19D1164B1B6820
:1029E000DB7C002B14D1301C03F058FA10E0E732E6
:1029F0001278002A0CD0114E306842889A4207D9CA
:102A0000281C03F057FA23683268E83302321A6050
:102A1000796900290AD17A6AD0B200F0C8FF084863
:102A2000796801F0CDFCBD4625B0F0BD03F0FAF8A1
:102A3000072800D193E6EEE7500B0020540B00204E
:102A4000D5250000F0B5814D8DB0724671460190DC
:102A5000281C039201F09CFC06F03EFD061C03F0CE
:102A60002FF9071C03F03AF9794C029023681A1CDD
:102A7000E4321278BA4226D0002F0CD000226B46E6
:102A80009A8269463B230B75101C04A90492022606
:102A900003F0CEF912E0029A3D1C002A0FD106A9DC
:102AA0003C23381C3A1C8F8006970B7103F0C0F949
:102AB0002368E6331E78731E9E41F6B20125236813
:102AC000E4331F701FE01A1CE532127802998A4223
:102AD00018D0002906D1E6331E78731E9E41F6B247
:102AE0003A2301E039230226002208A9101C8A801B
:102AF00008920B7103F09CF92368029AE5331A706F
:102B0000012500E0002503F095F8071C03F0CAF842
:102B1000019B032B02D0002F03D107E00125002FDA
:102B200038D0002003F08EF8012533E02368E43329
:102B30001F88002F2ED10199012902D0022904D02B
:102B40000EE0019803F0AAF90AE0381C03F0A6F998
:102B50002368E7331B78002B02D0381C03F0AAF956
:102B600003F096F92368071CE6331B78834211D0E3
:102B7000002802D01123012601E01223061C0022A6
:102B80000AA9101C8A800A920B7103F051F923687C
:102B9000E6331F7006F0A0FCB04237D006F09CFC74
:102BA00006F0E6FB071C301C06F0E2FB019006F085
:102BB00093FC301C06F08AFC06F054FC254B1B6885
:102BC000187D002801D1012D0ED0234B3A1C1B6823
:102BD0005B3203CB019B5B3303F032FB002001F03F
:102BE000B3F8FEF7B5F904E02368CC33187001F0B0
:102BF0007FF9002003F05EF9236800211A1CE732F8
:102C00001170164AE833126802321A6006F064FC4A
:102C100006F0BAFB0378002B08D003F045F92368CF
:102C2000E7331A78824201D01870012503F072F858
:102C3000041C03F091FF0379A34200D00471034800
:102C4000039901F0BDFB281C0DB0F0BDE529000083
:102C500040000020500B002044000020540B0020B6
:102C600038B5054C75467146201C01F091FB291CB6
:102C7000201C01F0A5FB38BD012C000038B5054C27
:102C800075467146201C01F083FB291C201C01F0B5
:102C900097FB38BD1D2C000038B5054C75467146B4
:102CA000201C01F075FB291C201C01F089FB38BD9C
:102CB000392C000038B5054C75467146201C01F0D2
:102CC00067FB291C201C01F07BFB38BD552C000044
:102CD000F0B597B000AF744671463861D648FC60D5
:102CE00001F056FBD54C23685D681E687D626E431B
:102CF0007500FD627D6A3E62721951000831C90893
:102D0000C9006E46761AB5466D469000BD620A301F
:102D10007D6AC0080732C000AE00D2086D462D1A89
:102D2000D200A81AAD468546FD636D46401ABD63C4
:102D3000C34D85463863396AB86B2A6841185062BA
:102D40009162FA6A796352085000FA611A69694619
:102D5000B86152000818FF2106F0D4FCFF21FA6A7E
:102D6000386B06F0CFFC23680021DA68B86B06F0F8
:102D7000C9FC236800211A69786B06F0C3FC2B6834
:102D80007D6AB8696A00BD6A52087A612A18DD61F5
:102D90001A6223680021DA68F86B920006F0B2FC30
:102DA0003D6A0021AB009D08BD61FD6BEB18FB6225
:102DB0002368F86A1A69920006F0A4FCFEF722F86C
:102DC000786300F027FA3D69022D00D1A0E0032DC1
:102DD00000D139E1012D00D0E8E17B6BB608FE623D
:102DE0002F331E78002E46D0002000F0ADFF934C0C
:102DF0009449226809685368013B21D39D001468F7
:102E00003D63651EBD63F7D33D6B88694059956886
:102E100078626C431C1948690134A4002558786A0B
:102E20000024854200DD2C1AB86BFD6A4543F86B1F
:102E30005D19AD0028580419F86B2C50BC6BE0E705
:102E40001369804ABC6911685A1E1219FD6B920001
:102E5000AA18013B0DD388690438046848690568DD
:102E60000020A54200DD281B1468043A2018506099
:102E7000EFE7013EB6E7714D2E687468013C16D34A
:102E80003568013DFAD37B697A6B6B43E3185B00CD
:102E90003B63FB6A2F326B431178E318FA6B9B009C
:102EA000985806F06DFB3B6BB96A5852E9E73469F4
:102EB000BE69B500FE6B7519FE697300BE6AF31832
:102EC000FB63013C0AD37A6BA3002F321178E858D8
:102ED00006F056FBF96B66008853F2E7FFF7CEFE6B
:102EE000564C4120236842211A791E684025C2555C
:102EF000CA555A1D1B69EE554425D27FEB557E23DA
:102F000043245B424526381CE255F355403091E09E
:102F10007B6BB6083E6330331B783B623E6A474D9D
:102F2000002E41D0002000F00FFF2A68454B1168A9
:102F30001E684B1EBB6324D35368BC6B581E84466B
:102F4000386BFD6B6043604484002C197C62013B4C
:102F500015D390680124484384469C44786AA4446D
:102F6000006874696546AD00386028593C6884463D
:102F7000A444786A6546056004387862E7E7B96B6F
:102F8000D7E7304B126919689300043B013A07D325
:102F9000CD69FC6AE858E458FE6A2018F050F4E75E
:102FA0003C6A013C3C62B9E72E687468013C16D368
:102FB0003568013DFAD37B697A6B6B43E3185B009C
:102FC000BB633B6B30326B431178E318FA6B9B00A9
:102FD000985806F0D5FABB6BB96A5852E9E73469DC
:102FE000FE697500BE6A7519013C0AD37A6BA300AD
:102FF00030321178FA6A6600D05806F0C1FAA85348
:10300000F2E7FFF749FE0D4C492023684A211A795F
:103010001E684825C255CA555A1D1B69EE554C25D8
:10302000D27FEB557E234B245B424D26381CE25564
:10303000F3554830B96AB7E0712C00001C0300203A
:10304000440000204000002023680021DA68F86B6B
:10305000920006F057FB2368F86A1A690021920073
:1030600006F050FB7B6BB608BE6231331B78BB6148
:10307000BD69554C002D4FD0002000F065FE53492E
:103080002268086853688446013B24D31068411EB7
:10309000FAD3946865466043BC6A18184C431C19FF
:1030A0006D69A6000130FC6B800040593459051C45
:1030B0007C63A04200DA251CFC6B35517C694C43D3
:1030C0001C1966003C6B355BA84200DD281C3D6B7B
:1030D0007053081CDBE71369FE69591E3B4A8919C6
:1030E0003C6B4900156861189A00043A013B0FD304
:1030F000EE69B058FE6AB458844200DA041CFE6AD5
:10310000B4500C88844200DD041C0C800239ECE7CA
:10311000BC69013CBC61ABE721684B68013B18D33B
:103120000A68013AFAD3BE6B7D69F6187E6355438F
:10313000BE6A386B56435D196D002D5A9E19F86BA7
:10314000B6003658786B761B7D6A76105543465527
:10315000E7E7FE690B6975003E6B7519013B0AD301
:10316000BE6B386A99003218FE6A70585900695A65
:10317000411AD154F2E7FFF79DFD236852251A79D1
:10318000196851245020E255EA555A1D1B69C15552
:103190005420D27FC3557F2355215B425326CB5504
:1031A000381CB96BF255503002F094FB084B0022EA
:1031B0001B6808485A629A62DA611A62F96801F07B
:1031C000FFF8BD4617B0F0BD1C03002040000020F2
:1031D00044000020712C0000014B18607047C0466D
:1031E00040010020014B18687047C0464001002094
:1031F000014B58687047C04640010020014B986859
:103200007047C04640010020014B18607047C0461F
:10321000600B0020014B18687047C046600B00200F
:10322000014B18607047C0465C0B0020014B1868CA
:103230007047C0465C0B0020014B18607047C046C9
:10324000580B0020014B18687047C046580B0020EF
:10325000014B18687047C0464C01002010B50D4B5B
:1032600000201B78AA2B12D10B4B1C780B4B64B29D
:1032700018780B4B40B219780A4B20181A780A4B71
:1032800049B21B7840188018C01A43425841C0B256
:1032900010BDC04650000200510002005200020062
:1032A0005300020054000200550002008023DB029C
:1032B0000022188059809A80C046024B188880B23C
:1032C0007047C0460600040013B5094A0424137869
:1032D0000021DBB21C4301910198F421FF318842A7
:1032E00005DC1370C046147001990131F3E713BD7A
:1032F0000D00005013B500220192A022D205D06B20
:10330000C021C9000143D16301AB18780321884370
:10331000012108430C24A043042420433024A0436B
:10332000102420433F2420404024204318709878E4
:103330000F24A043072420439870D8780143D97004
:10334000019B936113BDA023DB059869C001C00FE9
:1033500070470122A023DB0510400206024998694C
:103360000840104398617047FFFFFFFE82B00022C3
:10337000019201301F2201AB1040C9B21870481CE5
:10338000023110400A4092005870DA70019AA0236E
:10339000DB05DA61196A024A0A401A6202B0704714
:1033A000FFCFFFFF0002064B000A013800225860E1
:1033B0009A6005221A60C0461A68D103FCD570478E
:1033C00010E000E0F0B5534F85B03B681A1C543252
:1033D00015780232596D127857331E780F2314076F
:1033E000994312092D0701922D0F0B1C80222B43AC
:1033F00052001343484A0395484D1340484A2B4016
:1034000048491340240F0B400199220413430A0535
:1034100045493607360F0B40009613433206434E9C
:10342000029433401343424AA024E4051340E3606E
:10343000FFF74AFF3B68E26855331B781540DB060F
:103440009B0FDB021D43E560E26880239B00134372
:10345000E360E26880239B011343E360029C039DC9
:10346000FFF7FCFE002813D0324F882039781E3435
:10347000C9B206F085F839784443C9B2882006F00D
:103480007FF80F3545431E3C00230F3D9C4203DB74
:10349000231E0F2B00DD0F230F22954200DD151C8C
:1034A000A024E4051F491A40E36812040B401343AB
:1034B000E360EB43E268DB171D400F239A431D4096
:1034C0001543E560E368F022934380221343E360F1
:1034D000E368154A18481340E360E3683340E3604B
:1034E000FFF760FFE26880235B051343E360009908
:1034F000E2680B0616401E43E6601048FFF752FFD5
:10350000019B09491A05E3680B401343E36005B0CA
:10351000F0BDC0465C0B0020FFF9FFFFFFE7FFFF97
:10352000FFDFFFFFFFFFF0FFFFFF0FFFFFFFFFF0D9
:10353000FFFFFFEF54000200FF0F0000FF6F0000CD
:10354000064A074B1268012094321268197890409D
:10355000021C0A43D2B21A707047C0464C010020C8
:10356000290000500549064B09681A78943109680A
:103570000120884082431A707047C0464C010020E9
:1035800029000050044B1878044B1B6894331B68C7
:103590001841012318407047290000504C010020B9
:1035A000A0230122DB055A707047044B82B00190C2
:1035B00001AA188092789A7002B0704724000050D7
:1035C00007B500F015FF064B019001AA188092780C
:1035D0009A70044B00221A70034B0122DA7707BD60
:1035E000240000500000002008000050034B00227F
:1035F0001A70034B0122DA777047C04600000020A2
:103600000800005072B6084B1B5C002B03D1C0466B
:1036100062B630BFF6E762B6A023DB059968034ABD
:103620000A409A607047C04600000020FFFFF9FF83
:1036300072B6074B1B5C002B02D1C04662B6F7E79F
:1036400062B6A023DB059968024A0A409A60704777
:1036500000000020FFFFF9FFA023DB055A680121CD
:10366000120E58689143034A090602400A435A6001
:103670007047C046FFFFFFFE08B5074B1B681A1CCA
:103680005C3212785D331B7852000132504399400E
:1036900005F076FF08BDC0465C0B002008B5044B62
:1036A0001B685F33197849000131FFF7E5FF08BD5A
:1036B0005C0B002008B5A0230120DB055870FFF744
:1036C000A1FFFFF7C9FF08BDF7B5A026041CF6054A
:1036D000042804D1524B1B68DF6E1B6F21E0514B55
:1036E0001B689F6CDB6C7361FDF79EFBE730037812
:1036F000002B17D005F0F0FE05F046FE01797F2281
:1037000011408904019171690B1C47490B400199D3
:10371000194371614179444B0A40716992040B402D
:1037200013437361A023DB051F611E691F231E4025
:10373000FFF794FD00280AD03C4B88201978043606
:10374000C9B205F01DFF46430023043E03D4331ED7
:103750001F2B00DD1F23A022D20510691F210B4063
:10376000884303431361022C16D007DC002C13D0CE
:10377000012C2DD12B4B1D685E3529E0042C07D080
:1037800023DB052C24D1264B00241D6877351FE050
:10379000234B1D6874351BE0FDF746FB031CCC333F
:1037A0001B78002B03D01E4B1D68453510E0E73019
:1037B0000378002B05D005F08FFE05F0E5FD851D93
:1037C00006E0184B1D685B3502E0164B1D6861353D
:1037D000A023DB05596928783F221040914301431B
:1037E000596168781F215D6908401149C00229406C
:1037F000014359610F49640009680C19211C5331B8
:103800000878596810409143014359605434217835
:1038100058680A401102084A02400A435A60F7BD3C
:10382000600B00205C0B0020FFFF03FE5400020031
:10383000FF07FFFF4C010020FFC0FFFF274BF0B543
:103840001A68274B85B01B685E331B785B069B0E9E
:103850000193517E00238D005519581E5B18002BD3
:1038600025D053181B189B7E8024D3185E78A02384
:10387000DB055F68E4033C435C60019CB6062404FE
:1038800000945F68B60EBC46164F64462740009C05
:1038900027435F60C04624367600F65A84002C1910
:1038A00066675E68104C34405C60031CD5E76F4669
:1038B0000293BB8101233B72537E7F217B72BB72DB
:1038C000FB7A74328B4304210B43FB720F20B0232D
:1038D00002A93B7302F0ACFA05B0F0BD4C01002028
:1038E0005C0B0020FFFFC0FFFFFFBFFFF0B585B0FE
:1038F000FFF7A4FF144B00251E68747E631C9B0019
:103900005B420093A300F3180193009B043D9D428A
:1039100007D0019A01215719786FFFF7ADFE78673C
:10392000F3E76A4600239381012313720423D372C1
:10393000B023547294721373321C74320F2002A994
:1039400002F076FA05B0F0BD4C010020044B0022D5
:103950005A70A023DB055A7001221A707047C046C6
:1039600000000020A023DB059968064A0A40802158
:1039700089020A439A60044A0021917001229A70D8
:103980007047C046FFFFF9FF00000020014B1B6895
:10399000D86E70474C010020014B1B68D8667047F9
:1039A0004C010020A023DB059868C0B2704730B5F9
:1039B000A023DB059B68DBB283420ED001DA013322
:1039C00000E0013BA022D2059568FF211C1C8D431D
:1039D0000C40291C21439160EEE730BDA023DB059C
:1039E0009968802252020A439A609968094A0A40FB
:1039F0009A609A68120112099A60D968064A0A40C8
:103A0000DA60D968054A0A40DA60D968044A0A408F
:103A1000DA607047FFFFFFF0FFFEFFFFFFDFFFFFF1
:103A2000FFFFFFEF1B4B10B51A680121131C523327
:103A30001878A023DB059C68084017490004214042
:103A400001439960533210789C68144900070009BB
:103A500021400143996011789A6809091201090708
:103A600012090A439A60D968802252000A43DA6038
:103A7000D968802292010A43DA60D968802252050F
:103A80000A43FA20DA60800000F0D6FCFFF78AFCD7
:103A900010BDC0465C0B0020FFFFFEFFFFFFFFF0E4
:103AA00008B50020FFF7AEFD08BD034B1B685C3373
:103AB00018784000013070475C0B0020024B1B68F7
:103AC0005D3318787047C0465C0B00200048704793
:103AD0000010005000487047002000500048704718
:103AE00000400050064B1B685879064B02301B689B
:103AF00042331B785843044B8000C0187047C046BF
:103B0000600B00204C01002004400050F7B5194B19
:103B1000051C1C68A3795E1E10D36279013A0BD391
:103B20006179501C02315943411813488900091822
:103B30000868E8400860F1E7331CECE7FFF7D2FFC4
:103B4000A37A002201339C466346013B9C460FD377
:103B5000617A96000191861900230199994205D056
:103B60009F00F1590133E940F151F6E75218EBE7B4
:103B7000F7BDC046600B002000400050064B1B689C
:103B80005879064B02301B684E331B785843044B60
:103B90008000C0187047C046600B00204C01002018
:103BA00004400050074B1B68DA795879064B023005
:103BB0001B68013246331B785843044B10188000B1
:103BC000C0187047600B00204C01002000400050DE
:103BD00070B53F4B1D682A7853B2042B18D13D4B6A
:103BE00019680B1C76331E7802235D1E6FD34A7949
:103BF000013A0BD34879541C023058432018364CF4
:103C0000800000190468F4400460F1E72B1CECE725
:103C1000002A45D0022B21D1FDF706F9CC300378DC
:103C20002C4C002B02D02368473302E02B4B1B683F
:103C30005D331878FFF76AFF2568EC79002C2FD0E8
:103C4000FFF7B0FF061C013C2AD3697A201C05F05F
:103C5000EDFC89008A59A300F250F4E7032B03D14D
:103C60001E4B1B68633318E0012B11D1FFF786FF51
:103C7000184B061C1B685C79013C11D32B192233AD
:103C80001B789B009859FFF709FDA300F050F3E75C
:103C9000052B05D10F4B1B6879331878FFF736FFDA
:103CA0000E4B1B685A331B78002B10D0094B1A6837
:103CB0005379013B0BD35079947902306043591CFE
:103CC000091805488900091800200860F1E770BD4F
:103CD0004C010020600B0020004000505C0B0020D5
:103CE00008B5A0230120DB055870FFF78BFCFFF718
:103CF000B3FCFFF76DFF08BD70B5041C104E114DED
:103D000011D10120FFF7E0FC336801221A70A023D3
:103D1000DB056C705C701A70FFF7E2FFFFF79CFC2C
:103D2000FFF7E4FD0224201CFFF7CEFC33680022DD
:103D30001C70A023DB056A705A7001221A7070BDD6
:103D40004C0100200000002008B5FFF7D5FFFFF769
:103D5000C7FF08BD08B5A023DB05011C58683F223A
:103D60001140904308435860596858681140013128
:103D70000A401102064A02400A4306495A600022DC
:103D80004A705A7001221A70FFF7AAFF08BDC04698
:103D9000FFC0FFFF0000002010B5A023DB051C6A58
:103DA0000005064A000D010422400A431A621A6AFD
:103DB000120B12031043186210BDC046FFFF00F043
:103DC00073B5164BA0221B68D2059168196D50334C
:103DD00091601C78FFF742FA114D002810D0114B6A
:103DE000114A1B7812782E6852B25BB20092201CE6
:103DF0001021D12202F0ACF82B6830671B6FE41859
:103E0000002C01DA002402E0FF2C00DDFF242B68E7
:103E1000E0B2DC66FFF7CBFD73BDC0465C0B002053
:103E20004C010020530002005200020008B5FFF7C9
:103E3000C7FFFFF7C7FAFFF75DFA234BC0229200D6
:103E400098582249014099509958FF2081434020B9
:103E50000143995098581E490140802000040143B5
:103E60009950985880210002000A09060143995090
:103E7000012102221A6008201960042119601860CB
:103E8000144B00205860144B186901431961134BFF
:103E90001B68197A124B1B689433002900D1032246
:103EA00010491A6000230B700F49A0220B700F49B4
:103EB000D2050B709363D36B3F218B43D36362B600
:103EC00000F006FF08BDC04600E100E0FF00FFFF74
:103ED000FFFF00FFFCE100E000ED00E0600B0020D0
:103EE0004C01002029000050280000502A000050FA
:103EF00008B5002801D0012801D100F0E9FEFFF744
:103F00005FFFFFF75FFAFFF7F5F908BDF0B5214B4A
:103F10000D211B680324DA7A00230C3AD2B29142B5
:103F20005B41E41AA023DB0558693F225968104021
:103F30008022D2030A43A3B05A60411EA023C9B213
:103F4000DB0502AAFF2910D05F683F26124D0E4004
:103F500036043D4035435D60C046251C24356D0068
:103F60005D5B4B00D5520139E8E75C680B492140A5
:103F70005960694600238B8001230B70022348702F
:103F80008870CB700320B3230B7101F051FF23B075
:103F9000F0BDC046600B0020FFFFC0FFFFFFBFFF6A
:103FA000F7B5041C02F0C2FD124B1A6800235068DA
:103FB000411C0191019D16689D420CDB97680136FA
:103FC0007E4399008C469E1900216546B6006151DA
:103FD00001333151EEE701239E420ADB956800214F
:103FE0005D43AF002D180135AD0039510133295122
:103FF000F2E7F7BD1C030020044B054900221A60BC
:1040000059609A6005221A607047C04610E000E0CF
:10401000FFFFFF0010B5A023DB059C6899680B4BE0
:10402000C9B21B68E4031B6FE40F591AFF31E62382
:1040300059430134064BA040C918041C054805F03B
:104040009FFAC1B2201C05F09BFA10BD4C01002064
:104050005C5D000040420F00014B00221A60704777
:1040600010E000E030B50E4D0E48AB6885B0C01AC8
:104070000193FFF7CFFF02A9012300240B704B70BF
:104080008B7004230190CB70201C6F2301AA8C80BD
:104090000B7101F0CDFE01982C6005B030BDC0461B
:1040A00010E000E0FFFFFF0010B5041CFFF7A4FFC5
:1040B000201CFFF721FEA023DB0501205870FFF72D
:1040C000B7FAFFF7C9FAFFF783FDFFF7CBFF10BD83
:1040D00037B5051C0424291C221C684605F0D0FABB
:1040E0002919221C01A805F0CBFA009980230ABAED
:1040F000DB05DA6001990ABA1A6137BD40BA80B2AD
:10410000704700BA70470023114A12499A188A4230
:1041100004D21149C95804331160F5E70F4B104A16
:10412000191D043B934203D200221A600B1CF6E7D0
:104130000C4B0D4A1360EFF308820433191D043B46
:104140009A4203D9094818600B1CF7E77047C0462C
:1041500040000020300300207C9800003403002041
:10416000500B00209C0B0020780B0020CDCDCDCD36
:10417000F0B5294D89B029482C6800F05DF9FFF7AA
:1041800011F90026264FBC4222D280373B1B202744
:10419000832B00DC9F1002A9FAB2012300204A7091
:1041A0008A70BF10221C0B70CB70888001F040FE1B
:1041B000231C3A1C013A08D3002E04D1194918686F
:1041C000884200D01E1C0433F4E7BF00E419D9E78D
:1041D0002B6804A9F31A0025019304230124CB7052
:1041E000281CA72301AA8D800C704C708C700B7159
:1041F000843701F01DFE06A90420C870A823BE1B49
:10420000281C01AA8D8001960C704C708C700B716B
:1042100001F00EFE09B0F0BD780B0020801A0600F8
:10422000801B0020CDCDCDCD014B1B68587E704743
:104230004C01002070B5051CFFF7A0FC094B1C6861
:10424000637E9A00AD180022511ED218002A08D0B1
:10425000E2185218927E920016588A00AE500A1C3C
:10426000F2E770BD4C01002030B50A4B1B685A7E46
:1042700094001C195300C01800230133D11A0131D6
:1042800006D09D00651B59006D6F49424552F4E709
:1042900030BDC0464C010020A02382B080B2DB05B7
:1042A000D88502B07047A023DB05D88D82B002B05C
:1042B00070470722A023DB05104042011869E02166
:1042C0008843104318617047F8B50C1C051CFEF7B5
:1042D000B9FF144908688379013B11D30E687279DC
:1042E000013AF9D30E6870790F4E5843366880183A
:1042F000F6182818603607783679BE190670EFE789
:104300000B68DB79013B08D3074AE15C1268D218DD
:10431000783212798A18E254F4E7281C211C00F044
:104320007BFFF8BD600B00205C0B0020134BF7B542
:104330001C686946E26800AF131C0E33DB08DB0023
:10434000C91A23698D460E33DB08DB00C91A0C4BF2
:104350006D461E688D467960281C311C05F090F969
:10436000BA23FF33F1182269786805F089F9281C0F
:104370007968FFF7A9FFBD46F7BDC0461C030020C2
:10438000580B0020A023DB0518690006400F70477A
:1043900070B5051CFEF732FF0468061C013C08D30B
:1043A0007268E300D3181A68AA42F7D15B6898478D
:1043B000F4E7024B013D1D6070BDC046640B002058
:1043C00070B5051CFEF71AFF8468061C013C08D373
:1043D000F268E300D3181A68AA42F7D15B689847DD
:1043E000F4E7024B013D1D6070BDC046640B002028
:1043F00038B5A023DB0599689D680C4B041C1B682D
:104400000B481B6FED03C91AC943E623C9B25943D0
:10441000084BED0FC91805F0B3F8054B01355843AB
:10442000211C284105F0ACF838BDC0464C010020E5
:1044300040420F005C5D000038B5A023DB059968A1
:104440009C680A4B051C1B6809481B6FE403C91ACA
:10445000C943E623C9B25943064BE40FC91805F016
:104460008FF868430134204138BDC0464C0100201C
:1044700040420F005C5D000008B5002807D04810DE
:1044800006380123132900DC0023C01806E00B299D
:1044900000DD0E39081C032105F072F808BDF0B5E7
:1044A000C04BA9B01B6800250293DB7A071C0C3BAC
:1044B000281CDBB20D229A426841BB4B03261B68C5
:1044C000361A03963E68019347331E70019BC4B2AF
:1044D00078684A3304940DAC291C18706C22201C97
:1044E00005F010F9B14B0B951A680C95231C62CAA4
:1044F00062C323CA23C343CA43C3012124234B43BA
:10450000221CE31861CA61C361CA61C361CA61C385
:10451000039D0131A942F1DB00260396341C029D64
:104520006B799C424CDA029D04982B19DD7A0BAE14
:10453000291CFFF7A1FF365C2422311C5143B446ED
:10454000661C06960B180DAEF6180596059B069E82
:104550001E711F2D08DC0DAE71180123CA68AB4017
:104560001D1C1543CD6011E00BAE335C0DA95A4301
:10457000203D01238A18AB401D1C137E9906890E2D
:104580000D433F210D408B431D431576019D3F2375
:10459000061C2A191E40059665465678A901059DF8
:1045A0009E4335431D40634629430133039E5170AA
:1045B000DBB20BAA13549E4200DA03930134AEE738
:1045C000019B039E493300241E700294754B029C8C
:1045D0001B6898798446844200DBD8E0029D5B1911
:1045E0001A1DD67F714A126804925A3212780592C7
:1045F00005980022904205D0614601398D4201DACA
:104600000533DA7F0123301C191C20381C1CB140F3
:104610008440201C06913F210840111C20391D1C9C
:104620008B40DBB20993039B2421013B4B43079052
:10463000039C28A89540C31808955C3B0194019DF4
:10464000002D41D0019D2421013D69430DA8411851
:1046500001957C68CD781F200440854325430020C8
:10466000CD70186018314C783F2084434C701F2E59
:1046700004DC1968069C2143196004E04C78079D0E
:1046800084432C434C70059800281BD06146029C43
:1046900001398C4216DA1F2A04DC1968089D294367
:1046A00019600FE0019C2421614328AD6918543939
:1046B0004878099C8506AD0E25433F242540A0433C
:1046C00028434870243BBAE7049E029C331934788F
:1046D0008033A4065D78A40EFEF7C0FD002813D039
:1046E000334E882031780135C9B204F049FF317862
:1046F0004543C9B2882004F043FF02344443013DDE
:10470000023C019A6E1C03D02A1E1F2A00DD1F22C4
:104710003F203F2C02DCE043C01720400590019C65
:10472000039DAC422CDA019C24256C430DA91F2665
:10473000101C0B19304004905878B043061C0498A4
:10474000064305985E703F2630400490605CB0439D
:10475000061C049806436654396837291EDC4D430D
:1047600014496D18291C51CB51C170CB70C131CB8C
:1047700031C13B68019E013301363B600196CEE7B3
:10478000029E7B680136013302967B601EE7064B72
:104790003A681B68012048331A7000E0002029B0F5
:1047A000F0BDC046600B00204C0100205C0B0020D7
:1047B000540002000080005030B585B0FEF742FD85
:1047C000064B01A81B68021C603332CB32C2FFF7D4
:1047D00066FEFFF7ABFD05B030BDC0464C010020C2
:1047E000F0B5604B95B01B6800270493DB7A051C7D
:1047F0000C3BDBB20D22381C9A427841C3B20793BE
:10480000594B29681B680BAC01934B331970019B02
:104810006A684E331A70019B391C4D331F70242275
:10482000201C04F06FFF514B09971B680A970293F5
:10483000029A231C43CA43C343CA43C343CA43C364
:10484000019E237E77769B06E6689B0E059606936F
:10485000049E73799F4234DA049E0798F319DB7A39
:10486000191C0393FFF708FE09AB1B5C002B0AD150
:10487000019E717E4A1C72767118FAB20BAE8A766E
:10488000013231180A71019EF2190BAE3118097903
:10489000039E22320139117001221F2E04DCB24026
:1048A000059E1643059607E00399069E20398A4027
:1048B00032433F210A400692013309AA13540137BB
:1048C000C6E70BAB059E1A7E0E963F21069E029808
:1048D0008A43324306781A76B606B60EFEF7BEFC59
:1048E00000280AD0224B882019780236C9B204F079
:1048F00047FE46430023023E03D4331E3F2B00DD18
:104900003F2362781F2120788A4362703F229043C0
:104910001340034323706868E37808408B43617E4B
:10492000034391436176296824224A43E3700023BC
:104930001293139323610F4BD218131C43CC43C320
:1049400045CC45C346CC46C32B686A680133013267
:104950002B606A60044A012012684C32137015B053
:10496000F0BDC046600B00204C0100205C0B002015
:104970005400020000800050F0B5D04BA5B01B6879
:10498000002601933B331B78041C0C3B301CDBB22C
:104990000D229A427041CA4B03271B683F1A0397A6
:1049A000276802933F331F70029BC5B26068423391
:1049B000059509AD311C18706C22281C04F0A2FE6C
:1049C000C04B07961B68089624332A1CC2CBC2C270
:1049D00043CB43C283CB83C2012124234B432A1CF4
:1049E000EB18C1CAC1C3C1CAC1C3C1CAC1C3039EF6
:1049F0000131B142F1DB019F002504970395019D30
:104A0000049F6B7A7E1B9E4243DA049B05983B33DE
:104A10001D78291CFFF730FD07AB24221B5C1F2DDE
:104A200009DC5A4309AFBA180123D168AB401D1CF9
:104A30000D43D5600FE0534309AAD318203D01224E
:104A4000AA40151C1A7E9106890E0D433F210D4088
:104A50008A432A431A76029F07AABD193835AE78D1
:104A60003F23115C9E43B446071C8E011F400096F5
:104A7000664637431F40009B01311F43AF70039DC3
:104A8000C9B211548D4200DA0391049E0136049696
:104A9000B5E7039E029BF6B24133002704961E70D1
:104AA0000197864B019E1B689A7A964200DBAEE026
:104AB000019D24AF5A19403210780122011C20397F
:104AC000161C8A403F210A400592039A2421013A8C
:104AD000514386407918039A02965C39013A1FD3F4
:104AE0002425554309AE676875191F26374000977E
:104AF000EF78B7433E1C009F3743EF703F261835D1
:104B00001F2804DC029F0F606F78B74305E0002781
:104B10000F606F78B743059E37436F702439DDE728
:104B2000674A11680022587A824210DA88183830B1
:104B300085782426A806AD097543A768800E281835
:104B400009AD0137281807710132A760EBE75D4B0B
:104B50001B689A1D0533D67FDD7FF606AD06F60E7F
:104B6000AD0EFEF77BFB002813D0574F8820397815
:104B70000136C9B204F004FD39784643C9B2882031
:104B800004F0FEFC02354543013E023D0021771C46
:104B900003D0311E1F2900DD1F213F2D02DD3F20E4
:104BA000029003E0EB43DB171D4002950022039FB8
:104BB000BA4228DA2425554309A81F260F1C431999
:104BC000374005975F780132B7433E1C059F374356
:104BD0005F70029F3F26374005972F5CB7433E1C0E
:104BE000059F37432F54256824204543374E7619B7
:104BF000301CE0CBE0C0E0CBE0C0E0CBE0C02368FD
:104C000001332360D3E7019D0135019549E72C4A23
:104C100027681568049E2A1C403217702068D070DF
:104C200061680532517016700022597A8A4210DA92
:104C3000A9183831897824208E0689094843B60E90
:104C4000A168801909AF0131381801710132A160E2
:104C5000EBE7002610AF0296029E0398864226DA02
:104C60003B1C00210C3B1960029B2426734309A8BE
:104C7000C018427E031C01903F2082435A76381CA4
:104C8000082204F03FFD2168104A71435218131C9A
:104C9000019A243743CA43C343CA43C343CA43C3E5
:104CA0002368029E0133013623600296D4E723680D
:104CB000443501202B7025B0F0BDC046600B0020AC
:104CC0004C0100205C0B00205400020000800050CA
:104CD000F0B5674B00241F680D22FB7A211C0C3BAA
:104CE000DBB28BB09A4261410326CBB20C22761A1A
:104CF00007A8211C019304F005FD059406947A7918
:104D00003D1C02920299EB1B8B4213DAE97A01985F
:104D1000FFF7B2FB072801D90020A6E005AA135C23
:104D20000135B342F8DA0133DBB213549C42E9DABD
:104D30001C1CE7E701220792B879002181420ADAB8
:104D4000131C9D1AA54203DA372BE5DC0133F8E783
:104D500001311A1CF2E70792FB79002B11D10023D5
:104D600007A80793FFF73CFD07A8FFF798FB404B08
:104D7000404D1B68DE79002E3BD007A8FFF7FCFDF5
:104D80004DE03B1C3B331B7800250C3BDBB20D2276
:104D9000291C9A426941CAB202920322521A019214
:104DA000059506957B7A3E1C0393039AF31B934269
:104DB00014DA331C3B3319780298FFF75DFB0728A0
:104DC000AAD805AA135C019901368B42A4DA0133F3
:104DD000DBB213549D42E8DA1D1CE6E7EB43DB1718
:104DE0001D40BB7A5D43079B6D00ED18372DB6DD86
:104DF00092E72868311C04223F3004F083FC2868C5
:104E0000311C0422433004F07DFC2B680799CAB2A0
:104E1000191C3F3144330A704A700A711A702D68A8
:104E200064002B1C4B331A78073BDA73291C1B7860
:104E300054310B704A70083909782A1C56321170A7
:104E40000F3A1678291C5731281C0E7059305374AC
:104E5000022204F015FC2B1C5B3334191E705C70AD
:104E60002E66113B1B7801206B660BB0F0BDC0466F
:104E7000600B00204C0100200D4B10B51C680D4B41
:104E800001681B681A1C433211704168D170191CEB
:104E9000453100220A70617A8A4204DA816801325F
:104EA00001318160F7E70268443301201A7010BDB8
:104EB000600B00204C010020F0B5B94BB94A1B68CB
:104EC00012681C6EABB006940192D27A00250C3A9F
:104ED0002E1CD2B20D2191426E41F7B21A1C0497DA
:104EE0004F320327147052330FACBF1B0126291C0D
:104EF0001E706C22201C04F005FC019B0D950E9584
:104F00004833221C23CB23C223CB23C223CB23C26F
:104F100024237343221CE31823CA23C323CA23C3B5
:104F2000013623CA23C3BE42F2DB019E00277679F5
:104F30003C1C03960297039EB4423ADA019D049802
:104F40002B19DD7A291CFFF797FA0DAB1E5C242282
:104F5000311C5143B446661C05960F180FAEF71965
:104F6000059E3E711F2D08DC0FAF79180123CA681A
:104F7000AB401D1C1543CD6010E01B5C203D5A4327
:104F80000FAB9A180123AB401D1C137E9906890EA6
:104F90000D433F210D408B431D431576634601337E
:104FA000029DDBB20DAA13549D4200DA0293013434
:104FB000C1E7069F012404970194029C2422013C2E
:104FC00062432AADAA18029B08945C3A013B13D3B2
:104FD0002420584300250FAE15603018467E3F242C
:104FE000A64346765560857EC178A543402421437B
:104FF0008576C170243AE9E76A4B019C1F68013C41
:10500000B879BC4607900994231C099E079F9A1BF8
:10501000BA4256DA019D0122511B6144281CC9186D
:105020000138C0B2233109780B90581010400A9013
:10503000081C2038161C8240D2B2089F05922422F8
:105040007A432AA88E408218029F0396583A013F5D
:1050500035D3242078430FAC2018C678019D1F2437
:105060002540A6432E430B9DC6700A9E6CB2B442E7
:1050700012D01F2905DC101F0468039D2C43046017
:105080001BE0447E059DA606B60E2E433F252E400E
:10509000AC433443447610E01F2904DC1068039EBF
:1050A0003043106009E0847E059DA606B60E2E43AF
:1050B0003F252E40AC4334438476243AC7E701337E
:1050C000A3E7394B1B68DB1980335E7863464833AE
:1050D0001D78AD06AD0EFEF7C1F8002813D0334C95
:1050E000882021780136C9B204F04AFA2178464373
:1050F000C9B2882004F044FA02354543013E023D1E
:105100000024701C03D0341E1F2C00DD1F243F2DF3
:1051100002DD3F21039103E0EB43DB171D400395C4
:10512000049D24236B43224E00219B19029DA9421A
:1051300021DA24254D430FA81F26271C421937408A
:10514000059757780131B7433E1C059F3743577089
:10515000039F3F26374005972F5CB7433E1C059FB2
:1051600037432F54181CE0CAE0C0E0CAE0C0243323
:10517000E0CAE0C0DAE7EB43049E019FDB172B4057
:10518000F618013704960197032F00D015E7044A5B
:10519000069E1268F118CB18503213702BB0F0BD78
:1051A0004C010020600B00205C0B0020540002002A
:1051B00000800050F8B5164D061C2B6800243F33C4
:1051C0001F782B68E1191A1C403212780134914281
:1051D00009DAE319242058430E4B311CC018082269
:1051E00004F090FAEDE747331F7800242B68E219AA
:1051F00048331B7801349A4209DAE31924205843D2
:10520000044B311CC018082204F07CFAEEE7F8BD0C
:105210004C010020F87F0050F0B5364B85B01B687C
:1052200002901A1C03913F321578334A002011680E
:10523000041C8A7A94422ADA021C4F7A161ABE4259
:105240001EDA9E193836B678B7090096EF1924266B
:105250007E432A4FB4463E1C009F66440196BE061C
:10526000039FB60EB446BE5C3F2E00DD3F26F6B26D
:105270000096019E0132371C009E67443E77DCE7B2
:10528000181C4130007801342D18101CD1E71A1C6D
:105290004732147800208A79904228DA00224D792A
:1052A0000195AA421DDA9E187678B709E719039787
:1052B00024273D1C039FB6067D43AC460F4DB60E1A
:1052C0002F1C019D674445430397029FBF187D5DD6
:1052D0003F2D00DD3F25039FEDB2BE19357701322A
:1052E000DDE71A1C493212780130A418D3E705B063
:1052F000F0BDC0464C010020600B00200080005033
:1053000024235843054BC0180F231A401306816904
:10531000034A0A401A4382617047C0460080005029
:10532000FFFFFFF038B5051C141CFDF797FF0028A0
:1053300008D00A4B882019780234C9B204F020F949
:105340004443023C24206843054BC01802683F23B5
:105350001C409A431443046038BDC0465400020008
:105360000080005010B5041CFDF778FF002808D01D
:10537000084B882019780434C9B204F001F9444379
:10538000043CA023DB0519691F22144091430C4300
:105390001C6110BD5400020030B50F4B1B68997999
:1053A000884203DA1B180433D87F14E05A798D1829
:1053B000411AA84202DA5B18D87A0CE09C7A8A1A61
:1053C0002D19A84203DA9B184033187803E0141B08
:1053D0001B193833D87830BD600B0020F0B5D34DA1
:1053E000A024E405A3682B6897B059799A7900AF97
:1053F0008A18597A9B7A5218D3181A1C5A433B625E
:10540000D31DDB08DB006846C01A85466B46FF21CA
:105410003B6104F077F9FF20FFF70EF8C44B6946B3
:105420001B1A386A7B60C000031C0E33DB08DB00EC
:10543000F860C91A386A8D466B468000FB61031C10
:105440000A33DB08DB00C91A002200233A637B63BE
:10545000B860B961E268B74B8D461340E3602B68D2
:105460005C79B24B013C1B68621C14D01B19381CC0
:10547000D97A5030202204F0E5F83D6D58207A6D3D
:10548000AB00C019C3180121283B91400A1C1968C0
:105490000A431A60E5E79C79A44B013C1B68621C37
:1054A00015D01B190433381CD97F5030202204F04A
:1054B000C9F83D6D58207A6DAB00C019C3180121A1
:1054C000283B91400A1C19680A431A60E4E75C7A99
:1054D000964B013C1B68621C15D01B193833381CD5
:1054E000D9785030202204F0ADF83D6D58207A6D07
:1054F000AB00C019C3180121283B91400A1C196850
:105500000A431A60E4E79C7A013C621C17D0874B7F
:10551000381C1B6850301B1940331978202204F0C6
:1055200091F83D6D58207A6DAB00C019C318012168
:10553000283B91400A1C19680A431A60E4E73D6958
:105540007D610025FD62FD6A386A854200DBDBE093
:105550000021FA68F86904F0D5F8A0240021BA689F
:10556000B86904F0CFF8E40500232363636B3F269A
:10557000B34363633D6BA563786BC0B2B8623040E0
:105580007862E36BB3430343E3636420FEF754FFA5
:10559000FDF708FFF86AFFF7FFFEC1B2381C48307C
:1055A000202204F04FF8396B7A6BFB6CB963FA6315
:1055B000BA6C0121994058200B1CC0199100411868
:1055C000081C203802689A430260B86C131C00283B
:1055D00008D028390A685340626B3340B243134302
:1055E000636301E06B402363A024E405A563E36BE0
:1055F000796A3F26B3430B43E3630A20FEF71CFF9F
:10560000FDF7D0FEE26B80235B001343E363BA6BCC
:105610005540A563FB6BBA6A5A40E36B3240B34313
:105620001343E363FEF7E8FCFD6BBE6BFB69AC461E
:105630000124414A7D689168A94214DB3F4A6546CE
:105640001068526830402A405D68954203D3F0D11B
:105650001D688542EDD2BD69DA60A2009860A9504C
:1056600001340833E5E7FEF7F7FCA023DB05D96B2F
:10567000334A0A40DA63012C3ED0651EF869ED001A
:105680004519013C002C37D02B1C083B1A682968AF
:105690005B6891436A683E6A9A43A30039647A64FE
:1056A000013EBB62FA6A964224D0301CFFF774FEBA
:1056B000011C381C5030202203F0C4FF7B6D0122F6
:1056C000386D9A405821131CC91982008A18183A5B
:1056D00012681A420CD0BB6ABA691720D2584042ED
:1056E0005043184BC018FEF795FC79690011885596
:1056F000013ED7E7083DC4E7FD6A386A0135FD621F
:105700007D692D187D611EE7C3B2381C50300370CF
:10571000437083700023C37003713969012343719F
:1057200000F0D8F8BD4617B0F0BDC046600B0020B1
:10573000FFFFFF00FFFF0FFF10E000E04000005000
:10574000FFFEFFFFE9FFFF16014B18607047C046E0
:105750006C0B0020014B18687047C0466C0B002092
:10576000014B18607047C046680B0020014B186859
:105770007047C046680B0020014B18687047C04650
:1057800050010020F7B52F4F73467146381C019326
:10579000FEF7FEFDFBF736FB009001F0C7F9061C93
:1057A000FDF738FD284D1022041C0099286803F0ED
:1057B00067FF32882B68381C1A74120A5A74B28830
:1057C0009A74120ADA74214A12680532D27F002ACA
:1057D00003D0A2791A75627902E062791A75A2790A
:1057E0005A75E2799A751A4A6B6812881A70120A09
:1057F0005A70184A52889A70120ADA70164A5288F9
:105800001A71120A5A71154AD2889A71120ADA71FB
:10581000134AAB68920A1A70124A920AD2B25A70AC
:105820009A70114A920AD2B2DA701A710F4A920A29
:10583000D2B25A719A710E4A920ADA710199FEF740
:10584000BFFDF7BD25570000540100201C030020B8
:10585000FE030000FC9B0000FCB30000F8BF00004A
:105860000000000000040000009C000000B40000E4
:1058700000C00000F7B50A4C7146061C201C754696
:10588000FEF786FD074A694681CA81C16B46B600AC
:10589000F658201C291CFEF793FD301CFEBDC046A7
:1058A000155800005097000070B5084C7146201C38
:1058B0007646FEF76DFD064B201CDB69311C5D78DA
:1058C000EDB2FEF77DFD281C70BDC04649580000B2
:1058D00054010020F8B5144D041C0F1C281C7146FF
:1058E0007646FEF755FD114BFF215A6A117010499B
:1058F0009C620F60A0782778596B474320793F1846
:1059000060794006400E784308609869A0210170D4
:10591000D969281C1378FF2B02D10B78022BF9D000
:10592000311CFEF74DFDF8BD7558000054010020F4
:105930000C040020F0B5254F744685B0051C0E1CE4
:10594000381C71460394141CFEF722FD00232B60C3
:1059500033601F4B381C9C4233DC23121D4A122B30
:105960001ED89B00D218D26B002A2AD0D368013BE4
:105970005F1C26D05168E7B2C95C02977F1A019379
:10598000BC46013B002FF3DB019914688B001B59C7
:10599000002B16D063442B6093685B5CD91B0FE02F
:1059A000936B176B013B0CD35900795A611AF9D4E8
:1059B000D76A9B00FC5864182C60526BD358591A54
:1059C00031600399FEF7FCFC05B0F0BDD55800002E
:1059D000FFEF00005401002038B50D4C7146201C2B
:1059E0007546FEF7D5FC0B4AD1694B780A49DBB204
:1059F0000B72012B05D0022B05D1936901225A703D
:105A000001E0FDF79DFD291C201CFEF7D9FC38BDE7
:105A100079590000540100200C04002038B50D4CC9
:105A20007146201C7546FEF7B3FC0B4BDA68002A62
:105A30000AD00A4BD2B27F21D868114001709A7502
:105A400001325A75FFF7C8FF291C201CFEF7B8FC6D
:105A500038BDC046BD5900000C040020D401002010
:105A600038B50F4C7146201C7546FEF791FC0D4B66
:105A70001B7A012B06D0022B06D10B4B00229B690F
:105A80005A7001E0FDF76EFD084B7F21DB68201C9A
:105A90001A788A431A70291CFEF792FC38BDC0465A
:105AA000015A00000C04002054010020D401002001
:105AB000F7B51E4E7346301C71460193FEF768FC25
:105AC0001B4D00241B4E337A012B07D0002B18D01E
:105AD000022B17D1184B9B695C7813E0FDF752FD40
