:10000000801878FFE4B8200118F6D8F99000007F36
:10001000007E07E4F0A3DFFCDEFA7581200232E502
:10002000900534E0FBA3E0FAA3E0F92290052EE06E
:10003000FF04F08F82758300229005337401F02253
:10004000E92FF9E43AFA0228290000022F34EFD30D
:100050009404500D1217FEF583E5822D121668E404
:10006000F02200023610EFD39404500D12180BF555
:1000700083E5822D121668E4F0220002354F9005C8
:100080004EE07003021107E4FE1219CA4003021584
:10009000E3121765E06401706A748E2E121776E021
:1000A000703290031BE06402702AF090031EF090FF
:1000B000054EF09002A3E0FF70069004BD7404F0BA
:1000C000EFB401069004BD7440F0C28A90031A1286
:1000D0001762E4F0748E2E121776E0B40125EEB4A8
:1000E000030E90031BE004F090054E7403F0800EA5
:1000F000E490031BF090031EF090054E04F01217DD
:1001000065E4F00E021089E4FE1219CA40030215DC
:10011000E39002A3E0FF705C121765E06401705485
:10012000748E2E121776E0FD7021EEB40106900455
:10013000BD7409F0EEB402069004BD740AF0EE64DA
:1001400003702A9004BD740BF08022EDB4011EEE02
:10015000B401069004BD7401F0EEB402069004BD33
:100160007402F0EEB403069004BD7403F012176538
:10017000E4F0C28AEF640160030215DF121765E044
:10018000640160030215DF748E2E121776E0FF60A3
:10019000030213B0121A5E6003021248900019F0B5
:1001A0009003191219D3703790031CE0FC7006906D
:1001B00004BD048042EC6401701D9002A4E0B4010F
:1001C0000A740912189AF0E4021244121A11707893
:1001D0009004BD74218057742912189AF08065ED3F
:1001E0006402705490031CE0FD701D9002A5E0B401
:1001F000010A9004BD74051218F78048121A18708D
:100200004774111218F4803CED6401703B9002A415
:10021000E0B4010E9004BD741912189DF0E4900032
:1002200002F09002BCE0B4011F9004BD74251218C6
:10023000F790000204F0801090031DE0B4030974ED
:10024000151218F4900002F0EE640260030212FB33
:100250009003D8F09002A51219D3703B90031CE0D4
:10026000FC70079004BD74048045EC6401701D901F
:100270000318E0B4010A74061217E5F0E40212F75D
:10028000121A1170769004BD742480559004BD74C8
:10029000261217E8F08060ED6402704F90031CE0B6
:1002A000FD701D900319E0B4010A9004BD7405129D
:1002B00019018043121A18704274141218FE803704
:1002C000ED64017036900318E0B401091217E3F0F1
:1002D000E4900002F09002BCE0B4011F9004BD74F1
:1002E0002512190190000204F0801090031DE0B463
:1002F000030974151218FE900002F0EE6403600307
:100300000215D8900002F09002BD1219D3703B90F4
:10031000031CE0FC70089004BD7410021569EC64C5
:1003200001701F900318E0B401089004BD7412021C
:1003300015BD121A9260030215D89004BD741802FC
:1003400015A79004BD741A0215D0ED6402704E908A
:10035000031CE0FD7022900319E0B401089004BD75
:1003600074110215699002A5E0640160030215D8BA
:100370009004BD7414021569ED640160030215D880
:10038000900318E0B401061217E31218F7121A923C
:1003900060030215D89004BD74190215A790031DBF
:1003A000E0640360030215D89004BD74150215695A
:1003B000EF640160030215D8121A5E600302146C28
:1003C00090001904F09003181219887037A3E0FD0B
:1003D00070079004BD74028024ED6401701A9002CD
:1003E000A5E0B401079004BD74068011121A1870BC
:1003F0007B9004BD741280059004BD7416F0E490E7
:1004000003D88063EF6402704F90031DE0FF701A01
:100410009002A4E0B401079004BD740A8033121A5C
:100420001170499004BD74228011EF6401703D90F9
:1004300002A5E0B4010F9004BD74261218F79000D5
:100440000204F080279002BDE0B401209004BD7446
:100450001A12189DF0E4801090031CE0B4030D9074
:1004600004BD742A12189DF0900002F0EE64026040
:10047000030215209003D804F09002A4121988708A
:1004800037A3E0FD70079004BD74088024ED64017B
:10049000701A900319E0B401079004BD740980112B
:1004A000121A18707B9004BD741880059004BD74F6
:1004B00019F0E49000198063EF6402704F90031DFF
:1004C000E0FF701A900318E0B401079004BD740AAD
:1004D000801D121A1170499004BD74288024EF64A5
:1004E00001703D900319E0B4010C9004BD741A1220
:1004F00017E8F0E480269002BDE0B401239004BD2B
:10050000742912190190000204F0801490031CE079
:10051000B4030D9004BD742A1217E8F0900002F0A5
:10052000EE640360030215D890000204F0E4900228
:10053000BC121989703AA3E0FD70079004BD7420C5
:100540008027ED6401701D900319E0B40107900449
:10055000BD742180149002A5E06401707B9004BDFD
:10056000742480059004BD7425F0E4900019806324
:10057000EF6402704F90031DE0FF701A900318E0C3
:10058000B401079004BD74228033121A927049900E
:1005900004BD74288011EF6401703D900319E0B42C
:1005A000010F9004BD74291219019003D804F08042
:1005B000279002A5E0B401209004BD74261217E82C
:1005C000F0E4801090031CE0B4030D9004BD742A85
:1005D0001217E8F09003D8F0121765E4F0C28A0E03
:1005E0000211097F0422EF2488FFEE34FFFE7C0015
:1005F0007D0A1228A37D321228B5EF2478FFE43E4D
:10060000FEEB75F002A42446F582E5F03400F58394
:100610002275F002122984E0FCA3E0FD75F088EF5A
:10062000A42468F582E5F03400F583EE75F002024B
:100630002984F583E0F8A3E0F9A3E0FAA3E0FB90B6
:1006400003EEE0FCA3E0FDA3E0FEA3E0229005465C
:10065000E0FF900545E0FE75F088A424CBF582E527
:10066000F03400F583E5822FF582E43583F58322AB
:10067000EF2482FFEE34FBFE7C007D0A1228A37D6E
:100680001E1228B5EF247EFFEE3404FEEB75F00257
:10069000A4243EF582E5F03400F58322E0FCA3E0DB
:1006A000FDEF75F088A4247AF582E5F034002290FD
:1006B0000547E0FEA3E0FF900545E0FD75F088A446
:1006C000249EF582E5F03400F5832275F002EBA458
:1006D0002436F582E5F03400F583E0FCA3E0FD75F7
:1006E000F002EBA4242EF582E5F03400F58322908D
:1006F0002CC3C39BFBEE9AFAED99F9EC98F8E493BE
:10070000FE740193FFE4FCFDC3022936E0FE75F0A0
:1007100088A42456F582E5F03400F58375F002EFE5
:10072000122984E0FCA3E0FDEE75F088A42468F5AE
:1007300082E5F03400F58322C39DFFEE9CFEE07558
:10074000F088A4248CF582E5F03400F5832290052E
:1007500045E0FF75F088A42456F582E5F03400F5F5
:1007600083227401F074962EF582E43402F583221C
:10077000900534E0248EF582E43402F5832275F08E
:1007800088A424B0F582E5F03400F583EC75F0021E
:10079000022984900534E0FF75F002A42476F582E6
:1007A000E5F03402F583E0FCA3E0FD75F00222756C
:1007B000F002EBA42436F582E5F03400F58322E460
:1007C000F075F088EEA424D4F582E5F03400229090
:1007D0000545E0FD75F088A424B0F582E5F034000D
:1007E000F5832274169004BDF0900019740122F56F
:1007F00083E493FC740193FD75F002EFA422EF757E
:10080000F009A424F2F582E4340322EF75F009A480
:100810002424F582E4340322900546E0FF90054548
:10082000E075F088A424C2F582E5F034002290053A
:1008300049E0FDEF9D7480F86E9822900545E0FF39
:10084000A3E0FD22F0A3F0A3F0A3F0A322C39BFB3F
:10085000EE9AFAED99F9EC98F822E0FEA3E0FFD3C6
:1008600022900534E02492F582E43402F58322EDEF
:10087000F0CBEFCBEBD3940422E0FCA3E0FDEC54EF
:100880001F2275F088EEA424DDF582E5F034002205
:10089000902EC97428F0902EC3229004BDF09003CE
:1008A000D874012274A82BF582E43402F5832274F3
:1008B000032BF582E43400F5832274CC2BF582E41B
:1008C0003402F5832274DA2BF582E43403F58322B3
:1008D000741A2BF582E43400F58322900534E0FF8E
:1008E00075F002A42486F582E5F03402229004BD5E
:1008F000F0C28A229004BDF0E49003D8F022900464
:10090000BDF0E4900019F022EB25E024F7F582E435
:10091000342DF58322E024C2F582E43400F583E02F
:10092000640122E4F0A3F075F08822E0FEA3E0C3A6
:100930009D22F583ECF0A3EDF0EF25E022EE8FF0A1
:1009400012290A75F088ED22E0FF25E02435F582B2
:10095000E434052275F002EF122984ECF0A3EDF0E7
:1009600022902EC5E4F0902ECDF0A3F022FFEB25CF
:10097000E025E022C3EF94E2EE6480947F22E490CD
:1009800004BDF0900019F022E4F090031CE0FF6435
:100990000122A3E0C313F0A3E013F02275F024A416
:1009A0002416F582E43404F5832275F024A4244847
:1009B000F582E43403F58322900545E0FFA3E0FDD2
:1009C00022900534E0900533F022900018E0FFEE0D
:1009D000C39F22F090031DE0FD640122C390003507
:1009E000E094D0900034E094072275F0040229844A
:1009F000E0FF900535E0FEEFC8EEC80822ECF0A35A
:100A0000EDF0900535E004F0E022E4F09004ADE074
:100A1000229002BCE06401229002BDE0640122F554
:100A200082E43403F58322941EEE6480948022F0E5
:100A3000CEA3F0900545E022900547E0FEA3E0221A
:100A4000F0ECA3F0EDA3F022902EC6F0902EC5742A
:100A500001F022F090029A747EF0E4A3F022900458
:100A6000ADE054F0F0EE640122E0FEA3E0FFC3220B
:100A7000E0FCA3E0C39F22900534E004F022E49060
:100A800004BDF0900002F022E49004BDF09003D881
:100A9000F0229002A4E0640122E0FCA3E0FDC32266
:100AA0007404F0E4A3F022900533747EF09002A366
:100AB000E06003021C20900534F0900018E0FF90E5
:100AC0000534E0FEC39F4003021BFB748E2E1217F9
:100AD00076E06003021B7474922E121867E0FF70B8
:100AE00021900534E075F002A4247EF582E5F0340F
:100AF000021217A4EE121605E0FAA3E0C39DEA9CC9
:100B00005013EF6401705D121793EF12160512195E
:100B10002BEE9C404F900534E0FF900533F0121807
:100B2000657401F0748E2F1217767401F090029A9A
:100B3000E0FFB47E12900534E0FE90029AF0A3121A
:100B400017627401F0800D900534E06F600690022A
:100B50009B7402F0900534E0FF123ACB900534E02C
:100B6000FF123A06121E2C7003021BF2121861E4E7
:100B7000F0021BF21218DB1217A4EF12160512195D
:100B80002BEE9C40621219C1123899EF6064E49018
:100B90000535F0900534E0FF121729C083C082901C
:100BA0000535E0FED082D08312162C12169C121648
:100BB000291219FDB409DC121770121A0A54F0F048
:100BC000900019E06006121A0A4409F09003D8E078
:100BD0006006121A0A440AF0900002E06006121A37
:100BE0000A440BF0C28A22900534E0FF12177412F7
:100BF000393B900534E004F0021ABA90028FE0709D
:100C00001FA3E0701BA3E0701790029BE0D3940039
:100C1000400E90029AE024961217687401121A533B
:100C20009002A3E064016003021E1D900534F09061
:100C30000018E0FE900534E0FFC39E4003021E1D35
:100C40001238D3EF6009E490029BF090031CF0127D
:100C50001770E06003021CE2121793EF12160512E0
:100C6000192BEE9C405D1219C11217747401F0909B
:100C7000029BE004F090031CF0900534E0FF249602
:100C80001217687401F0EFB401069003187401F0B4
:100C9000900534E0FFB402069002A47401F0EFB4B2
:100CA00003069002BC7401F0123ACB900534E0FFC9
:100CB000123ADA900534E0FF1239BE900534E0FFB5
:100CC000123A06121E2C6005121861E4F0900534E9
:100CD000E0FF123907EF7003021E14E490029C0239
:100CE0001E0F1218DB1217A4EF12160512192BEEA5
:100CF0009C5003021DC41219C1123899EF700302EF
:100D00001E14E4900535F0900534E0FF121729C059
:100D100083C082900535E0FED082D08312162C125B
:100D2000169C1216291219FDB409DC121770E4F092
:100D3000900002E0601C900019E060169003D8E07B
:100D40006010121A7E900019F09003D8F0741512FA
:100D500018ED900019E060129003D8E0600C1219B1
:100D60007E9003D8F074051218ED900019E060121F
:100D7000900002E0600C12197E900002F0741112D3
:100D800018ED9003D8E06012900002E0600C121A97
:100D900088900002F074141218ED900019E06007BA
:100DA00012197E041218ED900002E06008121A7EFB
:100DB00074101218ED9003D8E06070121A88740451
:100DC0001218ED22900534E0FF12177412393B908F
:100DD0000534E0FF123AE9900534E0FF1239E29061
:100DE0000534E0FF24961217687401F0EFB4010691
:100DF0009003197401F0EFB402069002A57401F09B
:100E0000EFB403069002BD7401F090029CE004F080
:100E100090031DF0900534E004F0021C2F90053380
:100E2000E0FF9002A0E06F6002EFF022900534E056
:100E3000FF12385FEF22900545EFF0A3EDF090052B
:100E4000497404F0ED70037402F0900545E0FF1260
:100E500016A2F583C083C082900546E0FED082D002
:100E60008312161112192BFFEE9CFE900547F0A37A
:100E7000EFF0123B32C312182E4003021F2F12163E
:100E8000AFC083C082900546E0FCD082D0831216AA
:100E90002C12193D1216BFEC12162C12185A121AE7
:100EA0002740241216B7C083C082900546E0FCD0CC
:100EB00082D08312162CE4F0A3F0ED1216A21217C2
:100EC0008AE475F001802B1219745029900545E0D1
:100ED000FF1216BCC083C082900546E0FED082D0CF
:100EE0008312162CE4F0A3F01216A112162974FF37
:100EF000F5F012290A12183B12104E12183B123844
:100F00002312183B123667EF700302205D900546EE
:100F1000E0FF900545E0FE121821121663E4F0EFA1
:100F2000600302205D121882F583E4F002205D90D8
:100F30000546E0703EA3E0FEA3E0FF123B329005C1
:100F400049E02402FDE433FCD3EF9DEC6480F8EE2D
:100F500064809840091218181216637401F0122068
:100F600096D312182E402C900545E075F088121883
:100F700086801B122096900549E0FDD3121833405D
:100F800012121818F583E5822FF582E43583F58374
:100F90007401F01216AFC083C082900546E0FCD009
:100FA00082D08312162C12193D1216BF12178C1202
:100FB000185A9464EE6480948040231216B7C0835C
:100FC000C082900546E0FCD082D08312162C121904
:100FD00023ED1216A512178AE475F0018031C3EFD4
:100FE000949CEE6480947F5029900545E0FF121692
:100FF000BCC083C082900546E0FED082D08312162A
:101000002CE4F0A3F01216A112162974FFF5F012C9
:10101000290AC3900547E064809480503412183B3D
:101020001237E712183B1236BDEF602B900545E0F2
:10103000FF121729C083C082900546E0FED082D0FF
:101040008312162C12169C121629ECF0A3EDF080D8
:101050000612183B12104E12183B121066900545EE
:10106000E0FF1216A2F583C083C082900546E0FE21
:10107000D082D083121611E0FEA3E090054512172E
:1010800038C083C082900546E0D082D08312162CEF
:10109000EEF0A3EFF022900547E0FEA3E0FF123B45
:1010A0003222900545EFF0A3EDF090054D7405F068
:1010B000ED60409000C2E06401600890054612199E
:1010C00015703012174EC083C082900546E0FED0E6
:1010D00082D083121611ECF0ED121A311217D4C01F
:1010E00083C082900546E0D082D08312162CE4F0B3
:1010F000A3F022900545E0FF1216A2F583C083C03D
:1011000082900546E0FED082D083121611E0FAA349
:10111000E0FBC39DFEEA9C90054B121A2F12175359
:10112000C083C082900546E0D082D08312162CE0A6
:10113000FEA3E0FDCCEECCC39BFEEC9A90054712DB
:101140001A2F1216A2F583C083C082900546E0D004
:1011500082D08312162C121A69ED9FFFEC9E900527
:1011600049F0A3EFF0A3121A69EE64809480501C3A
:10117000900549E0FCA3E09400EC64809480400C6E
:10118000900548E02FF0900547E03EF0121A38FF36
:10119000123B3290054DE0FDC3121833400302228A
:1011A00099900549E0FEA3E09DEE648098402F12DF
:1011B0001A38D39400EE64809480402212174EC0F7
:1011C00083C082900546E0FED082D08312162CE0C8
:1011D000FCA3E0FDEF12172975F002EE803B9005AD
:1011E0004DE0FF900549121A707480F8EC64809805
:1011F000502D900547E0FEC3EE648094805020900F
:101200000546E0FF900545E0121657E0B401109046
:10121000054512170C75F002EF1219580222BE1282
:101220001A38FF1217CFC083C082900546E0FCD069
:1012300082D08312162CEE8FF012290AED12177E3F
:1012400012185A121A2740231217CFC083C0829057
:101250000546E0FCD082D08312162C121923ED1221
:10126000172C12178CE475F0018028121974504E57
:10127000900545E0FF1217D4C083C082900546E078
:10128000FED082D08312162CE4F0A3F012161C7448
:10129000FFF5F012290A0222BE12174EC083C08247
:1012A000900546E0FED082D083121611ECF0A3ED3B
:1012B000F012164D74011217C0121663E4F01216E4
:1012C0004DE0640170281217C1121663E004121772
:1012D000C0121663E0D394054014900546E0FF75F4
:1012E000F088EE12165A1217BF121663E4F022CBE2
:1012F000EFCB1217AFE0FEA3E0FF1216DF121A9930
:101300009FEC9E50030223AAE42DFFEC3404FE124E
:1013100017AF121A99EF9DFFEE9C12168BEEF0A3F9
:10132000EFF01217AFE0FEA3E0FF1216DF121A7003
:10133000FFEC9E121600EEF0A3EFF0121601E0FE95
:10134000A3E0C39446EE94005007121601E4F0A304
:10135000F0121908E493FE740193FF121601E0FCE9
:10136000A3E0FDD39FEC9E4024121908E493FE7481
:101370000193FFC3ED9FFFEC9EC313FEEF13FF121B
:1013800019087401932FFFE4933EFE801312160197
:10139000E0FEA3E0FF7C007D631228A30D1228B5B8
:1013A000121601EEF0A3EFF080391216DFE0FEA373
:1013B000E0FF1217AF121A70EC9EC3940475F0028E
:1013C000EB5012121605E4F0A3F012168C7404F020
:1013D000A3E4F0800E121605E4F0A3F012168CE4DC
:1013E000F0A3F0EB6401704412160112185A9478BD
:1013F000EE940040081215E6EEF0A3EFF01216018D
:101400001218799004B7F0EDA3F012168C12185A46
:10141000947EEE94044008121670EEF0A3EFF012E2
:10142000168C1218799004C2F0EDA3F0EB640270F0
:101430004412160112185A9478EE940040081215BE
:10144000E6EEF0A3EFF01216011218799004B9F04D
:10145000EDA3F012168C12185A947EEE94044008F4
:10146000121670EEF0A3EFF012168C121879900499
:10147000C4F0EDA3F0EB6403704412160112185A85
:101480009478EE940040081215E6EEF0A3EFF01207
:1014900016011218799004BBF0EDA3F012168C120D
:1014A000185A947EEE94044008121670EEF0A3EFE2
:1014B000F012168C1218799004C6F0EDA3F022E415
:1014C000900534F0900534E0FFC3940940030226F0
:1014D0006FEF902EC87014E0545FF0A3746AF09020
:1014E0002EC3744AF0A37401F0800FE044F0F0A31F
:1014F0001218937450F0A3740CF0900534E0902C03
:10150000B293902ECAF0E4900533F0900018E0FFFB
:10151000900533E0FEC39F400302266674202E121E
:101520001A1FE0FF900535F0E4F5E2EFC394085090
:10153000417425121A48C083C0821219F08002C378
:1015400033D8FCD082D083F0902ECD7401F0C083CC
:10155000C082E0FFC8EEC8088002C333D8FCD08246
:10156000D083F0902EC97421F0902EC074C1F00287
:1015700025E7900535E024F8F07426121A48C08358
:10158000C0821219F08002C333D8FCD082D083F01D
:10159000902ECE7401F0C083C082E0FFC8EEC80870
:1015A0008002C333D8FCD082D083F0EEB40408129A
:1015B00018907402F0A3F0EEB4050A12189074802B
:1015C000F0A3740AF0EEB4060A12189074A0F0A307
:1015D0007409F0EEB4070A1218907480F0A3740B2B
:1015E000F0902EC074C2F0E4FF900000742EF0A3BF
:1015F000E4F0900533E02420121A1FE0900535F046
:10160000E5E220E2050FEFB4C8DF53E2FB121961F7
:10161000900535E0FD75F002A4FFAEF0900001E00A
:101620002FF0900000E03EF0ED902CE793FF90004B
:1016300000E475F00212292085F082F583E0FCA316
:10164000E0FD75F088EF121756C083C08290053414
:10165000E0D082D08312162CECF0A3EDF09005338D
:10166000E004F002250B900534E004F00224C4905D
:10167000029D7401F022900545EFF0A3EDF0900576
:10168000497403F0ED60507408F09000C2E064010A
:101690006008900546121915703D900545E0FF124F
:1016A0001729C083C082900546E0FED082D0831205
:1016B000162C12169C121629ECF0A3EDF09005459D
:1016C00012173EC083C082900546E0D082D08312BC
:1016D000162CE4F0A3F022900545E0FF1216A2F5C7
:1016E00083C083C082900546E0FED082D08312166C
:1016F0001112192BFFEE9C900547F0A3EFF0900517
:1017000045121864E0B40107E4900547F0A3F09097
:101710000547E0FEA3E0FF123B32900549E0FDC320
:1017200012183340030227B3900547E0FEA3E0FF01
:101730009005451216BAC083C082900546E0FCD0E1
:1017400082D08312162C12193D1216BF12178C125A
:10175000185A121A2740269005451216BAC083C09F
:1017600082900546E0FCD082D08312162C121923F9
:10177000ED1216A512178AE475F001802B12197468
:101780005029900545E0FF1216BCC083C082900529
:1017900046E0FED082D08312162CE4F0A3F012169D
:1017A000A112162974FFF5F012290A1219B81210A5
:1017B0004E803DC3900547E06480948050321219FA
:1017C000B81237E71219B81236BDEF6023900545FD
:1017D000E0FF121729C083C082900546E0FED08248
:1017E000D08312162C12169C121629ECF0A3EDF0E1
:1017F000900545E0FF1216A2F583C083C0829005D4
:1018000046E0FED082D083121611E0FEA3E09005E0
:1018100045121738C083C082900546E0D082D0833D
:1018200012162CEEF0A3EFF022BB010689828A8308
:10183000E0225002E722BBFE02E32289828A83E48F
:101840009322BB010CE58229F582E5833AF583E01A
:10185000225006E92582F8E622BBFE06E92582F839
:10186000E222E58229F582E5833AF583E49322BBFF
:10187000010689828A83F0225002F722BBFE01F31F
:1018800022F8BB010DE58229F582E5833AF583E86C
:10189000F0225006E92582C8F622BBFE05E9258222
:1018A000C8F222EF8DF0A4A8F0CF8CF0A428CE8D42
:1018B000F0A42EFE22BC000BBE0029EF8DF084FFA9
:1018C000ADF022E4CCF875F008EF2FFFEE33FEEC1C
:1018D00033FCEE9DEC984005FCEE9DFE0FD5F0E943
:1018E000E4CEFD22EDF8F5F0EE8420D21CFEADF042
:1018F00075F008EF2FFFED33FD4007985006D5F047
:10190000F222C398FD0FD5F0EA22C5F0F8A3E02833
:10191000F0C5F0F8E582158270021583E038F022F8
:10192000A3F8E0C5F025F0F0E5821582700215837A
:10193000E0C838F0E822EB9FF5F0EA9E42F0E99D1E
:1019400042F0E89C45F022ECF0A3EDF0A3EEF0A30A
:10195000EFF022A8828583F0D083D08212296A1208
:10196000296A12296A12296AE473E493A3C583C51C
:10197000F0C583C8C582C8F0A3C583C5F0C583C8B8
:10198000C582C822A42582F582E5F03583F583223D
:10199000EF4E6012EF60010EEDBB010B89828A836E
:1019A000F0A3DFFCDEFA2289F05007F709DFFCA97B
:1019B000F022BBFEFCF309DFFCA9F022E490053421
:1019C000F0900534E0FDC394095023E0FF75F00268
:1019D000121756E0FAA3E0FB75F002EF12172CEA9B
:1019E000F0A3EBF0E4FF121E36121A7780D3E490D6
:1019F0000533F0900018E0FF900533E0C39F4003EB
:101A0000022B40121948F583E4F0A3F0EF25E024FF
:101A10003DF582E43405F583E4F0A3F0EF700302B2
:101A20002B37E4900534F0900534E0FDC394095061
:101A300018900533E0FF1220A2900533E0FFA3E0E9
:101A4000FD122676121A7780DEE4900534F09005B8
:101A500034E0FFC394094003022AF574C22F12191F
:101A6000186010900533E075F088121886F583E051
:101A7000B4011990053312173EC083C0829005341B
:101A8000E0D082D08312162CE4F0A3F0900534E06D
:101A9000FF605C900533E0FE12173FEF12178DE0F8
:101AA000FCA3E0C39406EC64809480501A75F0881F
:101AB000EE121742C083C082900534E0D082D083FA
:101AC00012162CE4F0A3F0900533E0FF12173FC08C
:101AD00083C082900534E0D082D08312162CE0FCC3
:101AE000A3E0FDEF12194AF583EC8DF012290A12DA
:101AF0001A77022A4E900533E0FF75F088A4247C03
:101B0000F582E5F034001217A4EF1217B3ECF0A33E
:101B1000EDF09005331219481217A4EF1217B3E035
:101B2000FEA3E02DFFEE3CFE900533E075F00212BF
:101B300016E3EEF0A3EFF0900533E004F00229F392
:101B4000E490029DF0229002A7E024FE601B146046
:101B500021147003022C4824036003022CB190026C
:101B6000A77402F0E490031AF09002A77403F00245
:101B700030281224BF7F0D123A2A9003D97401F045
:101B800090029DE07003022C2690031AE004F0E41A
:101B9000900532F0900018E0FF900532E0C39F40BE
:101BA00003022C26E4FF900532E0FE12175375F075
:101BB00002EF122984E0FCA3E0FD75F088EE121616
:101BC000A5F58312195490053212170C1219540FEF
:101BD000EFB409D2900532E0FF121602E4F0A3F050
:101BE000EF12168D7404F0A3E4F0EFB4010DE4904D
:101BF00004B7F0A3F09004C2121AA0EFB4020DE4EF
:101C00009004B9F0A3F09004C4121AA0EFB4030D2D
:101C1000E49004BBF0A3F09004C6121AA090053221
:101C2000E004F0022B9490031AE0C39403500302E3
:101C30002CB1900017747EF0E490029EF090031A8D
:101C4000F09002A77404F0221224BF90029DE0607D
:101C5000601229BCE4900532F0900018E0FE900577
:101C600032E0FFC39E5016123710123193900532A6
:101C7000E0FF1222EF900532E004F080DC123969B7
:101C80009003D9E060207F0D12375CEF600C7F0D70
:101C9000123B07E49003D9F0800C9000481219938E
:101CA000121992121992121AA712107E9002A7EF1F
:101CB000F0223F3F3F3F3F3F3F3F3F003200321760
:101CC0007002580004001E000A000A000A000A0000
:101CD0000F0064000A006400000000000000000023
:101CE000000000010101010405060708090A0B0CA8
:101CF0000D0E0F00010203003200320032003200EC
:101D00003200320032003200320032003200320043
:101D1000320032003200320037003700370037001F
:101D200037003700370037003700370037003700FB
:101D300037003700370037002D002D002D002D0013
:101D40002D002D002D002D002D002D002D002D002B
:101D50002D002D002D002D002D002D002D002D001B
:101D60002D002D002D002D002D002D002D002D000B
:101D70002D002D002D002D003200320032003200E7
:101D800032003200320032003200320032003200C3
:101D9000320032003200320037003700370037009F
:101DA000370037003700370037003700370037007B
:101DB00037003700370037002D002D002D002D0093
:101DC0002D002D002D002D002D002D002D002D00AB
:101DD0002D002D002D002D002D002D002D002D009B
:101DE0002D002D002D002D002D002D002D002D008B
:101DF0002D002D002D002D00FA00FA00FA00FA0047
:101E0000FA00FA00FA00FA00FA00FA00FA00FA0002
:101E1000FA00FA00FA00FA758A50538AEF900552D8
:101E20007411F09005507422F09005537433F075DE
:101E3000994F759AA0E4FDFCC29620970AD296307D
:101E40009705E4900552F00DBD00010CED640A4CBD
:101E500070E6E4FCFDC29620950AD296309505E422
:101E6000900552F00DBD00010CED640A4C70E67552
:101E70009AF075990F000000000000000000E49047
:101E80000550F0FCFD209507900550E04420F0201F
:101E90009607900550E04440F0209707900550E0E9
:101EA0004480F00DBD00010CED640A4C70D7900524
:101EB00050E024C0602024E0602C24E0602024E076
:101EC000602C24E0603024E0603424C0703690053B
:101ED000507425F0802E9005507426F080269005D1
:101EE000507427F0801E9005507429F080169005DC
:101EF000507430F0800E9005507428F080069005E4
:101F0000507431F09005507422F0E4F5AD75AEF0E8
:101F100075AF09F5AC7589FF75913E75990FF5960A
:101F200075931EF59BF595F592F59A75800ED28AFC
:101F3000A304F022C0E0C083C082C0D0E8C0E0E9C2
:101F4000C0E0EAC0E0EBC0E0EFC0E0D2AFE5DB30DC
:101F5000E415E5DB30E10280229004ACE5DFF0908F
:101F6000052DE4F002300DE5DB30E5059004A98095
:101F700038E5DB30E126E5DB30E01190052F12106B
:101F80002312102C122842F5DF02300D90052EE0AE
:101F900064117079208A76D28A02300D90052DE086
:101FA000700DA3E5DFF090052D7401F002300D9067
:101FB000052EE090332A93FFB4FF0E9004ACE5DFCA
:101FC000F090052EE004F0803EEF640F90052F7036
:101FD0002B12102390052EE0FF121040540F1228F0
:101FE0006F90052F12102390052EE0FF04F01210C1
:101FF00040FFE5DF54F04F12286F800B12102312C0
:10200000102CE5DF1228819004ABE004F075DBFFB3
:10201000D0E0FFD0E0FBD0E0FAD0E0F9D0E0F8D09B
:10202000D0D082D083D0E0327E027F757D007B01EC
:102030007A00792E122990123222E4FE1219CA4037
:10204000030230CEE4FC75F088EE1216BF12178C36
:10205000121923EE121824F583E5822C121668E477
:10206000F0EE12177E121923EEA424CBF582E5F0D0
:102070003400F583E5822C1216681217BFF583E54C
:10208000822C121668E4F0CFEECFCDECCD12104EBC
:102090001210660CEC640970AD121882F583E4F03E
:1020A000CFEECF123ACB123AE9123ADA123AF87F6F
:1020B0000D123B07748E2E121776E4121764E41289
:1020C0001A53A3F090031CF0A3F00E02303C9002D0
:1020D000A0747EF0900017F0E490029FF022E4904C
:1020E0000533F0FF900532F0EF14601E14603514D4
:1020F000604C14605B240470749005347401F0A388
:10210000742FF0A37458F002316712102090000170
:10211000122842FED3941F40031210391228296E50
:10212000704B8043121020900002122842FED3947C
:102130000640031210391228296E703180291210BE
:1021400020900003122842FE1228296E701F80176B
:10215000121020900004122842FE648B60031210BB
:10216000391228296E7006900532E004F00FEF64F2
:102170000560030230E8900532E0B40504A3740161
:10218000F0900533E0FD60079004C1E0547FF0CF8C
:10219000EDCF22900551E0700302322190003412FD
:1021A0001A6994D0EE940750069005537425F09068
:1021B0000032121A9994D0EC94075012900553747F
:1021C00027F0C3EF94D0EE940750037430F0C3901F
:1021D0000031E094D0900030E094075037900553E0
:1021E0007426F0C3ED94D0EC940750037428F012D9
:1021F00019DC50069005537429F01219DC5015C3F0
:10220000900033E094D0900032E09407500690059F
:10221000537431F0E4900551F0900553E09004B50B
:10222000F022E4FF900018E0FEEFC39E505AEF2525
:10223000E02497F582E4342D1217EF247EF582E531
:10224000F034021219322477F582E4342D1217EF9C
:102250002476F582E5F0340212193224B7F582E4CF
:10226000342D1217EF1218E412193224D7F582E434
:10227000342D1217EF244EF582E5F03400F583EC8F
:10228000F0A3EDF00F023224900278A3E09004B1A5
:10229000F09004C8E0FFB410079002A37401F0228C
:1022A000EFB42005E49002A3F022023488E493A363
:1022B000F8E493A34003F68001F208DFF48029E4F8
:1022C00093A3F85407240CC8C333C4540F4420C844
:1022D000834004F456800146F6DFE4800B010204DB
:1022E00008102040809035B2E47E019360BCA3FFCB
:1022F000543F30E509541FFEE493A360010ECF5410
:10230000C025E060A840B8E493A3FAE493A3F8E4FE
:1023100093A3C8C582C8CAC583CAF0A3C8C582C86A
:10232000CAC583CADFE9DEE780BE0F00FF000000F8
:1023300000000000FFFFFFFFFFFFFFFF00FFFFFFA8
:10234000FFFFFFFFFF000000000000000000000092
:10235000000000000000000000000000000000007D
:10236000000000000000000000000000000000006D
:10237000000000000000000000000000000000005D
:10238000000000000000000000000000000000004D
:10239000000000000000000000000000000000003D
:1023A00000000000000000000000900280A3E09008
:1023B000051DF0900282A3E090051EF0900284A318
:1023C000E090051FF0900278A3E0900520F09002C5
:1023D0007AA3E0900521F090027CA3E0900522F022
:1023E000900288A3E0900523F090028AA3E0900574
:1023F00024F090028CA3E0900525F0902DF9740153
:1024000093900526F0902DFB740193900527F09092
:102410002DFD740193900528F0229005327410F080
:10242000A3E4F0A3743FF0A374FFF0E4FDFCF99083
:1024300004AEE064AA705074AAF0758A10538AEF53
:10244000000000900532E0FEA3E02DF582EE3CF5A1
:1024500083E493FF69F90DBD00010CBC2FE5BDFFBE
:10246000E2900534E0FEA3E0F5828E83E493697088
:10247000089004AE7417F08005E49004AEF0758AFD
:1024800050538AEF0000002275200153A87F122EBE
:102490001712399743A880123B16123AB9123A4ED6
:1024A000EF24E0601024A0600E24707016C283C276
:1024B00082C281800E800690054E7401F0D283D2D4
:1024C00082D28112322212341A90054EE0FF601738
:1024D000B4010C123A86758703000000123B259068
:1024E000054EE0B4020100122B4680B1902EC0E4EC
:1024F000F0902ECB74F7F0902F58E0540F24F0900A
:102500002EC8F0902ECC7448F0902EC97429F0A3F8
:10251000743FF0902E407481121844121844041233
:10252000184414F0A304F0A3F0A3F0902EC6742472
:10253000F0902EC17490F0A37401F0A37450F0A336
:10254000740CF043E310123A6B900018EFF022C0C5
:10255000E0C083C082C0D0EFC0E090054EE024FE12
:10256000601514601A2402703D90054E7402F075D7
:102570008DA0758E0A802F90054E7401F0802790F3
:10258000031BE0602190031EE0FFC3940F5005E0A1
:1025900004F08012EFB40F0E90031EE4F090031BC2
:1025A000F090054E04F0D0E0FFD0D0D082D083D0A0
:1025B000E03241054E0041031A004102A6004103EA
:1025C000D90041031F00410019004103D800410018
:1025D0000200410319004102A5004102BD00410370
:1025E00018004102A4004102BC004104A6004102BF
:1025F000A30141052D0041052E004204A700004122
:1026000004A9004104AB004104AA004104AC10003D
:10261000C0E0C0F0C083C082C0D0E8C0E0ECC0E041
:10262000EDC0E0EEC0E0EFC0E0D2AF9002A6E00463
:10263000F0C3940A4017E4F012163F2401FFE43E71
:10264000FEE43DFDE43CFC9003EE122947D0E0FFA0
:10265000D0E0FED0E0FDD0E0FCD0E0F8D0D0D082D9
:10266000D083D0F0D0E03290054BEDF090054AEFEA
:10267000F0A3E0FE12180BF583E5822E121668E037
:10268000603890054AE01219AAC083C08290054BB9
:10269000E0D082D0831219EA12163412184D902C11
:1026A000CD1216FE401490054BE0FF90054AE01253
:1026B000180C121663E4F07F01227F002290054B74
:1026C000EDF090054AEFF0A3E0FE1217FEF583E56A
:1026D000822E121668E0603590054AE012199CC0FF
:1026E00083C08290054BE0D082D0831219EA121683
:1026F00034902CC71216F2401490054BE0FF900561
:102700004AE01217FF121663E4F07F01227F0022D5
:10271000CBEFCBEB640170131216CBE09004FDF00D
:102720001216DFA3E09004FE121A40EB640270134D
:102730001216CBE0900501F01216DFA3E09005021F
:10274000121A40EB640370131216CBE0900505F0EB
:102750001216DFA3E0900506121A4022900533EF0F
:10276000F0E0FF241A1218D3E06034EF25E025E0F2
:10277000241EF582E4340012163212184D900533EF
:10278000E025E024BBF582E4342CF5831216FE40EC
:102790000E900533E0241A1218D3E4F07F01227F53
:1027A00000227E007F807D007B017A0479AD1229B2
:1027B00090E49004BDF09004AE7417F0E4A3F090A0
:1027C00004C074ABF0A37494F0900552E09004B38D
:1027D000F0900550E09004B4F0900553E09004B5FB
:1027E000F01230DE0233AA90054A12186F5033906F
:1027F000054AE0FFEB1217FF121663E07024EB129C
:1028000017FF1216637401F012163FFFEB12199CAA
:10281000C083C08290054AE0D082D0831219EA12A8
:1028200029472290054A12186F503390054AE0FF5D
:10283000EB12180C121663E07024EB12180C12162F
:10284000637401F012163FFFEB1219AAC083C08215
:1028500090054AE0D082D0831219EA1229472290CB
:102860000536EFF0E0FF24A81218A7E06028EF2556
:10287000E025E024ACF582E4340212163212184D41
:10288000902CBD1216FE400E900536E024A81218BA
:10289000A7E4F07F01227F0022900536EFF0E0FFF1
:1028A00024DA1218C8E06028EF25E025E024DEF5E0
:1028B00082E4340312163212184D902CC11216FE07
:1028C000400E900536E024DA1218C8E4F07F0122A9
:1028D0007F0022900536EFF0E0FF24031218B2E0EB
:1028E0006022EF25E025E02407F582E4340012168B
:1028F000321216EF400E900536E024031218B2E4AF
:10290000F07F01227F0022900536EFF0E0FF24CC1B
:102910001218BDE06022EF25E025E02408F582E4EE
:1029200034031216321216EF400E900536E024CC16
:102930001218BDE4F07F01227F0022E4F0123AF881
:10294000900534E0FF121871501E1218A4E07018A0
:102950001218A47401F012163F12196D24ACF582FE
:10296000E43402F58312294722E4FFFE900018E0C8
:10297000FDEEC39D501BEF1216021217A6EE1216A3
:1029800005E0FAA3E0D39DEA9C4003CFEECF0E8092
:10299000DB9002A1EFF02290052F7401F0A37404E4
:1029A000F0A374ADF0E4F5DA75DA4043DA2075D7B8
:1029B0004075DA5843A90875B80875F80822121846
:1029C00071501E1218AFE070181218AF7401F01297
:1029D000163F12196D2407F582E43400F58312299D
:1029E0004722121871501E1218BAE070181218BA45
:1029F0007401F012163F12196D2408F582E43403B5
:102A0000F58312294722121871501E1218C5E07062
:102A1000181218C57401F012163F12196D24DEF554
:102A200082E43403F58312294722121871501E12D2
:102A300018D0E070181218D07401F012163F121955
:102A40006D241EF582E43400F58312294722E4FD4B
:102A50009004A9E060119004ADE0FE54F0FDEE5446
:102A60000FF0E49004A9F0CFEDCF22121961FFFE20
:102A7000EE902CD793600974202F121A1FEEF00FDE
:102A80000EEEB410EB22758B03758DA0758E15902C
:102A90002ECB121964438A80F586F58F43AA08224B
:102AA0009003EE122953000000007E007F0E7D008F
:102AB0007B017A0279BE02299075B28E75B6F9E46F
:102AC000F5B743B20143AA01023AA0EFD3940450F0
:102AD0000874A82F1218A7E4F022EFD3940450082A
:102AE00074032F1218B2E4F022EFD3940450087448
:102AF000CC2F1218BDE4F022EFD39404500874DAFE
:102B00002F1218C8E4F022EFD394045008741A2F3F
:102B10001218D3E4F0221234EC9002A77401F012E0
:102B200030280237A2902ECB74F7F0538A7F758637
:102B30000122EE30E707C3E49FFFE49EFE2200007F
:102B40000000000000000000000000000000000085
:102B50000000000000000000000000000000000075
:102B60000000000000000000000000000000000065
:102B70000000000000000000000000000000000055
:102FF000000000000000000000000000000000D5FC
:00000001FF
