:100000005555AAAA212000000000000000000000B1
:10001000D7830000000000000000000001245266A9
:100020000002100021080000A5020000BB02000031
:10003000D1020000E7020000FD0200000000000005
:100040000000000000000000000000004528000043
:100050004928000000000000130300004B280000A6
:100060004D2800006D25000085280000A525000012
:1000700067280000692800006D2800007128000032
:100080007528000077280000792800007B280000F0
:100090007D2800008728000000000000000000000C
:1000A000892800008B2800000000000000000000EC
:1000B000000000008D2800008F280000B9250000F6
:1000C000912800009F28000025030000B9280000A7
:1000D000BB2800000000000000000000000000003D
:1000E0002120000000F002F800F068F80AA090E873
:1000F000000C82448344AAF10107DA4501D100F0E3
:100100005DF8AFF2090EBAE80F0013F0010F18BF47
:10011000FB1A43F0010318475C9901009C99010008
:100120000A444FF0000C10F8013B13F0070408BF1D
:1001300010F8014B1D1108BF10F8015B641E05D0BB
:1001400010F8016B641E01F8016BF9D113F0080F70
:100150001EBF10F8014BAD1C0C1B09D16D1E58BF02
:1001600001F801CBFAD505E014F8016B01F8016B39
:100170006D1EF9D59142D6D370470000103A24BFC6
:1001800078C878C1FAD8520724BF30C830C144BFFC
:1001900004680C607047000000230024002500263E
:1001A000103A28BF78C1FBD8520728BF30C148BFDA
:1001B0000B6070471FB51FBD10B510BDDFF80CD028
:1001C000FFF7F8FF02F0ABFC19F082F90002100013
:1001D00003B4FFF7F1FF03BC19F082F90A484FF0AE
:1001E000FF0101704FF0000080F311884FF0000014
:1001F00080F3098805484FF00201017062B6044897
:100200004FF080510160704722ED00E000021000C5
:1002100004ED00E002484FF080510160704700009B
:1002200004ED00E04FF0200080F31188EFF3098027
:1002300098B11248006812490968884217D0EFF354
:1002400009800E49096820E9F00F886000B50B4865
:10025000006800F0F2F85DF804EB084808490A6805
:10026000026000688168B1E8F00F81F309884EF000
:10027000040E4FF0000080F3118870470402100054
:1002800008021000EFF311804FF0200181F3118874
:10029000704700004FF0000080F3118870470000A5
:1002A00062B6704772B6704740BA7047C0BA7047BE
:1002B000401E0028FCDC704700BE704740BA704703
:1002C000C0BA70471EF0040F0CBFEFF30880EFF3C5
:1002D00009804FF0010102F0E6B91EF0040F0CBFD7
:1002E000EFF30880EFF309804FF0020102F0DBB971
:1002F0001EF0040F0CBFEFF30880EFF309804FF0FE
:10030000030102F0D0B91EF0040F0CBFEFF3088018
:10031000EFF309804FF0040102F0C5B91EF0040F9D
:100320000CBFEFF30880EFF309804FF0050102F0F6
:10033000BAB94FF0000000B503F0A5FB5DF804EB7F
:10034000FFF770BF1EF0040F0CBFEFF30880EFF350
:1003500009804FF0000102F0A6B90000194910B55C
:1003600001200870184900200860184908601849E1
:1003700008601849086000F0B9F900F04BF900F086
:1003800063F8002010BD10B5114800F02AF90F499C
:1003900008600D490968884207D00A480078022899
:1003A00003D1BDE81040FFF735BF10BD10B5FFF712
:1003B000EAFF044902200870FFF710FF4FF0FF30FA
:1003C00010BD00000002100004021000080210001E
:1003D0000C0210001002100070B50D460446C169F1
:1003E0008068CC2218F0A9FFE169A0680844403871
:1003F0004FF08071C163216A816300214163016311
:10040000C1628162C0E908514FF00B31C1614FF008
:100410000A3181614FF0093141614FF008310161CA
:100420004FF00731C1604FF0063181604FF0053168
:1004300041604FF00431016070BD82698168914272
:1004400001D802F016BC704710B54FF4B4714F4894
:1004500018F09DFF002010BD70B5054600EBC501EA
:100460004A4800EB8104FFF70DFF0646207828B1CB
:100470003046FFF70FFF6FF0010070BD03202070C2
:1004800000206560206204F11C0000F083F8304613
:10049000FFF700FF002070BD2DE9F0410F463B49FA
:1004A000002500EBC00001EB80042E46FFF7EAFEBA
:1004B0008046206A3843206204F11C00074600F0A1
:1004C00090F80CE0216A026C114203D000F066F94A
:1004D000012600E06D1C2946384600F078F8002817
:1004E000F0D1012E01D1FFF74EFF4046FFF7D2FEBB
:1004F0000020BDE8F08170B50D46244900EBC00036
:1005000001EB8004FFF7BEFE216AA9432162FFF7D9
:10051000C1FE002070BD70B50C461C4900EBC00048
:1005200001EB800500202060FFF7ACFE296A216006
:10053000FFF7B0FE002070BD2DE9F0410D461349D4
:1005400000EBC0001E46904601EB8004FFF79AFEC8
:1005500007460F4800680564216A294203D104F167
:100560001C0100F02DF93846FFF794FEFFF78AFED4
:10057000216A29403160B8F1010F02D1216AA943F3
:100580002162FFF787FE0020B3E70000040510009A
:1005900004021000002101600846704730B50A6867
:1005A00012B10B46C46B09E000220860C0E90321C8
:1005B0000BE000BF02F10C03D26812B1D56BA5426B
:1005C000F8DC1A68C0E903211860002030BD00681B
:1005D000002201E0C068521C8A4201D00028F9D1F3
:1005E00070470068704702690AB1116831B96FF04D
:1005F0000400704701F10C02C96839B18142F9D198
:10060000C968116000210161084670476FF003005E
:100610007047000010B54FF4C871324818F0B7FEAB
:10062000002010BD2DE9F041884605462D4900EB1C
:100630008500174601EBC004FFF724FE064620782C
:1006400030B13046FFF726FE6FF00100BDE8F081C3
:1006500002202070E7611422414604F10800656021
:1006600018F0F4FD0020206204F12400FFF792FF4F
:100670003046FFF70FFE0020E8E770B5194900EBA0
:10068000800001EBC004FFF7FDFD0546D4E907013A
:10069000814205DB144804F12401006800F090F861
:1006A000206A401C20622846FFF7F4FD002070BD40
:1006B00070B50C4900EB800001EBC004FFF7E2FDD0
:1006C0000546206A08B1401E206204F12400FFF7AD
:1006D00088FF10B1606A00F011F82846FFF7DAFDD4
:1006E000002070BD6C0610000402100010B54FF41D
:1006F0002A71404818F04BFE002010BD10B504468A
:1007000090F8380002280BD02046FFF76CFF02203B
:1007100084F8380038492046FFF740FFFFF733FEE2
:10072000002010BD2DE9F05F8B460646314900EBF5
:1007300006109046DDE90AA911F820201D461AB1DD
:100740006FF00100BDE8F09F01EB8004FFF79AFD18
:10075000074601202070C4E90165C4E90585C4E9A4
:1007600007A91422594604F1240018F06FFD002057
:1007700084F8370084F838006169E0602061C4E9DA
:100780000F1020460C99FFF727FEA0602046FFF7C8
:10079000B5FF3846FFF77EFD0020D3E710B50446CD
:1007A00090F83800022809D02046FFF71CFF0220ED
:1007B00084F8380010492046FFF7F0FE002010BDF5
:1007C00070B5044690F838000D4602280BD120463B
:1007D000FFF709FF032084F8380029462046FFF779
:1007E000DDFEFFF7D0FD002070BD044800684068C2
:1007F00070470000FC0710000C02100004021000FB
:10080000F0B58446002004460C4F14E05CF82460E8
:100810000323DD0046FA05F280EA0260082500287D
:1008200002DA87EA400000E040006D1E002DF6DC91
:100830005B1EEED5641C8C42E8DBF0BD1B00008023
:100840001248804712480047FEE7FEE7FEE7FEE752
:10085000FEE7FEE7FEE7FEE7FEE7FEE7FEE7FEE770
:10086000FEE7FEE7FEE7FEE7FEE7FEE7FEE7FEE760
:10087000FEE7FEE7FEE7FEE7FEE7FEE7FEE7FEE750
:10088000FEE7FEE7FEE7FEE7FEE70000C90800001E
:10089000C5000000244800684FF00051002891F87E
:1008A000210000F01C000DD0042805D0082805D038
:1008B0000C2805D096200CE011200AE0252008E045
:1008C0004B2006E0042809D0082809D00C2809D0BC
:1008D0007020401E01F82C0F087070470C20F8E7BC
:1008E0001B20F6E73720F4E770471049D320087043
:1008F0000D4901200860CDE70C490B2008700A491A
:1009000001200860C6E7084801684FF0005090F8E1
:10091000210011B1F32804D001E0932801D0002078
:10092000704701207047000034040022210000209D
:1009300010B5042000F0D4F9052000F0D1F906200C
:1009400000F0CEF9072000F0CBF9082000F0C8F93C
:10095000182000F0C5F9192000F0C2F91A2000F0A3
:10096000BFF9F14A00201060EF4B40331860EE49A8
:1009700018390860EC4908310860EC49C871EA4C44
:10098000143C2060E84C0C3420600872E64C103CAB
:100990002060E54C103420604872E34C0C3C206031
:1009A000E14C143420608872DF4C083C2060DE4C3F
:1009B00018342060C872DC4C283420608873241DF1
:1009C0002060C873241D2060087401201060186026
:1009D00008700621042000F09BF90621052000F094
:1009E00097F90621084600F093F90621072000F048
:1009F0008FF90621082000F08BF90621182000F05D
:100A000087F90621192000F083F904211A2000F04B
:100A10007FF9042000F070F9052000F06DF9062040
:100A200000F06AF9072000F067F9082000F064F987
:100A3000182000F061F9192000F05EF91A2000F08A
:100A40005BF9042000F040F9052000F03DF9062094
:100A500000F03AF9072000F037F9082000F034F9E7
:100A6000182000F031F9BDE810401A2000F02CB930
:100A700000EB8000AC494000002218390A60AB4A04
:100A8000521F1070012008607047A74900201839D4
:100A90000860704700EB8000A34940000022143931
:100AA0000A60A24A121F10700120086070479E4918
:100AB000002014390860704700EB80009A4940001C
:100AC000002210390A60994AD21E10700120086075
:100AD00070479549002010390860704700EB80008E
:100AE0009149400000220C390A60904A921E107011
:100AF0000120086070478C4900200C39086070475D
:100B000000EB800088494000002208390A60874ACB
:100B1000521E107001200860704783490020083978
:100B2000086070478249097848430A21B0FBF1F117
:100B30008048491E80F86010582181761121C176C5
:100B4000042280F860205C228276C1767047794862
:100B5000002180F860105C2181761121C1767047F8
:100B6000714A10B5283214680123D10664B10024FB
:100B7000146081F8350091F83F0000BF91F83F40C4
:100B80008442FBD0136010BD81F83500FAE700EB1A
:100B9000C00101EB00106FF0030101EB800010B504
:100BA0006549664C0978B0FBF1F0401E80B2FF2821
:100BB0000CD9010A2170494200EB01206070FF202E
:100BC000FFF7CEFF2078401E207010BD002121705D
:100BD0006170BDE81040C0B2C2E7534828300168D8
:100BE00000290DD000210160C00690F83F1090F858
:100BF0003F20FF2A04D000BF90F83F208A42FBD05C
:100C0000704710B54D4C2178607851EA000207D04A
:100C100051B1FF20FFF7A4FF2078401E207010BDC7
:100C2000BDE8104007F0B6BAFFF79AFF00206070E9
:100C300010BD3D4A10B5303214680123590794B1F4
:100C40000024146081F8370091F83F0091F83F408C
:100C50008442FBD0136091F83F0000BF91F83F2021
:100C60008242FBD010BD81F83700F3E72E483030C8
:100C7000016800290AD0002101604FF0005191F86D
:100C80003F0000BF91F83F208242FBD0704700EB4D
:100C9000800040001921B0FBF1F028490004000C4D
:100CA000488001D01920E3E6704710B5234C00239B
:100CB000608830B11920FFF7DBFE6088401E60803D
:100CC00000E00123184610BD00F01F0201219140F1
:100CD00040094FF0E02202EB8000C0F8001170479D
:100CE00000F01F020121914040094FF0E02202EB89
:100CF0008000C0F88011704700F01F020121914070
:100D000040094FF0E02202EB8000C0F880127047EB
:100D10004907090E002803DA00F00F00084A00E036
:100D2000084A8154704700001C050022330000204F
:100D3000C202100000100020C102100014021000B6
:100D400014ED00E000E400E04948012101600021C9
:100D50000160704747480121016000210160704730
:100D600010B5002000F06BF8FFF7F4FFFFF7ECFF81
:100D70004149002008604149A0200870002000F08F
:100D80006AF8BDE81040002000F04DB83A48012153
:100D90001C38016000210160704710B5002000F090
:100DA0004EF8334901200860002000F054F8BDE8F7
:100DB0001040002000F037B82D4901201C39086090
:100DC00070472F4800782E49491C0978401A00F0D6
:100DD0003F0070472B4902780A7042784A70827847
:100DE0008A70C278CA7002790A7142794A7182792E
:100DF0008A71C079C8717047234800684178827849
:100E00004FF00050437A0374204B1B78437443899E
:100E10001B0A83744389C37401754275C179817556
:100E2000017AC175704700F01F020121914040090D
:100E30004FF0E02202EB8000C0F80011704700F094
:100E40001F020121914040094FF0E02202EB800097
:100E5000C0F88011704700F01F0201219140400945
:100E60004FF0E02202EB8000C0F8801270470000D3
:100E70005C840022A00000227C04002200E400E048
:100E8000200400200002002028021000B5021000FB
:100E900010B5092000F02BF80A2000F028F80920EE
:100EA00000F031F80A2000F02EF80521092000F0AA
:100EB00036F805210A2000F032F81E487F214170E3
:100EC0007C2282700171002100F848191A490968D2
:100ED00091F8C810CA0709D08A0707D510F84A2F19
:100EE000C1F38203012199408A43027010BD00F0D2
:100EF0001F020121914040094FF0E02202EB8000E7
:100F0000C0F88011704700F01F0201219140400994
:100F10004FF0E02202EB8000C0F8801270474907D2
:100F2000090E002803DA00F00F00044A00E0044A2A
:100F300081547047480000202802100014ED00E0A2
:100F400000E400E0704710B5044602462A21002064
:100F500000F074F9221D2B21002000F06FF904F13C
:100F600008022C21002000F069F904F10C020F2185
:100F7000032000F063F92068000E032825D304F154
:100F800014022D21002000F059F904F110022E2145
:100F9000002000F053F904F11C022F21002000F082
:100FA0004DF904F118023021002000F047F904F156
:100FB00024023121002000F041F904F12002322105
:100FC000BDE81040002000F039B910BD08B5072178
:100FD0006A46084600F032F9009808BD10B5C44CC6
:100FE000072060700020207044F2C000608000BFC5
:100FF00000BF00BF00BF4CF2C000608000BF00BF58
:1010000000BF00BF4CF2E00060800A20FFF750F9FB
:1010100044F2E000608000BF00BF00BF00BF4FF49B
:101020008040608010BDF0B500252E464FF0005482
:10103000E02717E0883401F03F016070217067807D
:1010400000BF00BF00BF00BFD4F808C043F825C0F0
:101050006680883C00BF6D1C521E491C3F2901D987
:10106000401CC0B2002AE5DCF0BD2DE9F047A04DE0
:101070000026AD1C04462E80DFF878920121C9F8C5
:1010800080104FF4C058A5F8008000BF00BF00BF1B
:1010900000BF00BF00BF4FF480572F803C20FFF7F8
:1010A00007F92E80FFF79AFF00F0DEF85C2000F0D1
:1010B000EDF82346012208210020FFF7B4FF231D8D
:1010C000012209210020FFF7AEFF04F108030122ED
:1010D0000A210020FFF7A7FF04F10C0301220B21D6
:1010E0000020FFF7A0FF04F1100301220C210020D3
:1010F000FFF799FF04F1140301220D210020FFF7EF
:1011000092FF00F0B1F8FFF769FF2F8000BF00BF2A
:1011100000BF00BF00BF00BF00BF00BF00BF00BFD7
:1011200000BF00BFA5F8008000BF00BF00BF00BF28
:1011300000BF00BF4FF440602880C9F88060BDE860
:10114000F087F0B54FF0000C059C0CB14FF0800C0F
:10115000C5B200264FF00057664C27E087F889504B
:101160004FEAC05EBEF1000F01F03F0E4EEA0C0EDA
:1011700001DA4EF0400E87F888E053F826E0C7F811
:101180008CE04FF0010EC4F8B0E04FF0000EC4F850
:10119000B0E0491CC9B2402902D36D1CEDB2002158
:1011A000D4F8C0E0BEF1000FFAD1761C9642D5DB30
:1011B000F0BD4FF0005282F88900002309B1802071
:1011C00002E0C00503D5402082F8880001E082F8E3
:1011D000883048480121C0F8AC10C0F8AC3000BFDE
:1011E000D0F8C0100029FBD17047F8B50C46054671
:1011F0004FF4F47600213046FFF7DBFF0020014674
:1012000000902B4622463046FFF79BFFF8BDF8B50D
:101210000C4605464FF4F87600213046FFF7C9FF2B
:1012200000214FF4FC70FFF7C4FF0020014600903E
:101230002B4622463046FFF784FFF8BD2C4B5870F2
:1012400041F0800003F888092A480021B430016089
:10125000012140F8B41900BFD0F8C0100029FBD11B
:10126000D3F890001060704710B5214C4FF48040C7
:10127000A41C20800420FFF71BF80020208000BF62
:1012800000BF00BF00BF00BF00BF10BD70B5184C4D
:101290002126A41C268000BF00BF00BF00BF00BFE6
:1012A00000BF40F02105258000BF00BF00BF00BF88
:1012B00000BF00BF44F22101084320800420FEF754
:1012C000F7FF258000BF00BF00BF00BF00BF00BF09
:1012D000268000BF00BF00BF00BF00BF00BF0020CE
:1012E000208000BF00BF00BF00BF00BF00BF70BDB7
:1012F0008800002000100022F8B5FF4C002635467B
:101300002670E6700120A66000F08EFC0C2000F034
:101310008BFC032000F088FC172000F085FC0120E6
:1013200000F08EFC0C2000F08BFC032000F088FC09
:10133000172000F085FC00F0DFFC6A460221EF4830
:1013400001F00DF9EE499DF80000EE4A08709DF895
:1013500001101170542800D0042600F0C7FE0521AA
:10136000012000F079FC05210C2000F075FC06211D
:10137000032000F071FC0621172000F06DFC012015
:1013800000F046FC032000F043FC172000F040FC76
:10139000A57065703046F8BD9065704738B50C464D
:1013A000009015460421684601F0A3FDD6498978CE
:1013B000C90604D5062C01D0032C00D1401C00998D
:1013C000296585F84E0038BD2DE9F041CE4C054623
:1013D000CE4E002084F8460030682246294690F818
:1013E00045076075E06AFFF7D9FF206BA065E5202F
:1013F0004FF0E90C042D08D0052D06D0012D33D077
:10140000022D31D00A2D7BD099E03168A37891F874
:10141000A8219B0622F0060201D542F0040201F544
:10142000D57184F84D200A8824F8342F4A886280C8
:101430000A7922714A796271CA88E2800A89228116
:101440008A7AA272CA7AE272497B6174A17C41F005
:101450000401A174AE49C1F30E01A182343C042DF4
:101460004FD0052D50D06AE0326892F81B1421F05D
:10147000060361888F0601D543F0040384F84D30DC
:10148000B2F81C3424F8343FB2F81E34638092F86A
:101490002034237192F82134637192F8223492F847
:1014A000B171C90543EA0723E38092F8243492F826
:1014B000B37143EA0723238192F82634A37292F88A
:1014C0002734E37292F82834A373A4F1340403D4CC
:1014D00092F82B1484F8441092F8291404F8451F4C
:1014E000617841F0040161708949F831C1F30E015E
:1014F000A4F80310453C012D03D0022D04D01EE0BA
:1015000005E084F84A001AE084F84AC017E0316820
:10151000A27891F85817920621F0060101D541F002
:10152000040184F84D1014F8461F41F004012170A5
:101530007749F839C1F30E0161802071463CA078EB
:1015400080070028306890F8660701DA20F0030071
:1015500084F84B00607D20F004006075664845709B
:10156000BDE8F041684800F0BCBE6848624A0068C7
:10157000127900F2073100F2FB2031F812206249A3
:101580004A830278CA7542780A7680788877002084
:101590000875887570472DE9F0475B4C05460020BB
:1015A00084F84600594EE12084F84A003168DFF89B
:1015B0006491594B91F845074F4F6075072D06D040
:1015C000082D17D0062D3ED0032D3CD034E091F8E5
:1015D00015C00A7D94F85C800CF1010C0CFB02F044
:1015E000B8F1010F03D902FB08F000FB0CF009EB86
:1015F000400008E0FFF7B9FF31683A79087D5043B1
:10160000464A02EB4000C0F30E00A4F8480091F8EF
:1016100053071A7800F0F00002F00F021043E07751
:1016200091F8550784F82100374A29465FF00100F8
:10163000FFF7B4FE2069A06560884107617D21D570
:1016400021F0040124E04A7DB7F808C0087D521C4F
:1016500002FB0CF2504309EB4000C0F30E00A4F86B
:10166000480091F853071A7800F0F00002F00F02DA
:101670001043E07791F8550784F82100224A294663
:10168000E068D5E7326892F8452702F0040211437A
:10169000617594F84A10072D14D021F0020100BFA3
:1016A000800784F84A100028306890F8660701DA4D
:1016B00020F0030084F84B007D70BDE8F04712482D
:1016C00000F07ABD41F00201EAE706282DD0092892
:1016D0002BD0072829D0082827D0032825D00C286C
:1016E00022D00D2820D00B281ED00A281CD0042878
:1016F0001AD0052818D013E018021000041000209A
:10170000B4021000B5021000A40A10002802100054
:10171000F89F012000800120F6FF0100009E0120BB
:10172000012801D0022801D14EE634E7704730B5D8
:10173000FF4D8BB004460122FE48042C008808D0DF
:10174000052C06D0012C0ED0022C0CD00A2C07D070
:1017500022E0E97804291FD005291DD080071BD07D
:101760008DF800200CE0E978012915D0022913D06A
:10177000410702D410F0050F0ED002208DF80000B2
:10178000684601F016FD684600F090FB684600F0E0
:1017900046FB684600F048FEEC700BB030BDF8B573
:1017A000E34D0746012901D1002068716C79E24EB2
:1017B000641C07E056F82420694638469047012803
:1017C00004D0641C0E2CF5D90020F8BD6C719DF876
:1017D0000000F8BD70B5018800292BD001466022B9
:1017E000D44817F078FDFFF700F8D14C0025C4E984
:1017F00002502571607800281CD10121CD48FFF7E7
:10180000CEFF060016D0CD4901200870CC480068F4
:1018100090F8101149070ED590F8430780070AD4B5
:1018200000F064FE0220A07000F064FE192000F0B9
:101830008EFE667070BD25703046FFF778FF30462B
:10184000BDE8704041E700207047C268120006D032
:101850000088C00503D507200870012070470020CC
:101860007047C268120006D00088800503D50820A2
:1018700008700120704700207047C268120006D02F
:101880000088400403D50320087001207047002021
:101890007047C268120006D00078C00703D0062047
:1018A00008700120704700207047426A120006D07D
:1018B0000078000703D50920087001207047002038
:1018C0007047C26A120008D0026B32B100788006FD
:1018D00003D50A2008700120704700207047C26AB3
:1018E000120006D00078C00603D50B200870012036
:1018F000704700207047C26A120006D00078800747
:1019000003D50C2008700120704700207047026B3F
:1019100032B10078400703D50D20087001207047D0
:1019200000207047C26A120007D0026B2AB10088FB
:10193000C00402D501200870704700207047C26AB9
:10194000120008D0026B32B10088800403D5022057
:1019500008700120704700207047C26A120008D04A
:10196000026B32B10088400503D5042008700120C5
:10197000704700207047C26A120008D0026B32B173
:101980000088000503D5052008700120704700205D
:101990007047002008700120704700B589B0012011
:1019A0008DF8000000F075F96648019000F5F850D8
:1019B000039000F53A7004905E4881686846884755
:1019C00009B000BD5A4910B54A780120082A10D143
:1019D0000B795B1CDCB25A4B0C711B6893F8063315
:1019E00003F00F035B1C9C4204D21046FFF76DFE10
:1019F000002010BD00220A7110BD70B54C4C0120B2
:101A00006178062922D1A1684A4D491CA16095F848
:101A10005C2091421BDAE8682A4620F0010006218A
:101A2000FFF7BCFC464822890168487D097D401CBF
:101A30005043401C4843434901EB4000C0F30E00B3
:101A4000A5F84800284600F026FC002070BD0021C3
:101A5000A16070BD70B53A4909684B7D097D5B1C7A
:101A60004B4334490C460A7894F85C40D2071FD0A7
:101A7000012C1DD9498849051AD50020314A14E0A6
:101A8000012109E001FB030632F8105032F816601C
:101A9000491C354422F810508C42F3DC32F9101006
:101AA00091FBF4F122F81010401C9842E8D370BD6D
:101AB000047770BD70B588B0FFF784FF00280ED0A2
:101AC000FFF79BFF00280AD000211A48FFF767FEA6
:101AD000040006D0FFF72BFE2046FFF7F6FD08B006
:101AE00070BD134D154800246C7017490470A42074
:101AF0000873134E306890F81001400702D5AC709F
:101B000000F0E2FC2878012837D08DF80040012051
:101B10008DF81C006846FFF79DFF064C0B4D208892
:101B2000400518D53068407D420005EB40010FE0CC
:101B300018021000A40A1000CC940100BF0210008B
:101B4000280210000080012000100020F89F0120D2
:101B5000284617F07BFB4648019000F5F0500290B4
:101B600000F58070039000F53A70CDE90405F8386F
:101B70000690A16868468847B1E703208DF8000009
:101B8000C5E770B53B483C4E3C4C00684FF0000543
:101B900090F8101149070AD590F84307800706D43A
:101BA000A078012808D002280FD0032803D1A570FF
:101BB000FFF7F3FE357070BD0220A07000F09AFCB4
:101BC000BDE87040322000F0C2BC0320A0706078F5
:101BD000FFF7ADFD6078BDE8704076E5F0B5002216
:101BE0004D1E12E0531C1F460BE000BF30F8126080
:101BF00030F81340A64203D920F8136020F81240B1
:101C00005B1C9BB28B42F1D3BAB2AA42EADBF0BDB5
:101C100000F01F020121914040094FF0E02202EB49
:101C20008000C0F80011704700F01F0201219140B0
:101C300040094FF0E02202EB8000C0F880117047AD
:101C400000F01F020121914040094FF0E02202EB19
:101C50008000C0F8801270474907090E002803DA97
:101C600000F00F00064A00E0064A81547047000069
:101C70000080012028021000BF021000180210008E
:101C800014ED00E000E400E0FE4801680029FCD10A
:101C90007047FD4800220260FB481C380260FB4888
:101CA0000261012101618260816002600160026065
:101CB000F449A0F574700B68002BFCD1F4490B7B40
:101CC00043F020030B730B7B23F040030B730B7B60
:101CD00023F080030B730B7B23F020030B73C0F8FE
:101CE000D823C0F8E023EB4802707047E54818306D
:101CF00001680029FCD1704730B5E44800247430F5
:101D00000460E24880300460E048C4600121C160A2
:101D1000C460046001600460DF4D2020287068709A
:101D2000DB49593D0873A4200873D6481830016870
:101D30000029FCD1FFF7ADFFD848046085F8344096
:101D400030BDF0B518260022CE4DD1484FF4F83101
:101D50005C270C465FF0000303EB000E11F803C094
:101D60005B1C8EF860C00C2BF6DB2B68002BFCD1C3
:101D70008276C77604F10C0103EB000E11F803C064
:101D80005B1C8EF860C00C2BF6DB29680029FCD1A7
:101D9000511C8176C776921C04F13001B2EB460FDC
:101DA000D7DBF0BD2DE9F0479246089E5B1EC6F1D9
:101DB00008010022B64C01F0FF0C154600218946AF
:101DC0009A420BDA00EB0208875C98F8018027FA48
:101DD00006F708FA0CF847EA080703E007D1875C22
:101DE00027FA06F701EB040888F8607003E001EBBE
:101DF000040888F8609001F1010102F101020C2948
:101E0000DEDBA0490F68002FFCD10AEB0501A176AB
:101E10005C21E1766D1C022DD0DBBDE8F08738B582
:101E2000002504460095006A112330222946FFF759
:101E3000B9FF0095182335220021606AFFF7B2FF31
:101E400038BD00B58BB000208DF80000684601F069
:101E5000B0F96846FFF7E3FF0BB000BD2DE9F0478E
:101E60000024DFF820828A498246254626464FF024
:101E70005C0900209C4206DA00EB010C1AF80470A1
:101E80008CF8607002E0471887F86060641C401CA2
:101E90000C28EFDBD8F800000028FBD15019887619
:101EA00081F81B906D1C032DE3DBB6E710B50446EB
:101EB0004069182332220021FFF7D0FFA0692023B8
:101EC0003722BDE810400021C8E700B58BB00020E4
:101ED0008DF80000684601F06CF96846FFF7E6FFF0
:101EE000BAE7F0B500246A4D05E0165D6719641C79
:101EF00087F8606064B29C42F7DB624A1468002C89
:101F0000FCD1A976184340F01000E876F0BD70B51A
:101F100000235F4C05E0CD5C1E195B1C86F8605009
:101F20005BB29342F7DB57490B68002BFCD1A076DC
:101F300042F01000E07670BD30B5594C0722022007
:101F4000216801F24271FFF7E2FF2168022201F2EB
:101F50004A710920FFF7DBFF2168062201F24D716B
:101F60000B20FFF7D4FF20684E494F4D90F85307E0
:101F7000097800F0F00001F00F01084328700122F9
:101F800029461120FFF7C3FF2168032201F2577190
:101F90001620FFF7BCFF43480122401E007800F0E6
:101FA0000F01206890F85A0761F31F102870294626
:101FB0001920FFF7ACFF2168012201F25B711A20A2
:101FC000FFF7A5FF2168042201F25C711B20FFF7D7
:101FD0009EFF34480222C01C2946007828703148F0
:101FE000401C007868701F20FFF791FF21680222D3
:101FF00001F5EC612120FFF78AFF2A480222001D2B
:102000002946007828702748801C007868702720AF
:10201000FFF77DFF2168012201F263712A20FFF79B
:1020200076FF2168072201F266713D20FFF76FFFFE
:102030002068022290F86E17297090F86F07687078
:1020400029464420FFF763FF2168022201F5EE6173
:102050004620FFF75CFF2168082201F272714820D8
:10206000FFF755FF2168082201F27A715020FFF72F
:102070004EFF2168052201F284715820FFF747FFC7
:10208000226813E0040B00221C0C0022D003002263
:102090000010002019021000590000204005002205
:1020A00028021000F6FF0100040B1000F84D92F812
:1020B0008F072870012302F28A72FA210020FFF7AD
:1020C00010FF2268012302F28C720E21C020FFF75C
:1020D00008FF2268012302F28D721421C020FFF74D
:1020E00000FF332068740B20A87430BD10B5FFF7D3
:1020F00023FFFFF7EAFEFFF7A4FEBDE8104020E64D
:1021000038B50546E34C006D00906073010AA17379
:10211000010CE173000E2074042269462B20FFF7A6
:10212000F6FE012205F14E012F20FFF7F0FE95F893
:102130004E00A074A86D0090E074010A2175010C96
:102140006175000EA075042269463520FFF7DFFE99
:102150000098800F84F84000CF4901220870392090
:10216000FFF7D5FE38BD00EBC00101EB00106FF0AA
:10217000030101EB800010B5C849C94A0978146809
:1021800090FBF1F0401EC1B20123580764B1002456
:10219000146080F8341090F83F1000BF90F83F4072
:1021A0008C42FBD0136010BD80F83410FAE7BD48B4
:1021B00001680129FCD170477CB5044600208DF8E8
:1021C00004002046FFF79CFFB148B4F84810401CBB
:1021D0000180217D00F8011C94F84A104173AD4E36
:1021E000A07D86F83600B04D286890F842078DF83B
:1021F00000006188890503D520F012008DF80000E9
:10220000012269460220FFF782FE042204F1150133
:102210000520FFF77CFE2968022201F24A7109209D
:10222000FFF775FE022204F11A010C20FFF76FFE82
:10223000022204F11C010E20FFF769FE052204F1C1
:102240001E011020FFF763FE286890F80907C007F9
:102250000AD0012201A94420FFF759FE022204F10D
:1022600040013F20FFF753FE012204F14B013D20C6
:10227000FFF74DFE012204F14C014420FFF747FE19
:10228000884801680129FCD194F84A003073232062
:10229000FFF769FF7CBD38B504467E4D006D0090A8
:1022A0006873010AA973010CE973000E28740422F3
:1022B00069462B20FFF72BFE012204F14E012F204F
:1022C000FFF725FE4834A079A87471482188401C86
:1022D0000180A1784173A07828732320FFF743FF82
:1022E00038BD7EB50446FFF70BFF6948B4F84810C7
:1022F000401C018094F8431000F8011C94F84A1027
:102300004173694D286890F842078DF80000618894
:10231000890503D520F012008DF8000001226946DE
:102320000220FFF7F4FD012204F115010520FFF75B
:10233000EEFD94F84600574EC00708D0286800F21A
:10234000957190F8950786F83600012206E094F81A
:10235000440086F83600012204F144010620FFF70C
:10236000D6FD012204F142010720FFF7D0FD012232
:1023700004F145010820FFF7CAFD2968022201F295
:102380004A710920FFF7C3FD286890F80907C007C4
:1023900007D000208DF80800012202A94420FFF791
:1023A000B6FD012204F14D011720FFF7B0FD94F8AE
:1023B0004A00400701D5042000E002208DF8040007
:1023C000012201A91820FFF7A2FD022204F1340125
:1023D0001B20FFF79CFD022204F136011D20FFF7B0
:1023E00096FD012204F138012120FFF790FD012222
:1023F00004F139012220FFF78AFD012204F13F0197
:102400002A20FFF784FD012204F14B013D20FFF754
:102410007EFD244801680129FCD194F84A003073FC
:102420002320FFF7A0FE7EBD30B50446C0691A4DDB
:102430000122007800F00F011B48006890F85A074D
:1024400061F31F10287029461920FFF760FDE0682E
:1024500002222946007828706068007868701F2082
:10246000FFF755FD20692946022200782870A068F0
:1024700000786870BDE83040272048E50A490A68BE
:1024800092F84D270270096891F85517017370474B
:102490005300002000100020040B1000C1021000A7
:1024A00040050022000B00222802100010B504464F
:1024B000014601220B20FFF72AFD04F10C01012245
:1024C000BDE81040132022E5674908B504200873D1
:1024D000664801226946006890F8430720F008002A
:1024E0008DF800000320FFF712FD08BD5E49202093
:1024F0000873CCE718B55E4C01226946207840F09D
:10250000F0008DF800001046FFF701FD5649C0208D
:10251000087320788DF80000012269461046FFF705
:10252000F6FC18BD534900200860B0E75148403020
:1025300001680029ABD0002101604FF0005191F8F3
:102540003F0000BF91F83F208242FBD09FE74949FE
:1025500000220A60484A10700120086097E770B5B1
:10256000464C2368002BFCD11D4603E0C6185B1CBB
:1025700086F880508B42F9D32368002BFCD102E00F
:10258000C45CD4545B1C8B42FAD370BD10B501F00F
:1025900095FAFFF7CBFF3A48007878B137481838FA
:1025A00001680029FCD13048C078400602D5354981
:1025B00001200870BDE81040FFF77CBA32490020C6
:1025C000087010BD10B501F079FA2A4900200860A2
:1025D000BDE81040FFF7D5BA10B501F06FFAFFF76C
:1025E000A5FFBDE81040FFF7CCBA1F4B10B5987699
:1025F000DA76224818380468002CFCD1012083F8D0
:10260000E0001E480468002CFCD1002005E0C4183E
:1026100094F860400C54401C40B29042F7DB10BD6F
:1026200008B543F6FF70ADF80000022269463F206E
:10263000FFF76DFC0220ADF80000012269463D2045
:10264000FFF765FC0849E02008734FF44870FDF778
:102650002FFE022269468720FFF7C7FFFFF734FFEE
:10266000BDF8000008BD0000001000202802100086
:102670005B021000000500222D0000201C0B002230
:102680001902100018021000BF0210007048006804
:1026900090F8F007C00605D5ED214EF6ED5208463C
:1026A00005F089FEFEE705460E46012005F045FED1
:1026B000694C6848C4E900062868A0606868E06062
:1026C000A8682061E86860612869A0616869E061C4
:1026D000A8692062614EE869606230685F4FA0625D
:1026E000103F386807F10408E062D8F8000008F1EC
:1026F00004092063D9F8000006F1040A6063DAF8DF
:102700000000DFF858B1A063ABF1340BDBF8000038
:10271000E063381F00682064FEF767F86064504883
:1027200000210068A0640F202A6805F01EFE012128
:102730000F206A6805F019FE02210F20AA6805F033
:1027400014FE03210F20EA6805F00FFE0C210F2074
:102750002A6905F00AFE0E210F206A6905F005FEC0
:102760000F210846AA6905F000FE20210F20EA6922
:1027700005F0FBFD326821210F2005F0F6FD3A68D7
:1027800022210F2005F0F1FDD8F8002023210F2091
:1027900005F0EBFDD9F8002024210F2005F0E5FD20
:1027A000DAF8002025210F2005F0DFFDDBF80020FE
:1027B00026210F2005F0D9FD381F026827210F20A0
:1027C00005F0D3FDFEF711F8024630210F2005F089
:1027D000CCFDFFF75BFF012807D002280FD00328AC
:1027E00005D0042805D004210AE0012108E00321D6
:1027F00006E00021032005F0A0FDFFF747FF0221BE
:10280000032005F09ABD10B504460146042005F0EA
:1028100094FD012C01D1FFF739FF10BD01460820BE
:1028200005F08BBD0146062005F087BD10B50446B6
:102830000146072005F081FD012C03D0022C01D0B8
:10284000032C01D1FFF722FF10BD0320EEE70000AB
:1028500028021000AF0550FA5C00012038ED00E0BE
:102860007402100001F02AB9704770471B4810B578
:10287000016821F00401016001F020F9BDE8104079
:1028800015F05CBA7047704701F018B901F016B93D
:1028900001F014B9704770477047704701F00EB9E6
:1028A0007047704770477047704770477047704770
:1028B00010B501F003F9BDE81040FEF7A2B910B55C
:1028C00001F0FCF806480078012801D101F061FF11
:1028D00004490020086010BD7047704710ED00E00B
:1028E000BE0210004805002210B55C219D4816F07C
:1028F0002CFD9C489C499D4A018082809C494180D6
:102900009C4BC3809C4C04819C4C44839C4C848392
:102910009C4CC4839C4C04849C4C44849C4C848478
:102920009C4CC4841A309C4CC481838401844284AE
:102930009A49C1849A499C4B0968B1F8792002856B
:10294000B1F85F214285B1F88D208285B1F8D6209B
:10295000C2850022028642868286924A5B1E1288C7
:10296000C2864A7D02870A7D42878F4A1B78127889
:1029700042EA0322C287B1F84B2052BAA0F84020A5
:10298000864891F84E274280B1F85C17C1800181DA
:1029900010BD8548113001788448552901D019218E
:1029A00002E0814913310978017070472DE9F04741
:1029B000FF2228217E4816F0C0FC7D48FEF7C3FAAE
:1029C0007B480E2401254268072645F2AA518A4217
:1029D00002D082688A423CD180460068D8F808203C
:1029E000070E89464A4506D1032F01D1C0F30135B0
:1029F000C0F3032602E00120FFF714FFD8F804100B
:102A0000494504D198F8000000F01F0402E00220BC
:102A1000FFF708FF032F22D1D8F814304946654A42
:102A200040468B4201D1036900E0634B1360C369E8
:102A3000624A8B4201D1836900E0614B1360436AB3
:102A4000604A4B4502D1D8F8200000E05E48106093
:102A500005E00120FFF7E6FE0220FFF7E3FE05F0A8
:102A6000030040EA061020F00C014D48006890F881
:102A70004107C0F3C00241EAC201C0F3800041EA4D
:102A8000800152480170524880F86010012181761F
:102A90001121C1764F48017864F304010170BDE84B
:102AA000F08770B5FDF721FFFEF75AF93C4D286815
:102AB0000078A52802D00120FFF7A5FE4FF00850AE
:102AC0000124C0F898432868434A817C01F0010141
:102AD0001160807C111DC0F340000860FEF732FADF
:102AE000FDF726FFFEF708FC042801D1FFF773FE6F
:102AF000FEF782F9FEF7CCF93548802180F86010A6
:102B0000042181761121C176FFF750FFFFF741FFC5
:102B100031486C38046030480C38046070BD42F2B3
:102B2000210010B541074881FFF7BBFFFFF7DCFE2E
:102B30002A495F2008602A49002008602A4829495C
:102B4000016001F5086029490860294800F0F6FC99
:102B5000FDF7A8FB00F04EF8FDF7A2FBFDF726FC01
:102B6000012010BD000001200080012000DB0120B9
:102B700080D3012060A20120009F012010080120C5
:102B80004C080120740B0120B00B0120E804012047
:102B9000240501206C040120A80401202825100030
:102BA00028021000D4021000E1FF0100C102100051
:102BB000342F1000C402100040A5AE02C80210005D
:102BC00000879303CC02100000366E015B021000F8
:102BD000001000202000002088040022700B01203B
:102BE000B0021000101310007C02100080021000D0
:102BF000102410007FB5FDF7B1FB274D002400BF66
:102C000005EB441000F11002017F4CCACDE90261CE
:102C1000CDE900230FC8FDF785FD10B10220FFF7B5
:102C200005FE641C082CEBDB1C4D002404EB440067
:102C300005EB8001091D55F8200006C9FDF7F2FCDF
:102C400010B10220FFF7F2FD641C072CEEDB134DE0
:102C50000024543505EBC400416855F83400FDF7F5
:102C6000FBFB10B10220FFF7E1FD641C072CF1DB38
:102C70007FBD4068FFF7E9BD38B50C460546012A1F
:102C800001D1FDF709FC69462846FDF744FC00998F
:102C90002142F8D138BD00000895010008960100D6
:102CA0002DE9F04300245F1EDDF81C9028E0254646
:102CB000661C07E030F915C030F91680C44500DB0A
:102CC0003546761C9E42F5DB30F8146030F815C0AE
:102CD00020F814C020F81560B9F1000F0FD031F8BA
:102CE000146031F815C021F814C021F8156032F8CD
:102CF000146032F815C022F814C022F81560641C64
:102D0000BC42D4DBBDE8F08310B500240388012A5F
:102D100006D05BB15B1E1904090C018006D007E0E8
:102D20005B1C9AB202808A4202D90480012010BD45
:102D3000002010BD01EB8010801001EB4101490023
:102D4000182291FBF2F300EB400000F5F83002FB93
:102D50001311006820F07F40C84000F03F0070472A
:102D60002DE9F04F88B007460020019002900390B3
:102D70000490059006900790FF480125FD4E80467F
:102D80002AE0022420E0087D04FB005036F9100000
:102D9000B84218DD01200090032305AA03A901A869
:102DA000FFF77EFFD8F80000BDF90410007D04FB9A
:102DB000005036F91000814205DAADF80400ADF894
:102DC0000C50ADF81440641CD8F8001040464A7D01
:102DD000521EA242D7DC6D1C0168097D491EA94222
:102DE000CFDC00240DF10C0BB246C1465FF00005AC
:102DF00005A83BF914C030F91430D9F80000017D62
:102E0000504603FB01C63AF91660BE4235DDDB4E83
:102E100076571E4406FB01C2731C03FB01C130F848
:102E200012203AF811006146101A0FFA80F8701E4D
:102E3000FFF780FF009061463046FFF77BFF0146B9
:102E40000098401A002807D0D9F800000EDAB0F830
:102E5000651441450FDB1CE0D9F80000B0F861149F
:102E60004A42424515DAB0F8651402E0B0F8610450
:102E7000414241450DDD012007906D1CEDB2022D50
:102E8000B6D3641CE4B2032CB0D3079808B0BDE8F5
:102E9000F08F0020FAE7F0B5054600204FEA254CF8
:102EA0004FEA2146BCEB060400D564429C421FDA7F
:102EB0004FEA2247BCEB070400D564429C4217DA74
:102EC000F41B00D564429C4212DA2DB20CB2291BCD
:102ED00000D5494299420BDA12B2A91A00D54942EB
:102EE000994205DAA11A00D54942994200DA012037
:102EF000F0BD70B5034600200246A14C09E09D5C80
:102F0000521C05F00F0604EB1515A65D2D78304414
:102F100028448A42F3DB70BD884200D308467047DC
:102F2000884200DB08467047884200D80846704750
:102F3000884200DC08467047884200D30846904229
:102F400000D310467047F0B50025059F14E000241B
:102F50000EE000BF05FB03F600EB860C01EB8606D6
:102F60005CF824C09CFBF7FC46F824C0641C64B2E7
:102F70009C42EFDB6D1C6DB29542E8DBF0BDF0B515
:102F80000025059F14E000240EE000BF05FB03F6BA
:102F900000EB860C01EB86065CF824C00CFB07FCFA
:102FA00046F824C0641C64B29C42EFDB6D1C6DB219
:102FB0009542E8DBF0BDF0B50025059F17E0002441
:102FC00011E000BF05FB07F600EB860C01EB860E57
:102FD0005CF824C05EF824E002EB8606F44446F870
:102FE00024C0641C64B2BC42ECDB6D1C6DB29D421B
:102FF000E5DBF0BDF0B50025059F17E0002411E0EA
:1030000005FB07F600EB860C01EB860E5CF824C08E
:103010005EF824E002EB8606ACEB0E0C46F824C00A
:10302000641C64B2BC42EBDB6D1C6DB29D42E5DBFF
:10303000F0BD2DE9F04F814609A88A46B0E822404C
:103040000020DDF834B08A4221D020E700241BE0C4
:10305000002116E000FB02FC01FB05F800FB0BF66B
:1030600009EB8C0C0EEB860603EB88085CF821C09C
:1030700056F8247058F82480491C0CFB087746F851
:1030800024709142E6DB641CAC42E1DB401C5045FD
:10309000DCDBFCE638480068017B427B41EA022128
:1030A000827BC07B41EA024141EA006040007047F8
:1030B000314800680179427941EA02218279C07978
:1030C00041EA024141EA0060704700B5FFF7E2FFC4
:1030D0004008400000BDF8B50E460446FFF7F5FF76
:1030E0000090FFF7D7FF054604216846FFF701FF70
:1030F00004EB400700240099204623464FF0010CC2
:103100000CFA03F20A4207D02A4204D037F8102002
:1031100026F81420641C401C5B1C1E2BF0DBF8BD41
:10312000C6E7FCB50E460746FFF7CFFF0190FFF755
:10313000BFFF0090FFF7BCFF0546042101A8FFF781
:10314000D8FE044604216846FFF7D3FE00EB440096
:1031500007EB400700200099044603464FF0010C9E
:103160000CFA03F20A4211D02A420ED037F814208A
:1031700008E00000140B100028021000DF0210000D
:103180009496010026F81020401C641C5B1C202B28
:10319000E6DBFCBD00B5FFF77DFF40F0010000BDA0
:1031A00086E7FE4A520102EB810101F108510860F5
:1031B00070470178012918D0022915D1F8494160DA
:1031C000491C8160F7494161F6492C318161F4491C
:1031D000891CC160491C0161491FC161F1496C3101
:1031E0000162F0498D3141627047ED49103941600B
:1031F000491C8160EB49BD314161EA49E931816196
:10320000E7490E39C160491C0161491FC161E649A6
:103210000162E5492131E6E7F0B5074605988842A5
:1032200001DD1846F0BDB84201DA1046F0BD9E1A25
:10323000C01B4643CD1B00D10125DC4C96FBF5F0AD
:103240002468104400B294F8F1470E2CEED1A44645
:10325000D74CA4F800C04FEA264CA4F802C0A680C0
:103260002E14E68025816781A181E281238260821C
:10327000F0BD01EB8010801010B501EB4101490059
:10328000182391FBF3F403FB141300EB400000F54B
:10329000F8303F2401689C40A1439A400A430270E1
:1032A000110A4170110C817010BD2DE9F04F8B4651
:1032B00082460026FFF76EFF8146FFF7F9FE0746BC
:1032C0004FF0180C00254FF0010800BF08FA05F177
:1032D00011EA090F13D0002408FA04F038420AD08A
:1032E000BBF1010F10D01AF8062021462846FFF73F
:1032F000C0FF761CB6B2641CA4B2202CECD36D1CAB
:10330000ADB26545E2DBC2E521462846FFF712FD76
:103310000AF80600EDE7A249153908807047A04871
:103320001538B0F9000070472DE9FF4F0027864699
:1033300081B04FF0FF093E46BC46481C52D0501C9D
:1033400050D0881E012800DC0120C4B2974801F14A
:10335000020805682B7D981E404501DD881C00E0B1
:10336000981E00F0FF0B901E012800DC0120C0B267
:103370000090687D02F10208851E454501DD901C24
:1033800000E0801E00F0FF0A18E0009D12E000BF80
:1033900005FB034080B21EF8000084441FFA8CFC39
:1033A000B84200D90746814500D98146761C6D1C7C
:1033B000F6B2EDB25545EBD9641CE4B25C45E4D9F4
:1033C00053430EEB0100185CBCEB000101D5C1F1C9
:1033D0000001A6F1010691FBF6F1411A00D5494220
:1033E00004980170A7EB0900C0B205B04FE530B5F5
:1033F0006E4A03466A4814681538B4F8B52694F83E
:103400004647B0F9000004F00F04641C02FB0405F9
:1034100062439D4207DAA2EB60029A1A92B292FBD3
:10342000F0F0084409E0141A9C4208DD02EB600247
:10343000D21A92B292FBF0F0081AC0B230BD084620
:1034400030BD2DE9FC4F8B4682460026DFF864C173
:10345000564CDFF86491DFF8648117E001250FE036
:10346000007D002205FB00618FB2391A38F9170080
:1034700019F80110FFF7BBFF6D1C0CF80700EDB247
:103480002068417DA942EBD2761CF6B22068007D0F
:10349000B042E3D820684FFA8AF24FFA8BF1007DF0
:1034A0006B46604416460D46FFF73EFF074601ABEC
:1034B000324629464048FFF737FF0146206890F81A
:1034C000542407EB9210884207D39DF800009DF822
:1034D000041000EB9210884202D20120BDE8FC8F5C
:1034E0000020FBE7821002EB42020A4400EB40009E
:1034F0004000182190FBF1F301FB1301106820F04C
:103500007F40C84000F03F007047831003EB430347
:1035100010B51A4400EB40004000182390FBF3F470
:1035200003FB14033F2410689C40A04399400143CF
:103530001170080A5070080C907010BD2DE9F14F01
:1035400082B04FF0000B7821029815F020FFFFF7B2
:1035500021FE4FEA5008FFF7ABFDDC468146664688
:103560004FF0010A0AFA06F111EA090F38D00024D7
:103570000AFA0CF001272546CDF800000AFA05F0FA
:1035800010EA080F27D031462846FFF7D3FBA042A8
:103590001BD00299009A51F8271011E0700B0120FE
:1035A000F7FF010040F8010069F90100280210004E
:1035B00000DB0120A0AD0120E0A90120140B1000C8
:1035C0001143029A42F8271003E00BF101011FFAA0
:1035D00081FB04467F1C6D1C182DCFDB0CF1010C08
:1035E000761C202EBEDB5846BDE8FE8F2DE9F04F3D
:1035F0000024834622460121FE48D0F800A09AF814
:103600001450A5F1010622E003200123DFF8E8E3CE
:1036100003FA01F99AF8157016E000BF5EF820C0B1
:103620001CEA090F0FD0A0F1010300FB051C03FBEE
:1036300005183BF91CC03BF91830BCEB030300D55F
:103640005B421C44521C401C8742E7DC491C8E42F2
:10365000DADC02B9012294FBF2F018E42DE9FF4F05
:1036600085B000210391029101910091E149012B64
:103670000C6894F8725205F00F0700D10027667DA0
:1036800094F87532C7F1100BB34200D21E460023E6
:103690000493012381E000BF4FF00009C8460324D2
:1036A0001FE0D54951F824C0012199401CEA010FBF
:1036B00004FB053130F911C0A4F1010101FB053112
:1036C00030F91110ACEB010106D0002900DA4942B3
:1036D000DDF818C0A1EB0C01002900DA4942894449
:1036E000641CB442DDDB31469EF815A01FE0C24CDD
:1036F00054F821C001249C401CEA040F01FB05344E
:1037000030F914C0A1F1010404FB053430F9144070
:10371000ACEB040406D0002C00DA6442DDF818C0DB
:10372000A4EB0C04002C00DA6442A044491C8A4536
:10373000DDDC0499012910D10199B1EB090101D512
:10374000C1F10001039C214403910099B1EB0801F0
:1037500000D54942029C21440291CDE900899EF89E
:103760007612994216D11168039D79430BFB05111E
:10377000CC1701EB1471091111609168029D794316
:103780000BFB0511CC1701EB14710911916000219D
:103790000391029101215B1C04919649D1F800E04C
:1037A0009EF81450691E99423FF776AF506803990E
:1037B00078430BFB0100C11700EB11700011506042
:1037C000D068029B78430BFB0300C11700EB11701C
:1037D0000011D06009B038E430B504460020022260
:1037E000A1F101010BE000BF04EB420534F91230F6
:1037F00035F9025C5B1B00D55B421844521C8A42BF
:10380000F2DB30BD70B57B4A0020014612687B4C6C
:10381000537D0BE034F91150B2F84F64B54203DB2D
:10382000B2F85164B54200DD0120491C8B42F1DC45
:1038300070BD70B56F4C00252068417D6F480AF05F
:103840006FFE06462068017D6D480AF069FE21681A
:10385000B1F84D14814201DBB14200DA012528465E
:1038600070BD2DE9F14F6349002318460C6894F8A8
:103870004814267DC1F3C001B4F858B4B4F85AA472
:10388000A6EB010925E0657D0322DFF86CE1DFF896
:103890007481A5F1010518E05EF822C0012707FA3E
:1038A00001F71CEA070F0ED102FB061738F917C003
:1038B000A2F1010707FB061738F91770BCEB0707E1
:1038C00000D57F423B44521CD2B29542E4DC491CF5
:1038D000C9B28945D7DC00999B450B6002D253459C
:1038E00000D20120BDE8F88F7CB50D460446FFF7F5
:1038F000ECFB0090FFF7DCFB0190009804214008EE
:1039000000906846FFF7F5FA0646042101A8FFF784
:10391000F0FA304482002146284615F097FC7CBD21
:103920000B46344930B40A6804460020517D157DA9
:1039300092F8F02701F1010101FB05F112070AD409
:103940000DE000BF33F9105034F91020954201DA30
:1039500023F81020401C8842F4D330BC70474A0042
:10396000214630BC184615F071BC70B50446602184
:1039700015F00DFD00201F4B20806080196891F824
:10398000941701F0010140EA41116180A060FFF746
:1039900001FCE060FFF78CFB1B4D206168886083B1
:1039A000186800F24670C27A817A02F03F0241EA5A
:1039B0000221A1834178E17590F8491021750178C1
:1039C000A17581782176017BA1771049407B097828
:1039D00000F0F00001F00F010843E077FFF775FBFE
:1039E000E062FFF765FB2063E888A08660871868BF
:1039F0000EE0000028021000102410001008012022
:103A00004C08012080D3012028251000F6FF01007A
:103A100090F8B61184F8421090F8921784F8431089
:103A200090F8931784F8441090F8911784F8451093
:103A3000B0F85E17E186A18790F8601784F8381017
:103A400090F8611784F8391090F8621784F83E10E6
:103A500090F8631784F83F1090F8661784F84B10BD
:103A600090F84810C9070AD090F8490000F00F00FC
:103A700084F85C00608840F48060608070BD012044
:103A800084F85C0070BD10B50446FCF70BFC012CFB
:103A90000BD1FC48006890F81001800705D5FCF7B1
:103AA00032FF38B1FCF728FF04E0FCF72CFF08B91F
:103AB000FCF71BFFBDE81040FCF7F2BB0020E2E77B
:103AC000F04B10B51A68947F640704D5D28A046855
:103AD000A2EB040202601A68947FA40703D5128B3C
:103AE0000C68121B0A600268002A00DA00220260D9
:103AF0001C68E48AA24200DD224602600A68002AAD
:103B000000DA00220A601C68248BA24200DD2246F3
:103B10000A601B689B7FDB0702D003680B600260B2
:103B200010BDF0B5D74D002301242D6895F8CE5077
:103B300004FA03F635420AD031F9136030F91370F4
:103B4000F61B32F91370BE4201DD0120F0BD5B1C93
:103B5000062BEDDB0020F0BDF0B500252C46059EC0
:103B60000AE000BF31F9147030F914C0A7EB0C075C
:103B7000974200DD6D1C641C9C42F3D3B54201D317
:103B80000120F0BD0020F0BDF0B500273C465B1ED3
:103B9000DDF814C01BE000BF31F8145030F8146099
:103BA00000EB440EAD1B01EB4406BEF802E0768844
:103BB0002DB2A6EB0E0636B2002D00DC0025002E3D
:103BC00000DC00263544954200DD7F1C641C9C42CD
:103BD000E2D3674501D30120F0BD0020F0BD2DE9FF
:103BE000F047A84EDDE9089A00252C46366811E01A
:103BF000377D30F9148094FBF7FC07FB1C4731F943
:103C000014C07FB2ACEB080C944502DD574500DBD5
:103C10006D1C641C9C42EBD34D4502D30120BDE8D2
:103C2000F0870020FBE72DE9F04F964CDFF858C2F3
:103C30009B462468DDE90A759CF800C00023DDF886
:103C400024E094F89061BCF1010F01D1012D01D065
:103C500000242FE00121DFF83492DFF834A294F839
:103C600015C015E0002010E0257D01FB050539F9A0
:103C700015703AF9155005EB0208474503DAA5EB34
:103C80000B05AF4200DC5B1C401CB042ECD9491C68
:103C90008C45E7DA10E000BF31F9145030F91460B8
:103CA00005EB020C664503DAA5EB0B05AE4200DC22
:103CB0005B1C641CBC42EFDB734501D90120CCE4E2
:103CC0000020CAE42DE9F04F8A46DDE90997012575
:103CD00047F6F8714E429346AC46002417E000BF09
:103CE00030F814803AF81420A2EB080212B2914284
:103CF00000DD1146964200DA1646002A02DA4FF03D
:103D0000000502E001DD4FF0000C04F10104BC42AB
:103D1000E6DB55EA0C0206D0012D01D02DB108E0FA
:103D2000BCF1010F05D1002112E0BCF1010F00D15F
:103D30003146002905DD03EB0902B1EB420FF2DC4D
:103D400006E005DA03EB09025242B1EB420FEADB6F
:103D500000252C462A4610E030F812603AF812C0CE
:103D60000E44ACEB060636B29E4205DAC9F1000CF1
:103D7000664501DD3544641C521CBA42ECDB95FB00
:103D8000F4F20A44002105E030F8113013442BF816
:103D90001130491CB942F7DB5FE42DE9FF4F824641
:103DA000DDE90DB7012447F6FF70C5438E46264670
:103DB000002216E03EF812C03AF81210ACEB0101F6
:103DC00009B2884200DD08468D4200DA0D4600291E
:103DD00002DA4FF0000402E001DD4FF0000602F1CC
:103DE0000102BA42E6DB54EA060105D0012C01D0FB
:103DF00024B106E0012E04D1002011E0012E00D1F3
:103E00002846002805DD03EB0B01B0EB410FF3DC86
:103E100006E005DA03EB0B01490049428142EBDC85
:103E200000221446164615469146114619E000BF79
:103E30003EF811803AF811C0A8EB0C0CACEB000C6A
:103E40000FFA8CFC9C450BDACBF10008C44507DD6A
:103E500001FB014401FB0C550A44664409F10109C8
:103E6000491CB942E4DB04FB09F102FB121C05FB0F
:103E700009F102FB1618744305FB124191FBFCF596
:103E800000221DE02802100059021000140B10003F
:103E900060A2012008FB02F191FBFCF12944994248
:103EA00001DD194604E0CBF10004A14200DA21460D
:103EB0003AF8124001442144029C24F81210521C8A
:103EC000BA42E7DBBDE8FF8F30B5642407E000BFEE
:103ED00030F91350554395FBF4F521F813505B1E50
:103EE000F6D230BDF0B50646002004460546521C09
:103EF000059F09E036F911C09C4504DDA44502DDAB
:103F000064460D460120491C9142F3DB3D60F0BD43
:103F100030B50268002513460AE000BF50F825407E
:103F2000944201DD224602E09C4200DA23466D1CE9
:103F30008D42F3DBD01800EBD070401030BD30B5AF
:103F40007C4B1C68637D247D5B1C634307E000BFE2
:103F500032F8134030F81350641B21F813405B1EF5
:103F6000F6D230BD70B5734B1C68247D611A10E029
:103F7000012409E02D7D04FB0515641C30F9156052
:103F800096FBF2F620F815601D686E7DA642F1DA08
:103F9000491C1C68247D8C42EADC70BD6649012006
:103FA00008604FF47071654815F0CFB92DE9F04104
:103FB000064615460F46302801D1FFF7EFFF5E4C4D
:103FC00020682844401CB0F5707F01D2206801E0D1
:103FD00001202060594908700E542DB10844401C3E
:103FE0002A46394615F032F920682844401C2060E2
:103FF000BDE8F08170B54F48006890F80513CA0716
:104000004F491DD090F8062302F00F02531C0A2BD3
:1040100001D90A2200E0521C00F2073500234C8827
:1040200005E000BF35F81360B4420CD05B1C93422E
:10403000F8DBB0F84E274A80B0F819230A8002E076
:10404000B0F84E274A80B0F85C07C880088170BD80
:1040500003004FF0000006D00B785B1E13F0FF0347
:104060000B7001D101200A70704730B50446002062
:10407000034605E034F913508D4200DD401C5B1C03
:104080009342F7DB30BD30B504460020034605E01F
:1040900034F913508D4200DA401C5B1C9342F7DB6D
:1040A00030BD30B5234B044600201B68024693F810
:1040B000463703F00F03072B02D947F6FF730DE0D5
:1040C0005B1CC3EB03331BB208E000BF34F9125092
:1040D0009D4200D00DB9401C80B2521C8A42F5DBD3
:1040E00030BD18481849007808707047012804D17D
:1040F000154814490078401C08707047F0B50D4E03
:104100003468657D247D6D1C65430FE037683F7D15
:1041100094FBF7FC07FB1C477FB2BA4205DCBB42AD
:1041200003DB30F8147021F81470641CAC42EDDB32
:10413000F0BD0000280210002C021000AC0001208D
:1041400028251000DFFF01006B02100010B50146AA
:104150002022F94815F0BFF8BDE810404FF4006187
:104160000120FCF799B970B59AB006460D46144681
:104170006846FFF7FAFBF1480078012808D0F048BC
:104180000078072801D0062802D1684603F0A9FA72
:10419000E00702D00120ADF80000600608D5E9492B
:1041A00000200870BDF8000040F48060ADF8000009
:1041B000200605D5BDF8000040F48050ADF80000A1
:1041C000600705D5BDF8000040F00600ADF800001E
:1041D000ADF81A60ADF83A50ADF83450AFF2930034
:1041E000D54D03244FF4006602906846FDF7F2FABD
:1041F00018AB002231460120FCF79EF93146012020
:10420000FCF779F92878002804D0FEF7E4FA641E58
:10421000002CEADC1AB070BD2DE9F041CA4A002535
:10422000294612682C46430504D592F86D124024A5
:104230004FEA111110F4D17F05D092F86D1244F0BD
:1042400004044FEA111110F0050F05D092F86C32FA
:1042500044F001044FEA1315C00604D592F86C022D
:1042600044F0020405098D4200DA0D466D1C002C55
:104270000AD00026B54F05E0F98878882246FFF776
:1042800072FF761CAE42F7DBBDE8F0812DE9F04706
:104290008246AD480068457D017D90F86C026D1C3A
:1042A00000F00F074D437F1C4FF48851A84815F0CC
:1042B0006EF80024DFF89482DFF87C92A44E18E0B8
:1042C000B8F8061001225046FFF74DFFA149D9F872
:1042D000040003F0DEF89F49002007E056F8202094
:1042E00031F910301A4446F82020401CA842F5DB72
:1042F000641CBC42E4DBBDE8F0872DE9F35FDFF826
:1043000048920D46D9F80000447D017D90F86C027A
:10431000641C00F00F074C437F1C4FF488518C48FD
:1043200015F035F80026DFF82882DFF820A2DFF844
:1043300008B21AE0BAF8061001220098FFF713FF3E
:104340008449DBF8040003F0A4F8824A00204146C7
:1043500008E000BF51F8203032F910C0634441F842
:104360002030401CA042F5DB761CBE42E2DBD9F8CF
:1043700000004B4690F86C0200F00F017048491C99
:104380000078072804D0062802D0002042462AE000
:104390000020424607E000BF52F8206096FBF1F68D
:1043A00025F81060401C1E68367D06EB46068642E6
:1043B000F2D8D9F80030587D1B7D401E584306E0E6
:1043C00052F8203093FBF1F325F81030401CA04246
:1043D000F6DBBDE8FC9F00BF52F8203093FBF1F301
:1043E00025F81030401CA042F6DBF2E72DE9FC472F
:1043F000FEF76BFE0090FEF793FE019004216846E5
:10440000FEF777FD0446042101A8FEF772FD4E4E2B
:10441000204444003068A10090F86D0200F00F07BE
:104420007F1C4B4814F0B3FF0025DFF80CA1DFF828
:104430002091B04621E045484022C1884088FFF7DE
:1044400092FED8F80010DAF8146091F89417C907B2
:1044500005D032463046DAF8101002F096FC002003
:10446000494607E051F8202036F910301A4441F847
:104470002020401CA042F5DB6D1CBD42DBDBD8F8E0
:104480000000334E454690F86D024B4600F00F0297
:10449000521C002107E000BF53F8210090FBF2F00E
:1044A00026F81100491CA142F6DB2B493046FEF7E5
:1044B00012FE2A493046FEF734FE28684FF0000607
:1044C00090F8C10240061ED525480024068013E05E
:1044D000407D24494200604301EB40001E4914F036
:1044E000B5FE28682049007D4200604301EB400092
:1044F0001A4914F0ABFE641C286890F8BE12C1F390
:104500000111A142E4DC286890F86912890710D5EE
:10451000164C2660417D1048FFF75EF9216808447B
:1045200020602868017D0D48FFF756F9216808448E
:104530002060BDE8FC870000BC4C10009303100015
:10454000AC021000410210002802100028251000C3
:1045500010131000140B10006C040120A80401209B
:104560003202100008090120BC090120EC031000F0
:104570002DE9FC47FEF7A9FD0090FEF7D1FD019063
:1045800004216846FEF7B5FC0446042101A8FEF7A5
:10459000B0FC924E204444003068A10090F86D02B7
:1045A00000F00F077F1C8E4814F0F1FE0025DFF8A5
:1045B00034A2DFF82C82B14621E08B488022C188EA
:1045C0004088FFF7D0FDD9F80010DAF8186091F8AC
:1045D0009417C90705D032463046DAF8101002F0B9
:1045E000D4FB0020414607E051F8202036F9103076
:1045F0001A4441F82020401CA042F5DB6D1CBD424E
:10460000DBDBD9F80000764D434690F86D0200F0F0
:104610000F00401C002106E053F8212092FBF0F22D
:1046200025F81120491CA142F6DB70492846FEF707
:1046300052FD6F492846FEF774FD6E49012008704F
:1046400077E770B504460020FCF717F80320FCF765
:1046500014F8624D286890F86912C90701D124F452
:10466000006490F8B811C90701D124F0620490F8F1
:104670000513490701D424F0040490F8CE1009B9B9
:1046800024F0100490F81A04C00701D124F48054D7
:1046900059490020401C8842FCD3200502D5204601
:1046A000FFF7BAFDE00743D04F4854494088FFF771
:1046B00024FE286890F8690280070AD54F48FEF763
:1046C00095FF4F4901234F4A086001464B48FEF7CA
:1046D000C5FF28684C4A90F84C1051B14B490978F5
:1046E000962906D14949491C0978A52901D10021FB
:1046F000117090F84814CB071AD01278C2B18A070B
:1047000013D490F8CC2052070FD490F869241206E5
:104710000BD490F87024120607D40A0605D4490673
:1047200003D490F85704C00702D0204602F059F88D
:10473000600501D5FFF75AFEE00401D5FFF718FF29
:1047400033490120087003F01CFD0020FBF7B0FF87
:10475000BDE870400320FBF7ABBF2DE9F0412D48C9
:1047600001242D4E0470002535602C496006C1F8E7
:10477000FC01C8672A4F052038724FF44870FBF7D8
:1047800097FD254844380560FF2139703460046086
:104790007AE52149002030B44439086020490831C5
:1047A0000A791E4B4FF00074FC331C60C2F1FB020F
:1047B0000978D2B2491CB2FBF1F1144A14321170DB
:1047C000144A1070114A55201232107015480170A9
:1047D000211330BC0120FBF78EBE00002802100020
:1047E00010131000BC4C10002825100048B4012004
:1047F00084B401207802100020A1070060A20120EB
:1048000090021000882410006A021000E0FF0100EE
:1048100040021000BE0210004805002284E000E0C3
:104820002E000020C1021000F0B5F14900204D68B3
:10483000F0490A68537D117D5B1C01FB03F41CE009
:1048400035F91130002B02DC40F0200014E040F676
:10485000FF76B34202DB40F010000DE0B2F8B5760F
:10486000B2F8446007EB060C9C4505DABF1B9F427B
:1048700002DD0EB140F04000491C8C42E0DCF0BD8E
:1048800010B501462022DA4814F025FD8021BDE84C
:1048900010400120FBF700BE30B599B004466846D1
:1048A000FFF763F8012C07D10120ADF800000020CC
:1048B0008DF816008DF81400BDF80200AFF23F012C
:1048C00040F48670CA4D0291ADF802000324684698
:1048D000FCF780FF18AB002280210120FBF72CFEA3
:1048E00080210120FBF707FE2878002804D0FDF77F
:1048F00072FF641E002CEADC19B030BD2DE9FF5FA9
:1049000000200090FEF746FC0446FEF749FC0746EF
:104910004FEA540B4FF4F061B74814F016FDB44859
:104920004FF018098021203014F031FD0020029052
:104930000120FFF7B1FFAE48D0F804A0AD480068F1
:10494000047D01200025039072E0012000FA05F1AA
:1049500011EA0B0F6BD00026012000FA06F818EAC6
:10496000070F59D0A248203050F8250010EA080F50
:1049700051D131462846FEF7DDF901909D483AF9BC
:1049800014200068B0F8B506824238DC9A4931F943
:104990001430191AA2EB000000D54942002800DAB1
:1049A0004042814215DC01983146401EC0B20246A9
:1049B00001902846FEF75DFC8F483AF9141030F953
:1049C0001400401A01D5C0F100000099084400907D
:1049D00008E08949981A00D54042009B184400908D
:1049E00021F814208548019920F8141080482030BF
:1049F00050F8251041EA080140F825100BE0019815
:104A00003146401CC2B22846FEF733FC7A483AF8D9
:104A1000141020F81410641C761C202E9CDB7448A3
:104A2000203050F82500B84201D0002003906D1CC2
:104A30004D458ADB039838B9FDF783F90298401C8D
:104A400002904028FFF674AF6A484FF0010A002533
:104A50000068067D1DE0012000FA05F212EA0B0F46
:104A600016D000240120A04038420ED063482146D1
:104A700010F81600804602462846FEF7FAFBB8F109
:104A80003F0F01D34FF0000A761C641C202CE9DB99
:104A90006D1C4D45DFDBBAF1000F02D10320FDF79D
:104AA000BDFEFDF74EF90120FFF7F6FEFFF7BCFE55
:104AB000044650480268107D517D48430099B1FB7F
:104AC000F0F192F8460700F00F0000FB011000B271
:104AD000FEF721FC04B02046BDE8F09F2DE9F05F11
:104AE000444A116891F81007C4074548037803F059
:104AF000F00514D0057000264B7D0C7DDFF8F0A08A
:104B00005B1CB046914604FB03F783460120FFF788
:104B1000C3FE2046DAF80420D9F800100DE091F821
:104B2000BF1601F00F0129430170D5E732F91030AB
:104B3000B1F8B3C66345CFDB401C8742F6DC0F2ECD
:104B40000AD2761CF6B245EA060108F101088BF894
:104B50000010B8F1100FD9DBBDE8F05F0220FDF7BF
:104B60005DBE70B501244FF404614FF4F83014F0C9
:104B70000EFCFDF7E6F8FFF7B1FFFFF7BFFE44EAD2
:104B800000651C4C1E482268401D017892F8FB27E6
:104B900001F0F00102F00F02114301701948FEF715
:104BA000CDFC284603F0C9FC206890F8A001C0079E
:104BB00002D0012000F0C0FC206890F81A04C00761
:104BC00004D0BDE87040022000F0B6BCBDE87040E3
:104BD000422003F0B2BC02461821012000FA01F382
:104BE000134201D1491EF9D5491C88401043704732
:104BF000DC4C10002802100080D3012000DB0120D3
:104C0000F6FF0100102410002DE9F04FFC4DFD4986
:104C10000020D5F814906E680B6804460246012106
:104C200040F6FF7B01FA02F737421BD039F914A096
:104C3000BAF1000F02DC40F0200012E0DA4502DB9E
:104C400040F010000DE0B3F8B7E6B3F8C2760EEB13
:104C50000708D04503DBAEEB070CD44501DD40F07F
:104C60004000641C521C202ADCD30024AF68D5F815
:104C70001860224601FA02F53D421AD036F9145066
:104C8000002D02DC40F0200012E05D4502DB40F028
:104C900010000DE0B3F8C486B3F8BBC6C146E044CB
:104CA000A84503DBACEB090CAC4501DD40F040004E
:104CB000641C521C202ADDD3BDE8F08F10B50146DC
:104CC0002022D14814F007FB8021BDE810400120CC
:104CD000FBF7E2BB30B599B004466846FEF745FEE7
:104CE0002078012802D0022807D102E04FF480602A
:104CF00001E04FF48050ADF8000000208DF8440032
:104D00008DF84300BE48416849000B9180680C90C3
:104D1000BDF80200AFF25B0140F48670BA4D02911B
:104D2000ADF8020003246846FCF754FD18AB0022DE
:104D300080210120FBF700FC80210120FBF7DBFB39
:104D40002878002804D0FDF746FD641E002CEADC1C
:104D500019B030BD2DE9FE4F0446AC480190AC4877
:104D600000902121206A14F0F0FA3021606A14F0DA
:104D7000ECFA2046FDF758FB2046FDF750F80420DA
:104D8000029003253C21019814F0DFFA3C210098A1
:104D900014F0DBFADFF86882DFF868A24FF0000950
:104DA0002046FFF797FFE8072CD04FF0000B5F4637
:104DB0005E460120D8F80410B04008421AD03046B0
:104DC000216AFEF78FFBD8F8141031F91720DAF8B2
:104DD0000010B1F8C6168A420BDA02994FF0010BA7
:104DE0000844C1B23F2900D93F213046226AFEF76C
:104DF0008CFB7F1C761C202EDBD3BBF1000F01D176
:104E000025F00105A8072CD54FF0000B5F465E4644
:104E10000120D8F80810B04008421AD03046616A24
:104E2000FEF760FBD8F8181031F91720DAF80010F7
:104E3000B1F8C8168A420BDA02994FF0010B084408
:104E4000C1B23F2900D93F213046626AFEF75DFBBF
:104E50007F1C761C202EDBD3BBF1000F01D125F087
:104E6000020555B12046FDF7DFFA2046FCF7D7FFD3
:104E700009F10109B9F1640F92DB03254FF0000934
:104E80002046FFF727FFE80744D04FF0000B5E46AF
:104E90005F460120D8F80410B840084232D03846A6
:104EA000216AFEF71FFBD8F8141031F91630DAF832
:104EB0000010B1F8C626934210DD78B1401EC1B291
:104EC0004FF0010B3846226AFEF71FFBD8F814009A
:104ED00030F81610019820F8161012E0019931F9F7
:104EE0001610891AA3EB020200D54942002A00DA03
:104EF0005242914205DC401CC1B23846226AFEF79C
:104F000004FB761C7F1C202FC3D3BBF1000F01D103
:104F100025F00105A80744D54FF0000B5E465F461B
:104F20000120D8F80810B840084232D03846616AEB
:104F3000FEF7D8FAD8F8181031F91630DAF8001060
:104F4000B1F8C826934210DD78B1401EC1B24FF0CF
:104F5000010B3846626AFEF7D8FAD8F8180030F824
:104F60001610009820F8161012E0009931F916106A
:104F7000891AA3EB020200D54942002A00DA524204
:104F8000914205DC401CC1B23846626AFEF7BDFAA8
:104F9000761C7F1C202FC3D3BBF1000F01D125F05D
:104FA0000205002D0BD02046FDF73EFA2046FCF707
:104FB00036FF09F10109B9F1640FFFF661AFBDE8F1
:104FC000FE8F2DE9F04106460020F169087021218D
:104FD000306A14F0BAF93021706A14F0B6F930462C
:104FE000FCF71DFF3046FDF71FFA054D0027304640
:104FF000FFF770FED5E904320024204610E00000DF
:10500000E4021000280210007C4D10008C080120E2
:10501000C808012032F91010A14200DD0C46401CE6
:105020009842F7DB0020EB68AA6905E032F910101E
:10503000A14200DD0C46401C9842F7DB002C0BDC43
:10504000F06901780F2904D8491C01703046FDF73A
:10505000EBF97F1C202FCADB40F6FE70844208DD8E
:10506000F1690878401E08703046BDE8F041FDF750
:10507000DBB9BDE8F0812DE9F0434168FE4DD0F881
:1050800014C091F800808168D5F8047091F8009000
:1050900000210A460C46012303FA04F63E4204D0DE
:1050A0001CF804608E4200D93146641C202CF3D3D6
:1050B0008669D5F808C0002403FA04F717EA0C0F34
:1050C00003D0375D974200D93A46641C202CF3D3B5
:1050D000C36801EB0804FF26197003691A7002EB1C
:1050E00009039C420DD21B1B1944FF291BD9C1681F
:1050F0000E70296841F08001296000690270BDE8E6
:10510000F083A3420FD2E31A1A44FF2A02D803699C
:105110001A7005E0026916702A6842F080022A605F
:10512000C0680170EBE7C3681970E6E72DE9F0414C
:10513000044600214569D048D04B01224FEA010CBA
:10514000476802FA01F63E420AD01F686E5C97F883
:10515000CB76BE4202D9F61B6E5401E005F801C0C1
:10516000491C2029ECD3D4F818500021876802FA92
:1051700001F63E420AD01F686E5C97F8CB76BE42BD
:1051800002D9F61B6E5401E005F801C0491C202924
:10519000ECD32046FFF76FFF2046BDE8F041FCF757
:1051A00085BE2DE9F14F2C210098D0E905653046E8
:1051B00014F0CBF84021284614F0C7F80098FFF708
:1051C0005AFF0098FDF730F90098FCF76FFE0324B2
:1051D0004FF0040A00270098FFF77CFDA00750D08D
:1051E000A5494FF0000C8946D1F814B062466046DC
:1051F0005FF00101D9F8048001FA00F313EA080F07
:1052000010D09E4B3BF912801B68B3F8B936984515
:1052100007DA335C4FF0010C5344FF2B00DDFF2312
:105220003354521C401C2028E4D3BCF1000F01D1A0
:1052300024F001040023CE46D9F81890DFF83CC2D0
:105240001A4618468B4600BFDEF808800BFA00F1BC
:1052500011EA080F0FD0DCF8008039F91210B8F805
:10526000BD86414506DA295C01235144FF2900DD52
:10527000FF212954521C401C2028E5D30BB924F0EF
:1052800002045CB10098FFF7F6FE0098FDF7CCF839
:105290000098FCF70BFE7F1C642F9CDB0324002787
:1052A0000098FFF717FDE00725D0734A0023DFF8C9
:1052B000CCB1D2F814C01946184691464FF0010AF5
:1052C000D9F804800AFA00F212EA080F0DD0DBF8D0
:1052D00000203CF91180B2F8B926904504DD325C1B
:1052E00012B10123521E3254491C401C2028E7D31E
:1052F0000BB924F00104A00725D55F4A0023DFF88D
:105300007CB1D2F818C01946184691464FF0010AF0
:10531000D9F808800AFA00F212EA080F0DD0DBF87B
:1053200000203CF91180B2F8BD26904504DD2A5CCE
:1053300012B10123521E2A54491C401C2028E7D3D5
:105340000BB924F00204002C0BD00098FFF793FE59
:105350000098FDF769F80098FCF7A8FD7F1C642F02
:105360009EDBBDE8F88F70B4444B00210C461E68EC
:1053700096F8102792070BD5426896F8CA66012165
:105380001578B54203D9A5EB0605157000E0147039
:105390001D6895F8102752070BD5826895F8CA56F4
:1053A00041F002011378AB4202D95B1B137000E09D
:1053B0001470002901D070BC5DE670BC70472DE907
:1053C000F0472E4E0446002530682F4690F81017FF
:1053D000890703D560680125077008E02178012955
:1053E00001D0022903D1616890F8C00608703068C6
:1053F00090F81017490704D5A06845F0020507701A
:1054000008E02178012901D0022903D1A16890F890
:10541000C1060870002D73D02C21606913F095FF30
:105420004021A06913F091FFE06921210770206AF3
:1054300013F08BFF3021606A13F087FFE168FF20D3
:105440000870216908702046FCF730FD2046FCF703
:10545000E6FC2046FCF7E8FF4FF01009DFF8188063
:10546000CA4600272046FFF735FCE8072AD0D8E9CE
:1054700004C30020014609E0E402100028021000E5
:1054800033F91120824200DD1046491C6145F7DBEB
:105490003168B1F8B726824206DA61684FF0010937
:1054A0000878401E08700DE0B1F8CC16814207DB89
:1054B000616808784844FF2800DDFF20087001E09B
:1054C00025F00105A8072AD500200146D8F80CC010
:1054D000D8F8183006E000BF33F91120824200DD11
:1054E0001046491C6145F7DB3168B1F8BB268242A2
:1054F00007DAA0684FF0010A0178491E01700EE03A
:1055000018E0B1F8CC16814207DBA1680878504456
:10551000FF2800DDFF20087001E025F00205002DC6
:1055200008D02046FFF7A7FD2046FCF77DFF7F1C33
:10553000202F97DBBDE8F087F0B5414D8BB00121FE
:1055400029708DF800006846FDF733FE3D4C0026BB
:105550002660FDF7BAFD6060FDF7E2FDA0606068BF
:10556000042140086060201DFDF7C3FC2061042178
:1055700004F10800FDF7BDFCE0606846FFF7AAFBF8
:105580009DF800103048012902D0022905D101E020
:10559000406900E080696061A061D4E9040101EB29
:1055A00040016161E16801EB4000A16901EB40004D
:1055B000A0616846FFF703FF6846FFF7D4FE234F5C
:1055C000386890F81007800605D56846FFF7E9FDB2
:1055D0006846FFF7ABFD386890F81007000702D562
:1055E0006846FFF7EEFC386890F81007C00602D551
:1055F0006846FFF7AFFB6846FCF716FF6846FFF703
:1056000069FBFFF701FB21680143216010483A68FC
:10561000037892F8FB2763F3030202709DF8000001
:10562000012802D0022807D102E041F00E0001E07B
:1056300041F0020002F081FF2E700BB0F0BD0000BF
:1056400069021000E40210007C4D100028021000D6
:10565000FBFF010010B501462022A34813F03BFEDA
:105660008021BDE810400120FAF716BFF0B59F4D2C
:1056700006460C4628684FF0FF3199B090F8C302F7
:1056800000F00F00401C8140CF436846FEF76DF9E3
:105690000120ADF80000ADF80240286800F2FB20C0
:1056A00001788DF8171044F00501ADF8021003974A
:1056B000ADF81A60AFF26301029141788DF81810CD
:1056C0008078894D8DF81E0003246846FCF782F827
:1056D00018AB002280210120FAF72EFF8021012043
:1056E000FAF709FF2878002804D0FDF774F8641E43
:1056F000002CEADC19B0F0BD2DE9FC5FDFF8ECB15D
:105700004FF0000AD146DBF80000564600F2FF20B9
:10571000017890F80180807801904FF00850D0F81F
:105720008C0100B9012600208CB2009038E000BF47
:10573000DBF8000090F8020300EB80004700002532
:1057400024E020460099FFF791FF674840680CF07D
:1057500038FA0146DBF8000090F8FA2212F00F0048
:1057600000D1012012094A43B2FBF0F01FFA80F980
:10577000012E09D1BAF5707F06D25D4A0AF1010007
:1057800022F81A901FFA80FA6D1CADB2BD42D8D92A
:105790004A462146302002F013FF0198204484B28B
:1057A0004445C5DDBDE8FC9F2DE9FF5F4FF6FF7660
:1057B0004FF0000A93460F46804634465546DFF8C0
:1057C0002C911BE038F815005146FFF74FFF464873
:1057D00040680CF0F6F9D9F8001091F8FA2212F0AE
:1057E0000F0100D1012112094243B2FBF1F080B256
:1057F000A04202D238F8156004466D1CBD42E1DBC0
:10580000ABF8006003980480BDE8FF9F2DE9F041EC
:10581000364E05468846306888B090F8062302F078
:105820000F01C2F30214491C641C0A2900DD0A217D
:10583000022C00DD022400F2073006AB05AAFFF7B8
:10584000B3FF326892F8050300061CD5BDF814605A
:105850000121ADF8006002F5477200204FF4803C52
:105860006F4607E013563344634502D227F81130E0
:10587000491C401CA042F5DB002904DD06AB05AA4B
:105880003846FFF791FFBDF814002880BDF81810C6
:10589000A8F8001008B0BDE8F0817CB50020FAF748
:1058A000ECFE144C01A968466588FFF7AFFF0F486E
:1058B0000068B0F81913BDF80400814201D92180B5
:1058C00000E02080BDF8000060800020FAF7F0FEC4
:1058D00009490120087009490870BDF800202946CF
:1058E000092002F050FE7CBD9C4D100028021000E3
:1058F00000DB01202825100040021000B702100034
:10590000FDF7D6BB10B5FDF7C5FB4008400010BD44
:105910007CB54FF4F83040F6FB7113F016FDFCF740
:105920000BFBFCF7D2FAFCF70CFAFF4C00202070BE
:1059300020636063A063E06320646064A064E0644B
:1059400020656065A065E0656060E061206260627E
:10595000A062E062FFF7D6FF0090FDF7A9FB01907F
:1059600004216846FDF7C5FA0546042101A8FDF7A4
:10597000C0FA014600EB4500C4E90305C4E905513E
:105980007CBD2DE9F041174604460D46002609E08E
:10599000E00703D03146384602F02DFD761C6D0835
:1059A0004FEA340454EA0500F2D1BDE8F08130B585
:1059B000034600204FF0FF325FF0010505FA00F4C6
:1059C0000C4202D0521C9A4203D0401C2028F5D32E
:1059D000002030BD70B50E46012505FA06F2D24C06
:1059E00012286DD2DFE800F06C485109126C6C1B74
:1059F000242D363F5A5E626C6C6B3046216EFFF789
:105A0000D6FF8540606B0543656359E03046616EA3
:105A1000FFF7CDFF8540E06C0543E56450E030467C
:105A2000216EFFF7C4FF8540A06B0543A56347E0E7
:105A30003046216EFFF7BBFF8540E06B0543E56311
:105A40003EE03046616EFFF7B2FF8540606D054372
:105A5000656535E03046216EFFF7A9FF8540206C73
:105A6000054325642CE03046616EFFF7A0FF8540BA
:105A7000A06D0543A56523E03046216EFFF797FF33
:105A80008540206B054325631AE03046616EFFF7C1
:105A90008EFF8540A06C0543A56411E0606C024355
:105AA00062640DE0E06D0243E26509E03046616E3C
:105AB000FFF77DFF8540206D0543256500E02570DB
:105AC0006068401C606070BD10B501462022974898
:105AD00013F001FC8021BDE810400120FAF7DCBC86
