:100000000010002001620308458D0008598D00088A
:100010006D8D0008818D0008958D0008000000009E
:10002000000000000000000000000000A98D000892
:10003000BD8D0008000000005D570008A76B010897
:1000400065630308696303086D630308F36B0108C4
:10005000716303082D9F0008319500082797000859
:100060004F980008499900087563030879630308ED
:100070007D630308816303088563030889630308BC
:10008000419A0008699B00088D6303089163030887
:1000900095630308996303089D630308E59C0008C2
:1000A000A1630308A5630308A9630308AD630308FC
:1000B000B1630308B5630308B9630308BD630308AC
:1000C000C1630308C5630308C9630308D58D00082D
:1000D000CD630308D1630308D5630308D96303081C
:1000E0004D9C0008219E0008DD630308E1630308BE
:1000F000E5630308E9630308ED630308F16303089C
:10010000F5630308F9630308FD630308016403084A
:1001100005640308096403080D64030811640308F7
:1001200015640308196403081D64030821640308A7
:1001300025640308296403082D6403083164030857
:1001400035640308396403083D6403084164030807
:1001500045640308496403084D64030851640308B7
:1001600055640308596403085D6403086164030867
:1001700065640308696403086D6403087164030817
:100180007564030879640308DFF8440C007870474D
:100190002DE9F04798B002F00BFD0446DFF8340C6F
:1001A000856BDFF8346C376826E098F81910D8F8BA
:1001B0001000D8F804208018D7F820215269904701
:1001C000002802D0384602F031FE00213846D9F826
:1001D000042092699047022802D1012088F8160075
:1001E00001213846D9F8042092699047022802D1AB
:1001F000384602F011FF3F68B74242D097F9080035
:100200001A28F8D01B28F6D00728F4D00B2807DBD3
:100210000E2805D00F2803D0102801D01828EAD1C5
:100220000628E8D007F10808D8F84800002804D5C7
:10023000D4F880100818C8F8480007F590794FF0F6
:10024000FF313846D9F80420926990478246BAF1C6
:10025000010F05D198F84C00D7F82011096988479B
:10026000BAF1020FB1D197F9080001289DD1687A3F
:1002700000289AD0A87F012897D1384602F0D6FDF1
:10028000A3E7D4E91C01002901D100280CD00A20E1
:100290008DF8020002208DF80000D4F88000ADF83F
:1002A000580000A803F08AFB012018B0BDE8F087D1
:1002B00030B585B004460D46CA208DF80000288868
:1002C000ADF801000220ADF80300BDF80100001DEB
:1002D00003F0CAFCCDF8090002220DF1030103F07E
:1002E000EBFC02222946DDF80900801C03F0E4FC47
:1002F0002A882146DDF80900001D03F0DDFC0020FE
:10030000288000A9DFF8D40A03F0F4FC05B030BD62
:1003100042F23411081A322801DA01207047002015
:10032000704780B503F027FD407B002804D002F021
:100330004BFCDFF8AC1A086001BD80B502F044FC4C
:10034000DFF8A01A086001BD80B502F046FCDFF8B6
:10035000982AC2E9000101BDDFF8880A00687047E9
:10036000DFF8842AD2E90001704770B582B00446F4
:100370000020009004F10C05FFF7EEFFE96F401A32
:100380000090E96AC968DFF8642A511808180090DB
:10039000687DAB7DEE68E4686968891B994205D188
:1003A000042200A9001903F087FC73BD042200A9F0
:1003B00034191B19C01803F07FFC73BD0EB4F0B5DF
:1003C00082B0044600200090054604F19006307A81
:1003D000012830D104F10807386C01280ADBB8681D
:1003E000B97E884208D0386BC0684FF47A714843B0
:1003F000009001E00120009094F908000C2801D041
:1004000011280CD1099AD4E92401101ADFF8DC195B
:100410000818009001460FF27C1003F017FD2846E3
:10042000C4F814017822014604F19C0004F020FA7B
:10043000284630728FE094F908000C2801D011286A
:100440001FD1099AD4E92401101A0090099829466D
:10045000D4E92423994209D801D3904206D26420DA
:10046000009001460FF2441003F0F0FC0098DFF812
:100470007C190818009001460FF2441003F0E6FCC6
:100480002FE007AA10685168D4E9242300F0C2F8CD
:10049000009004F10807386B90ED030A00980028DB
:1004A00012D0DDED000AF8EE600AB8EEC01ADFEDFA
:1004B000721A21EE211AF7EE081A21EE211AB4EE73
:1004C000601AF1EE10FA0CD510EE102A01460FF268
:1004D000001003F0BBFC386BC0684FF47A714843DE
:1004E000009094F908000C282CD011282AD0D4F8B8
:1004F0001401411CC4F8141104EB80000099C0F8E9
:100500009C10284605E004EB8001D1F89C104D19A1
:10051000401CD4F814118842F5DBB5FBF1F00090D3
:10052000D4F814011E280DDB1D20C4F8140100208E
:1005300006E004EB8001D1F8A020C1F89C20401C0B
:100540001D28F6DB04F58A700179012903D1002109
:1005500001715020009004F10807042200A9787E60
:100560003B697D685B19C01803F0A6FB94F908008D
:100570000C2801D0112804D109980021C4E92401D4
:1005800004E007A802684368C4E92423F3BC5DF8CB
:1005900010FB000046697273742054696D65206415
:1005A000696666203D2025640000000054696D6581
:1005B0005F646966665F6F766572203D2025640022
:1005C00054696D655F64696666203D20256400009E
:1005D0004354535F54696D655F53657474696E6706
:1005E00020256420256400000020DFF8E8178A68D1
:1005F000D26A92680969C96A8968002903D4012A04
:1006000002DB8A4200DA0120002801D00220704774
:100610000420704738B52DED028B04460D46104678
:100620001946A94205D801D3A04202D29FED138AF0
:1006300001E09FED138A04F025F900EE100A30EE78
:10064000088A2046294604F01DF900EE100A38EE0B
:10065000400ABCEEC00ADFF89817B8EEC00AD1ED28
:10066000010A20EE200ABCEEC00A10EE100A086053
:10067000BDEC028B32BD000000007A4400008046D1
:100680000000000030B41488651C158005256554F1
:100690001488651C1580635413885C1C1480007AD0
:1006A000585430BC704732B515461C4621884A1C48
:1006B000228037224A5521884A1C2280007A4855D8
:1006C000022200A92088401903F0F6FA2088801C35
:1006D000208031BD2DE9F041054616461F4605F143
:1006E0000808069CA4B298F81A0004FB00F2D8F897
:1006F000040009183888801903F0DEFA388898F861
:100700001A10614311FA80F038803888FFF700FE34
:10071000002803D039463046FFF7CAFD95F9080096
:1007200016280AD1D8F81000D8F80410415C0FF24E
:100730001000BDE8F04103F089BBBDE8F081000086
:100740002323205368616B652025640030B400F1D9
:1007500010039B7C914203D1006990FBF3F00DE004
:100760000C46154603D2281B90FBF3F006E0006907
:10077000001B90FBF3F095FBF3F1081830BC7047B9
:1007800000F110018A688B7CD2188A60006982426D
:1007900001D10020886000208873704770B582B056
:1007A00004460D461E4692B289B2FFF7CFFF80B2D3
:1007B0000090069B324629462046FFF78BFF73BD0B
:1007C000F8B5044615461E462269002D00D115468F
:1007D000069F0097FFF7E2FF2069854206DA00973F
:1007E00033462A4600212046FFF7D8FFF1BD2DE908
:1007F000F04184B004460F469046A1696069002824
:1008000017D500250A4692B289B22046FFF79EFF0F
:10081000064643463A46314689B22046FFF743FF33
:10082000A269CDF800803B4611462046FFF7C8FF7D
:1008300036E0814218DA01250A4692B2014689B2B1
:100840002046FFF783FF064643463A46314689B2C3
:100850002046FFF728FFCDF800803B46A26961697A
:100860002046FFF7ADFF1BE00225884201D101269B
:1008700007E00A4692B2014689B22046FFF766FFBA
:10088000064643463A46314689B22046FFF70BFFFB
:10089000CDF800803B46A26961692046FFF77EFFE4
:1008A000A06B80680290A0690190606900902B465F
:1008B000324694F908100FF20C0003F0C7FABDE8B5
:1008C000FF8100005061636B203D2564202564207A
:1008D000256420256420256420256400F8B504469D
:1008E0000D46164604F10807386C012811DAB87D68
:1008F000012829D133462A4601212046FFF7D3FE9D
:100900000120009033462A4639692046FFF7E2FE6F
:100910001AE0B868B97E884216D03A69F9689142FF
:1009200006D092B289B22046FFF710FF022806D205
:10093000F8683969884207D1786C012804DA3246B0
:1009400029462046FFF753FF012332462946204619
:10095000FFF798FE0020F86038613B6C7A6C94F9E0
:1009600008100FF20C0003F071FA386C7864F1BDD6
:10097000666C75736820256420256420256400005A
:1009800008B42DE9F04382B005460F46164602F042
:100990000FF9814603F0EFF9804605F10804A07DC8
:1009A000002816D009A883B069460CC80CC10CC831
:1009B0000CC10EBC2846FFF701FD95F908000C2874
:1009C00007D1012085F81901D5F81C01401CC5F894
:1009D0001C01206C0128C0F2EB8098F80E00002862
:1009E00049D0A07D002800F02A81606CD9F88010E1
:1009F000401A6064A07E2169E268531A834205D0E0
:100A0000002A34D1A268511A814230D195F90820C8
:100A1000217E0FF2342003F019FA217E00291FD025
:100A200095F908200FF2382003F010FA2069A17E12
:100A3000421892B2E16889B22846FFF787FE334632
:100A40003A46014689B22846FFF72DFE00963B46FE
:100A50002069A17E4218E1682846FFF7B1FE06E052
:100A60004FF0FF30E060FFF777FCC5F888002846BC
:100A7000FFF786FEE3E098F80E00002840F0DF80E4
:100A8000606CD9F88010401A6064E16811F1010FC0
:100A900010D1A07D002802D02846FFF771FE28461D
:100AA000FFF763FC324639462846FFF7A0FE20696F
:100AB000E060C4E001285ADA206C6064206BD0F852
:100AC0000C8095F908308268216C0FF2B01003F0A9
:100AD000BDF995F908000C282DD0A068A17E90FBE7
:100AE000F1F0216C91FBF8F1814202DB4FF0FF3015
:100AF000E060A06CA17D00290AD0002834D42846EB
:100B0000FFF73EFE324639462846FFF770FE2BE0DF
:100B1000002829D409A883B069460CC80CC10CC8A8
:100B20000CC10EBC2846FFF749FC32463946284620
:100B3000FFF75DFE18E095F81901012814D1D5F8EA
:100B40001C01A168A27E91FBF2F1884202D14FF014
:100B5000FF30E060324639462846FFF748FE002065
:100B6000C5F81C0185F819012069E06067E095F976
:100B700008000C2815D1D5F81C01A168A27E91FBB4
:100B8000F2F188420DD14FF0FF30E0603246394635
:100B90002846FFF72CFE0020C5F81C0185F8190136
:100BA0004DE0A07D00284AD02846FFF7E9FD46E049
:100BB000A07D002843D095F9080098F80A10002974
:100BC0001FD0072807D00D2805D0162803D01A28D3
:100BD00001D01B282ED133463A4601212846FFF783
:100BE00062FD0120009033463A4621692846FFF70E
:100BF00071FD627895F908100FF2940003F026F960
:100C000018E0092808D195F87210012904D10FF2D3
:100C1000900003F01BF912E033463A4601212846C2
:100C2000FFF741FD0120009033463A4621692846EE
:100C3000FFF750FD2846FFF7A3FD2069E060BDE8FF
:100C4000F3035DF808FB000073757370656E642034
:100C50006669666F2066756C6C20256420256400CB
:100C600073757370656E64206669666F2066756C57
:100C70006C20322025642025640000006669666FC0
:100C80002066756C6C332025642025642025640063
:100C90004150205375732025642025640000000016
:100CA000233E6C75785F736174202564000000003A
:100CB000F8B504460D464748466896F87300012883
:100CC0001DD1002086F873002888411C2980082146
:100CD00001550020ADF8000007460EE006EB870046
:100CE000006EADF80000022200A92888001902F069
:100CF000E3FF2888801C28807F1C032FEEDBF1BDDA
:100D00000CB4FEB504460D46FFF7D2FF324E3768ED
:100D10000DE008A881B069460CC80CC10CC80CC114
:100D200008BC2A4621463846FFF72AFE3F68B742EC
:100D3000EFD1F7BC5DF80CFB2DE9F04188B004461B
:100D40000D46244EF76907F10C0898F81510D8F8ED
:100D50000C00FA688018D7F82021526990470028C3
:100D600012D0012088F81200787A00280CD003A84D
:100D700081B069460CC80CC10CC80CC108BC2A461D
:100D800021463846FFF7FCFDB66906F10C07797D70
:100D9000F868F2688018D6F8202152699047002838
:100DA00011D00120B874707A00280CD003A881B04B
:100DB00069460CC80CC10CC80CC108BC2A462146A7
:100DC0003046FFF7DDFD012008B0BDE8F0810000EE
:100DD00096460120001E01202C4000208098002013
:100DE000184601201C4601209845012000CA9A3B64
:100DF000E89400200288D21C02800A80704780B5E7
:100E00000B889B1AADF80030BDF80030002B09D0DC
:100E10001018012100F8031C022200A9801E02F014
:100E20004BFF01BD0888C01E088001BD2DE9F04FB1
:100E3000ADF68C2D04460D4601F0BAFE064602F0D2
:100E40009AFF804610A840F6482103F04FFD00208D
:100E50008DF8020006A8282103F048FD01A81421FE
:100E600003F044FD0020ADF800000746D6E91C0160
:100E7000002902D1002800F02C8598F9090004F01F
:100E8000DDF9002800F0258500A92846FFF7B2FF0C
:100E9000B8461CE0D6E91C01424604F039FC00F0DB
:100EA000010011F0000101D100280ED0C8EB08109C
:100EB000DFF8581E01EB800292F90300012804D1EB
:100EC0000DF1020110A8526B904708F10108B8F12A
:100ED0003C0FDFDBBA461BE029884A1C2A80807859
:100EE00008552888FFF714FA00280DD0BDF8002017
:100EF00029462046FFF783FF29462046FFF7D8F909
:100F000000A92846FFF776FF0AF1010A4FFA8AFA8C
:100F10009DF80200824580F2D4842988481C2880EC
:100F200040F2491010FB0AF010AA825C0A55298889
:100F30004A1C2A8010AA8618707808552988481CEF
:100F40002880701C42780A554178032927D0092946
:100F500000F09A810C2900F075811A2900F0918225
:100F60001B2900F0A4811C2900F0BB821D2900F080
:100F7000AE811E2900F0A682262900F0DE822C29EF
:100F800000F00A832F2900F0E782302900F0618306
:100F9000312900F08C83342900F0EA839CE77178D2
:100FA000032904D129884A1C2A8082780A55298875
:100FB0004A1C2A80C2780A55C178C0290FD106F28E
:100FC0002708B8F82E20D8F830102888001902F029
:100FD00073FE2888B8F82E100818288081E7084684
:100FE000E0284AD106F20506002035E056F8201028
:100FF0000A0222F0FF12090A01F0FF11114346F81C
:1010000020104FEA314146F8201006EB80014A6873
:10101000130223F0FF13120A02F0FF121A434A6070
:101020004FEA32424A608A68130223F0FF13120A21
:1010300002F0FF121A438A604FEA32428A60CA689D
:10104000130223F0FF13120A02F0FF121A43CA60C0
:101050004FEA3242CA60001D1428C7DB50210FF648
:101060007C0002F0F3FE502231462888001902F07D
:1010700023FE28885030288033E7791C000647D4A7
:1010800001A8321D52783A54C9B2B2790A54491CA7
:10109000C9B200220A544A1C06F20601D2B24B78A9
:1010A0001354521CF389D2B21F0A1754521CD2B2E5
:1010B0001354521C06F20E03D2B29F781754521CDE
:1010C000D2B2DB781354521CD2B2B37C1354521CEC
:1010D000D2B2F37C1354521CD2B28B781354521CEC
:1010E000D2B2C9781154511CC9B2B27A0A54491CFF
:1010F000C9B2F27A0A544F1CFFB23A4601A92888B5
:10110000001902F0D9FD288850FA87F02880E8E617
:10111000D6F8052006A8130C3B54C9B2130A0B5489
:10112000491CC9B20A54491CD6F80920C9B2130C8B
:101130000B54491CC9B2130A0B54491CC9B20A54B6
:10114000491CD6F80D20C9B2130C0B54491CC9B266
:10115000130A0B54491CC9B20A54491CD6F8112071
:10116000C9B2130C0B54491CC9B2130A0B54491CC5
:10117000C9B20A54491CD6F82720C9B2130C0B5423
:10118000491CC9B2130A0B54491CC9B20A54491C60
:1011900006F22708C9B298F804200A54491CC9B2BB
:1011A00098F805200A54491CB8F80620C9B2130A59
:1011B0000B54491CC9B20A54491CC9B298F80820FA
:1011C0000A54491CD6F81520C9B2130C0B54491CFB
:1011D000C9B2130A0B54491CC9B20A54491CD6F8A7
:1011E0001920C9B2130C0B54491CC9B2130A0B5471
:1011F000491CC9B20A54491CD6F81D20C9B2130CA7
:101200000B54491CC9B2130A0B54491CC9B20A54E5
:10121000491CD6F82120C9B2130C0B54491CC9B281
:10122000130A0B54491CC9B20A544F1CFFB23A4668
:1012300006A92888001902F03FFD288850FA87F097
:1012400028804EE6F11CB1F90300C0F3072242EA00
:101250000020A1F80300B1F90700C0F3072242EA19
:101260000020A1F80700B1F90500C0F3072242EA07
:101270000020A1F8050009222888001902F01CFDB1
:101280002888093028802CE629880B467278032AA2
:1012900008D10222F11C181902F00EFD2888801CCA
:1012A00028801EE6491C29808078185519E629886F
:1012B0004A1C2A8080780855707805287FF411AE82
:1012C0002888411C2980311D4978015509E606F11D
:1012D00003087078012840F0C4802888411C2980C8
:1012E00098F8041001554FF00009A1E0C9EB49102E
:1012F00000EB080BDBF81800010221F0FF11000AD7
:1013000000F0FF100843CBF818004FEA3040CBF84C
:10131000180004220BF118012888001902F0CCFCF7
:101320002888001D2880DBF80800010221F0FF1149
:10133000001200F0FF100843CBF80800C0F30F4183
:1013400041EA0040CBF8080004220BF1080128888C
:10135000001902F0B1FC2888001D2880DBF80C0081
:10136000010221F0FF11001200F0FF100843CBF83A
:101370000C00C0F30F4141EA0040CBF80C000422FE
:101380000BF10C012888001902F096FC2888001D3A
:101390002880DBF81000010221F0FF11001200F09C
:1013A000FF100843CBF81000C0F30F4141EA0040A2
:1013B000CBF8100004220BF110012888001902F06C
:1013C0007BFC2888001D2880DBF81C00010221F02E
:1013D000FF11000A00F0FF100843CBF81C004FEA91
:1013E0003040CBF81C0004220BF11C0128880019A6
:1013F00002F062FC2888001D2880BBF81600010A54
:1014000041EA0020ABF8160002220BF116012888F1
:10141000001902F051FC2888801C2880411C29807A
:1014200080B2DBF82010015509F101095FFA89F952
:1014300098F804008145FFF659AFB6F84321D6F875
:1014400045112888001902F037FC2888B6F84311A6
:1014500008182880B6F843110FF2904002F0F6FC0D
:101460003FE505287FF43DAD2888411C298098F888
:10147000021001552888411C298098F80310015555
:101480002FE5F11C7078032804D12888421C2A809B
:10149000B27A0255D1F80100020222F0FF12000ACE
:1014A00000F0FF101043C1F801004FEA3040C1F8CE
:1014B000010007222888001902F0FEFB2888C01DC1
:1014C00028800EE5F11C0888020A42EA0020088004
:1014D00002222888001902F0EFFB2888801C28804F
:1014E000FFE4F11C7278012A7FF4FBAC80780128BC
:1014F00015D12888421C2A8009780155B288D6F86F
:1015000006102888001902F0D7FB2888B18808182F
:101510002880B1880FF2E83002F098FCE1E402285C
:101520007FF4DFAC2888421C2A800A78025528887C
:10153000421C2A80C9790155D3E4F11C0888020AAB
:1015400042EA0020088002222888001902F0B4FB39
:101550002888801C2880C4E4F01C29884A1C2A8022
:1015600001220A5529884A1C2A8005220A55298801
:101570004A1C2A80C1220A5529884A1C2A8042799D
:101580000A5529884A1C2A8042780A5529884A1C0B
:101590002A8080780855A4E4F61C29880B46307808
:1015A000020727D5481C2880307818552888411C08
:1015B0002980F17901552888411C2980317A01550B
:1015C000D6F80900010221F0FF11000A00F0FF1017
:1015D0000843C6F809004FEA3040C6F80900042263
:1015E00006F109012888001902F066FB2888001D11
:1015F000288076E4400721D5481C2880307818558B
:101600002888411C298071780155D6F80300010211
:1016100021F0FF11000A00F0FF100843C6F8030094
:101620004FEA3040C6F803000422F11C2888001954
:1016300002F042FB2888001D288052E4B278D6F8D8
:101640000D10181902F038FB2888B178401828804E
:1016500047E4F61C3068010221F0FF11001200F08F
:10166000FF1008433060011441EA0040306004225A
:1016700031462888001902F01FFB2888001D2880A9
:101680007068010221F0FF11001200F0FF10084302
:101690007060011441EA004070600422311D288806
:1016A000001902F009FB2888001D288019E4F61CA7
:1016B0003068010221F0FF11001200F0FF10084312
:1016C0003060C0F30F4141EA0040306004223146EF
:1016D0002888001902F0F0FA2888001D2880706818
:1016E000010221F0FF11001200F0FF1008437060AA
:1016F000C0F30F4141EA004070600422311D288888
:10170000001902F0D9FA2888001D2880B06801026B
:1017100021F0FF11001200F0FF100843B060C0F389
:101720000F4141EA0040B060042206F10801288818
:10173000001902F0C1FA2888001D2880F068010213
:1017400021F0FF11001200F0FF100843F060C0F319
:101750000F4141EA0040F060042206F10C012888A4
:10176000001902F0A9FA2888001D2880FFF7B9BBEC
:10177000F61C3068010221F0FF11001200F0FF108A
:1017800008433060011441EA0040306004223146D1
:101790002888001902F090FA2888001D28807068B7
:1017A000010221F0FF11001200F0FF1008437060E9
:1017B000011441EA004070600422311D288800199C
:1017C00002F07AFA2888001D2880B068010221F012
:1017D000FF11001200F0FF100843B060011441EA4D
:1017E0000040B060042206F108012888001902F0C8
:1017F00063FA2888001D2880F2683369F06831692F
:101800001B0243EA1263120222F0FF1223F0FF13BD
:10181000000A40EA0160090A00F0FF1001F0FF1120
:1018200010431943F0603161D6F80C80D6F810905F
:10183000F06831694FEA094949EA1849DFF8D024CC
:10184000134602EA084209EA03039046000C40EA04
:1018500001404FF6FF7210404246104353EA1141D7
:10186000F0603161F2683369F06831691346084607
:1018700000211943F0603161F0683169082206F1F6
:101880000C012888001902F017FA288808302880EF
:101890007069010221F0FF11001200F0FF100843EF
:1018A0007061011441EA00407061042206F11401E4
:1018B0002888001902F000FA2888001D2880FFF708
:1018C00010BBBDF8002029462046FFF798FA03F028
:1018D000E3FC0DF68C2DBDE8F08F00005044205342
:1018E000462053656E742564000000004F4A483A54
:1018F00020415442442073697A653A2025640000EF
:101900004F4A483A20415044522073697A653A2040
:10191000256400002DE9F04105460E4602F02BFA41
:101920000746DFF8F0432078401C20706078F021F3
:10193000084202D0992003F0FFFE03F073FF6078A5
:10194000401C607097F81C80B8F1000F27D03088D9
:10195000404480B2FEF7DCFC002803D03146284624
:10196000FEF7A6FC3088411C3180032141553088A8
:10197000411C318000F80580424607F11D01308886
:10198000401902F099F93088404430804FF4FA72DF
:10199000002107F11D0002F06BFF0020387760780E
:1019A000F021084202D0992003F0C6FE6078401E64
:1019B0006070C0B2002801D103F02EFFBDE8F041F5
:1019C00004F01ABA38B504460D4602F0D4F9817A0B
:1019D000002909D1417B002906D129884A1C2A8087
:1019E00006220A550121417331BD38B504460D4622
:1019F000288800280CD02046FFF78CFF2946204677
:101A0000FFF7E0FF29462046BDE83440FEF750BC12
:101A100031BD14B585B0049101A9002213461446C6
:101A20001CC10A21ADF8001004218DF804108DF8B6
:101A300005000A4605A90DF1060002F03DF9042251
:101A400004A90DF10A0002F037F900A901A8FEF778
:101A50002FFC06B010BD80B502F08DF94FF49671E1
:101A600002F0EEFB07208DF802000120ADF8000027
:101A700000A90DF10200FEF71BFC01BD2DE9F043AA
:101A800083B005460F46904602F075F98146002660
:101A9000D5F80900041D28780146012900F0868048
:101AA0000F2939D035294AD036293FD040294FD087
:101AB0007F2936D0802900F0A580812900F0AC80F4
:101AC000822900F0A980852900F0A680862900F0EF
:101AD000A380882900F0A0808A2900F0A5808B29A6
:101AE00000F0C0808C2900F0CC808D2900F0D780D8
:101AF000DD2900F0E180DF2900F0F580F0292CD00D
:101B0000F4293DD0F62946D0F82964D0F92952D0DD
:101B1000FF2900F0C9807CE099F81A0020700120AC
:101B200078E099F812022070012073E004F020FFA1
:101B300015220146204602F0BFF801206AE001208C
:101B400006F05FFE304606F060FE0120207061E086
:101B5000204606F079F901205CE004226E49204617
:101B600002F0AAF807F0DBFD002804D108F094FE8B
:101B7000012007F0D0FD012009F090FD012049E08F
:101B8000484602F007FB082209F11001204602F046
:101B900093F801203EE00322214630465F4B9B68CC
:101BA000D3F820311B6A9847012033E0204609F022
:101BB00031FF01202EE0B5F80120B5F80300C01078
:101BC000C0EB0011D5F8050000EB8111204602F0B2
:101BD00073F801201EE03046ADF804000120697959
:101BE000012900D1032009F001F809F03AF8ADF815
:101BF000040009F04DF8022201A9204602F05CF829
:101C0000012007E0D5F8050020702146304601F09C
:101C1000C2FA3046BDE8FE8331462170214600F00D
:101C20007F0001F0B8FAF4E7012020703B484568D6
:101C30003746287F002801D13046EBE7687A002834
:101C400004D1D5F820014068804707462046D5F8E2
:101C50002011C9698847002FDBD0D5F820018068A2
:101C60008047D6E70120B5F80310C1F3C101091D73
:101C7000884040F0020020702146012001F08BFADC
:101C8000C7E799F8000020700120607099F80500FE
:101C9000A07099F80600E07001202071BAE7204694
:101CA00009F0CCFE0646B4E704F10802211D2046E7
:101CB00009F098FD0120ADE76879184951F82050E6
:101CC000687A00280BD0424639462846FEF706FEC1
:101CD0001349082009F074FF0120207001E030460C
:101CE0002070012096E768790C4951F82050286946
:101CF00095F8221090FBF1F0401E0090042200A9FC
:101D0000204601F0D9FF012084E70000E8D9002037
:101D10000000FFFF0093002004950020001E01201A
:101D200044CE00202DE9F041B6B0064602F023F87B
:101D3000054600F03DFF8046D6F80900041D3078C6
:101D4000002102914FF0FF3119910F4601463129D0
:101D500000F07581322900F07C81332900F0888100
:101D6000342900F08F81372900F085807D2900F02B
:101D7000BE80A12900F0A281A22900F0EE81A42951
:101D800000F0F981A52900F09280A62900F0958045
:101D9000B12900F07084B22900F04886B82900F01B
:101DA0000582C12900F02482C32900F0A386C92935
:101DB00000F02281CD2900F0B280CE2900F0C7804A
:101DC000D02932D0D12928D0D22933D0D32937D025
:101DD000D42939D0D6295AD0D72958D0D8295ED07D
:101DE000D9295CD0EC2900F08C80F1296BD0F22944
:101DF00000F0C680F52900F0E780F72900F00B819C
:101E0000FA2900F06186FB2900F06186FD2900F0C7
:101E1000E780FE2900F065860DE10021284602F0EA
:101E20001CFA0020A873012006E1002009F036FC0E
:101E3000012001E10121284602F00FFA0120FBE018
:101E40000020A8720120F7E00120A872002068732A
:101E50000120A873DFF8C80C016808E08A6B92F9CA
:101E60001420012A02DB012281F81821096881422D
:101E7000F4D10120E0E0002221461046DFF8A43C26
:101E80001B68D3F820311B6A98470120D4E0D6287C
:101E900001D1012000E00020E8720120CCE0D92827
:101EA00001D1012000E0002028730120C4E0D6F811
:101EB000090009F00EFF0120BEE0D6F809000AF083
:101EC0003DF80120B8E000200DE000EB0801025DC4
:101ED00081F88420022805D108F18401025DCA70CE
:101EE000025D0A71401C0328EFDB0120A4E020788A
:101EF00002F030F908F18401487088F8840001206C
:101F00009AE023784FF4F662DFF81C1CDFF81C0C13
:101F100001F09CFF207806F061FA01208CE000259A
:101F200011E0DFF8000C466806EB8506022204EBA0
:101F3000450106F1600001F0BFFE316EDFF8F00BE5
:101F400001F084FF6D1C032DEBDB012074E0002504
:101F500012E0DFF8D00B066806EB4506022204EB20
:101F6000450106F1580001F0A7FEB6F95810DFF858
:101F7000C40B01F06BFF6D1C032DEADB01205BE05D
:101F8000D5E9040100F0800011F0000103D1002820
:101F900001D1012050E008F184012078627812EB31
:101FA0000020C880A078E27812EB0020088104218C
:101FB0002046DFF8702BD269D2F820219269904731
:101FC000002838D0012037E0032221460120DFF825
:101FD000543B9B68D3F820311B6A984701202BE0C3
:101FE0001B2221460720DFF83C3B9B68D3F82031B9
:101FF0001B6A984701201FE024782146DFF8380B40
:1020000001F024FF2046401E8041C043C00F0AF06B
:102010006BF9012010E0DFF80C0B8669D6F820017F
:1020200080688047002806D0012221460520D6F886
:1020300020311B6A9847002036B0BDE8F08106F0D9
:10204000E8FB012801D10120F6E7204606F058FB05
:10205000F1E706F0DEFB012801D10120ECE7204684
:1020600006F07BFB20780028E5D006F0B3FBE2E722
:1020700006F0CFFB012801D10120DDE7207806F032
:10208000B0FBD8E706F0C5FB012801D10120D3E75A
:10209000DFF8A80A01F0DAFE002006F0B2FB01200A
:1020A00006F088FA04F03BFE012006F0AEFB207833
:1020B00006F0B2FB06F0E8FA0120BDE794F9005003
:1020C0000422611C02A801F0F7FDB6F80100062801
:1020D00006DB0422611D19A801F0EEFD94F90970D8
:1020E0002846DFF8401A042802D10A6900239372B7
:1020F00051F8206000F05CFDD0E91C23C2F34018C9
:1021000000F056FDD0E91C23C2F38020804400F08B
:102110004FFDD0E91C23C2F3800000EB080296F9C2
:102120000800072804D1717A002901D0002A04D0C0
:10213000182809D1707A002806D0717ADFF8000AD1
:1021400001F084FE012077E70097199B0022029995
:10215000284601F099F820706DE794F900500422A8
:10216000611C02A801F0A8FD00231A460299284626
:1021700001F056F960E794F900500422611C02A8AE
:1021800001F09AFDB6F80100062806DB0422611D65
:1021900019A801F091FD94F909700097199B00228C
:1021A0000299284601F0C8F9207044E720780146DA
:1021B000032904D01A2910D02C290ED011E0607800
:1021C0000DF10D025070012805D1A0788DF80F0097
:1021D000204601F089FB01202EE7204601F084FB18
:1021E000F9E794F9011040B20020C046C0B223E7DD
:1021F00020780146491E51D00D390DD0C91E55D049
:10220000491E032921D9091F00F0A680491E00F0AC
:10221000048119393AD016E20E208DF80C0060784E
:102220000DF10D025070A1788DF80F10E2780DF1CC
:102230000F035A700023ADF8113052B249B240B2C8
:1022400002F05CF801F04EFBFDE18DF80C00014658
:10225000122903D10DF10D0062784270132902D1C9
:1022600060788DF80F00142903D10DF10F0062780A
:102270004270152903D10DF10D006178417062782B
:102280002178DFF8C00801F0E1FDDCE130208DF8B5
:102290000C000DF10D0061784170D4E101208DF842
:1022A0000C000DF10F0061784170CCE10DF10D00D3
:1022B00061784170A0788DF80F000DF10F00E17882
:1022C000417020798DF81100002802D001281FD01C
:1022D00030E06079A179090401EB0060E17900EB5D
:1022E0000120217A4018CDF812000DF11206607A13
:1022F000A17A11EB0020B080E07A217B11EB002065
:10230000F080607BA17B11EB0020ADF81A0011E09A
:102310006079A17911EB0020ADF812000DF11206E1
:10232000E079217A11EB00207080607AA17A11EBBC
:102330000020B0801AA80DF10E010E220AF0FAFD5D
:102340001AA80FC802F0FDF802F062F9012840F067
:102350007A8101F01CFB76E16078A178090401EB39
:102360000060E17800EB012021794018CDF80E00E3
:102370006179A279120402EB0161E27901EB022199
:10238000227A8918CDF81210627AA37A1B0403EB23
:102390000262E37A02EB0322237BD2180DF11206CC
:1023A0007260637B8DF81A30A37B8DF81B300DF1C2
:1023B0001B03E57B5D70257C9D70657CDD70A57CD5
:1023C000E67C16EB05252DB29D80267D05EB0625C6
:1023D000667DAD19DD80A57D1D72002803D1002921
:1023E00001D1002A0CD00DF10E0184B068461622EE
:1023F0000AF0A0FD0FBC02F031F902F011F901E082
:1024000002F013F90DF10E0184B0684616220AF0AD
:1024100091FD0FBC01F0A7FA15E160788DF80D0071
:102420001D283ED10DF11206A1787171A178012904
:102430000DD1E178227912EB0121ADF80E1089B2AD
:102440000A460146DFF8000701F000FDFBE0022923
:102450000BD1E078217911EB0021ADF8101089B291
:10246000DFF8E80601F0F2FCEDE003290AD1E0789C
:10247000217911EB0021F18089B2DFF8D40601F057
:10248000E5FCE0E0042940F0DE80E078217911EB02
:102490000021ADF81A1089B2DFF8B80601F0D6FCB9
:1024A000D1E0032828D1A1780DF15E056970DFF82D
:1024B000A80601F0CBFC6878012816D1002014286A
:1024C00080F2C18004EB8001CA780B791B0403EB16
:1024D00002624B7902EB03228979511803AA02EBBD
:1024E0008002C2F80210401CE9E7022840F0AB80ED
:1024F000E0788DF85E00A6E01C2827D1A0788DF842
:102500001100A078012808D1E1780DF10D02517079
:10251000DFF8480601F09AFC95E0022807D1E1783F
:102520008DF80F10DFF8380601F090FC8BE00328DF
:1025300000F08980052840F08680E1780DF10F03D6
:102540005970DFF8200601F081FC7CE02C2830D1A6
:102550000DF11200A1788171A078012803D1E078F3
:102560008DF812006FE0022806D1E078217911EB96
:102570000020ADF8190066E0032806D1E078217943
:1025800011EB0020ADF81B005DE0042807D1E078D6
:10259000217911EB00200DF11B01488053E0052843
:1025A00051D1E078217911EB00200DF11B018880D9
:1025B00049E0372803D120460AF02CFE43E03028BA
:1025C0001BD1A0788DF80F00A078012804D10DF15F
:1025D0000D00E178417036E0022834D14FF42762D3
:1025E000DFF84415DFF8800501F030FCB6F8011083
:1025F000E01C0BF0B6FD01201EE5342823D10DF1BF
:102600001200A1780171A078012817D10DF10E00F8
:10261000E1782279120402EB0161627901EB022177
:10262000A279891800EE101AB8EEC00ADFED9F0AF1
:1026300080EE200A10EE101A016004E0022802D198
:10264000E078CDF8120006208DF8780020788DF81B
:1026500079000DF17B0003A955220AF06BFC0DF106
:1026600079000B2141700020ADF8D0001EA801F0C8
:10267000A5F9C0B2E0E4207801463C2905DBDFF88B
:10268000EC0401F0E3FB0020D6E4C1EB0112DFF81B
:10269000E01401EB8201897E012940F0938101461B
:1026A00003292ED006296BD0092931D00C294BD013
:1026B0000D2957D0192900F097801A296ED01B29AF
:1026C00000F0A7801C2900F0E3801D2900F0B980EC
:1026D0001E2900F0ED80262900F0F880272900F05F
:1026E00003812C2900F028812D2900F03E812F291B
:1026F00000F05081302900F04681342900F05681E5
:102700005BE10322611C0DF10E0001F0D5FA59E1E5
:102710000722611C0DF10E0001F0CEFABDF80E008B
:10272000010A41EA0020ADF80E00BDF81000010AD0
:1027300041EA0020ADF81000BDF81200010A41EA9C
:102740000020ADF812003DE10322611C0DF10E00E6
:1027500001F0B2FABDF80F00010A41EA0020ADF81D
:102760000F002FE10322611C0DF10E0001F0A4FA0D
:10277000BDF80F00010A41EA0020ADF80F0021E189
:102780000122611C0DF10E0001F096FA0DF10D0011
:102790004178DFF8E00301F059FB13E10B22611CE3
:1027A0000DF10E0001F088FADDF80F00010221F0B2
:1027B000FF11000A00F0FF100843CDF80F004FEAA8
:1027C0003040CDF80F000DF112067088010A41EA81
:1027D00000207080002396F9062096F9051096F9DE
:1027E000040001F08BFDEDE00622611C0DF10E00EE
:1027F00001F062FABDF80E00010A41EA0020ADF8CE
:102800000E00BDF81200010A41EA0020ADF81200E6
:10281000D8E00422611C0DF10E0001F04DFABDF864
:102820000E00010A41EA0020ADF80E00BDF81000CC
:10283000010A41EA0020ADF81000CF4801F006FB84
:10284000C0E00922611C0DF10E0001F035FABDF85F
:102850000E00010A41EA0020ADF80E00BDF810009C
:10286000010A41EA0020ADF81000BDF81200010A8B
:1028700041EA0020ADF812000DF11206002396F98E
:10288000042096F9031096F9020001F037FD99E053
:102890000DF10D0061784170A0788DF80F00A278DD
:1028A0006178B64801F0D2FA8CE000BF00401C46C7
:1028B0000322611C0DF10E0001F0FEF9BDF80F00BE
:1028C000010A41EA0020ADF80F007BE00522611CFF
:1028D0000DF10E0001F0F0F9BDF80F00010A41EA18
:1028E0000020ADF80F006DE00A22611C0DF10E0012
:1028F00001F0E2F9BDF90E00C0F3072141EA002022
:10290000ADF80E00BDF91000C0F3072141EA002028
:10291000ADF81000BDF91200C0F3072141EA002014
:10292000ADF812000DF11206B6F90200C0F307214E
:1029300041EA0020708045E00822611C0DF10E0084
:1029400001F0BAF9BDF81000010A41EA0020ADF823
:1029500010000DF11206002396F9032096F90210DB
:1029600096F9010001F0CAFC2CE00222611C0DF175
:102970000E0001F0A1F9BDF80E00010A41EA0020A5
:10298000ADF80E001EE00222611C0DF10E0001F0F8
:1029900093F917E00DF10D00E178417020798DF881
:1029A0000F000DF10F00617941700BE00922611CED
:1029B0000DF10E0001F080F904E08DF80C00607854
:1029C0008DF80D0020780146052908D16C480121B9
:1029D0000170687A002810D10846FFF72DBB18292E
:1029E0000BD18DF80C0060788DF80D000DF10D0005
:1029F000A1784170E0788DF80F0000208DF8780004
:102A000020788DF879000DF17B0003A955220AF09A
:102A100091FA0DF179000B2141700020ADF8D00042
:102A20001EA800F0CBFFC0B2FFF706BB207801461E
:102A30003C2906DB0FF24C1001F008FA0020FFF7EA
:102A4000FBBA052905D14E48002101700120FFF78E
:102A5000F3BA1A291CD10822611C0DF10E0001F0F5
:102A60002BF9DDF80F00010221F0FF11000A00F040
:102A7000FF100843CDF80F004FEA3040CDF80F00AB
:102A80000DF112067088010A41EA0020708005E00D
:102A90002C2903D10DF10D006178417001208DF8D2
:102AA000780020788DF879000DF17B0003A955227C
:102AB0000AF040FA0DF179000B2141701EA800F0D8
:102AC0007DFFC0B2FFF7B8BA0120FFF7B5BA207892
:102AD000002803D10FF2CC00C046C0460120FFF70A
:102AE000ABBA04F10802211D204608F03BFE01208C
:102AF000FFF7A2BA0B4886682078002805D1707AC3
:102B0000002802D10120FFF797BA012221460820B0
:102B1000D6F820311B6A98470120FFF78DBA0000D4
:102B20002C400020001E0120C04C0308D84C030894
:102B3000044D0308104D03081C4D0308304D0308D5
:102B4000404D0308644D0308744D0308844D030889
:102B5000904D03089C4D0308A84D0308BC4D030885
:102B6000D04D0308E44D0308F84D0308344E030824
:102B7000E8D90020504E03085C4E0308684E030855
:102B8000964601204C6962726172792072616E67AB
:102B900065206973206F7665722C2052656D6F76A3
:102BA0006500000051505F52455155455354000097
:102BB000004870479833012080B5FFF7F9FFDFF830
:102BC000741B4860012002BD80B508F08BFEDFF861
:102BD000681BD1E90023801A02BD01F0BFBD2DE9B9
:102BE000F8430446002005460646DFF8501B4968B6
:102BF00004F108073A697B6802EB030894F908209E
:102C0000002A15D1B8F90000B8F90250B8F90460EB
:102C1000B7F85010411AA8F80010B7F85210691A06
:102C2000A8F80210B7F85410711AA8F8041040E080
:102C300004F16C09012A27D1B8F80010A4F86C102F
:102C4000B8F80210A9F80210B8F80410A9F8041096
:102C5000B4F86C10BA6D891AA8F80010B9F802100F
:102C6000FA6D891AA8F80210B9F804103A6E891A98
:102C7000A8F80410B96DA8F80610F96DA8F80810A6
:102C8000396EA8F80A1014E0B4F86C20A8F80020F7
:102C9000B9F80220A8F80220B9F80420A8F8042006
:102CA0000A6EA8F806204A6EA8F80820896EA8F8CF
:102CB0000A1094F90810002951D1B8F90010C9136D
:102CC000B1EBE03F14D0B7F95010C913B1EBE03FBE
:102CD0000ED00FF6802001F0B9F8B8F900000128F5
:102CE00002DBDFF85C0A01E047F6FF70A8F800009D
:102CF000B8F90210C913B1EBE53F14D0B7F952107F
:102D0000C913B1EBE53F0ED00FF6542001F09EF849
:102D1000B8F90200012802DBDFF8240A01E047F6D7
:102D2000FF70A8F80200B8F90410C913B1EBE63F30
:102D300070D0B7F95410C913B1EBE63F6AD00FF663
:102D40002C2001F083F8B8F90400012802DBDFF839
:102D5000F00901E047F6FF70A8F804005AE00129E5
:102D600058D1B4F96C00B8F90010C913B1EBE03FC9
:102D700014D0B7F95810C913B1EBE03F0ED00FF6DD
:102D8000D41001F063F8B8F90000012802DBDFF885
:102D9000B00901E047F6FF70A8F8000004F16C09E3
:102DA000B9F90200B8F90210C913B1EBE03F14D031
:102DB000B7F95C10C913B1EBE03F0ED00FF6A010CD
:102DC00001F044F8B8F90200012802DBDFF87009CD
:102DD00001E047F6FF70A8F80200B9F90400B8F95D
:102DE0000410C913B1EBE03F14D0B7F96010C91358
:102DF000B1EBE03F0ED00FF6741001F027F8B8F9F0
:102E00000400012802DBDFF8380901E047F6FF7013
:102E1000A8F8040094F90800002804D1002000E07C
:102E2000401C0328FCDBBDE8F1830000F8B5044634
:102E3000A069E1684518002794F90860052E02D3BF
:102E40000E2E40F0B480012E01D00E2E02D120466D
:102E5000FFF7C5FE3046012804D9C01E02D00B384A
:102E600040F0A080002E01D14FF6FF77DFF8C408B4
:102E700040680E2E03D0301890F8840001E090F8DE
:102E80008500401E062870D8DFE800F00413222FCA
:102E90003E4D5E00B5F902002988791AB5F9042083
:102EA000B5F90830B5F806C0A7EB0C0CB5F90A70F7
:102EB00067E02888381A6988791AB5F90420EB8800
:102EC000FB1AB5F808C0A7EB0C0CB5F90A7058E06E
:102ED0006888381AB5F90010B5F904202B89FB1A57
:102EE000B5F906C0B5F90A704BE02888381AB5F96B
:102EF0000210AA88BA1AEB88FB1AB5F908C0B5F80F
:102F00000AE0A7EB0E073CE0B5F90200B5F90010A6
:102F1000AA88BA1AB5F90830B5F906C0B5F80AE0BA
:102F2000A7EB0E072DE0B5F900006988791AAA8889
:102F3000BA1AB5F90630B5F808C0A7EB0C0CB5F80D
:102F40000AE0A7EB0E071CE06888381A2988791A6E
:102F5000AA88BA1A2B89FB1AB5F806C0A7EB0C0C85
:102F6000B5F80AE0A7EB0E070BE0B5F90000B5F9DC
:102F70000210B5F90420B5F90630B5F908C0B5F965
:102F80000A70012E07D14FF0000E01E00EF1010E84
:102F9000BEF1030FFADB28806980AA80EB80A5F8D8
:102FA00008C06F81002E02D12046FFF718FE0120D5
:102FB000F2BD000070B404680D6816685B1E062B35
:102FC00027D8DFE803F004080D11161B2000056068
:102FD000604208601DE0624202606842086018E0DA
:102FE0006A4202600C6014E061420160704210604D
:102FF0000FE005600C60704210600AE068420860F3
:103000007042106005E06B420360604208607042ED
:10301000106070BC7047000070B52DED028B82B05F
:103020008169C2688A1890F9081008460A2800F2D7
:10303000A980DFE800F0062B85A7A765A7A7A792C0
:10304000A000B2F90240B2F90450DFF8E806416886
:103050009FED8A0AB2F9000000EE900AF8EEE00A4D
:1030600060EE800AC1ED000A00EE904AF8EEE00A38
:1030700060EE800AC1ED010A00EE905AF8EEE00A17
:1030800020EE800A081D80ED010A7FE0B2F90240BF
:10309000B2F90450DFF89C0641680E1D9FED788B55
:1030A000B2F9000000EE100AB8EEC00A10EE100AE5
:1030B0000BF0A4F953EC182B0BF0C8F90BF098FAAD
:1030C000B06000EE104AB8EEC00A10EE100A0BF025
:1030D00095F953EC182B0BF0B9F90BF089FAF06065
:1030E00000EE105AB8EEC00A10EE100A0BF086F986
:1030F00053EC182B0BF0AAF90BF07AFA306145E08B
:103100000020009010680090DFF8280641689DEDCF
:10311000000ABAEECA0A81ED0C0A91ED0C0AB5EE6E
:10312000400AF1EE10FA31D090ED020AD1ED0C0A0E
:1031300030EE200A80ED020A0188491C018025E05A
:10314000DFF8F00541681088A1F85A0001F25A0032
:10315000518841809188818018E0DFF8D805416866
:1031600001F25A001188C180518801819188418102
:10317000D18881810AE0DFF8BC054068118880F8B9
:10318000681003E00FF2F05000F060FE012002B082
:10319000BDEC028B70BD70B50D46DFF8A01551F87F
:1031A00020400026207F002801D1304670BD607A83
:1031B000002804D0D4F820018068804706462846BD
:1031C000D4F82011C96988470546002E03D0D4F8E9
:1031D000200140688047284670BD01207047F0B448
:1031E000002A22D400F10804A57EA66892FBF1F71C
:1031F0006F43B74202DA2264626408E090F9087013
:103200000C2F02D096FBF5F24A4322646264A16C53
:10321000002902D5626C511A6164616CDFF81425D3
:103220005268D2F8802051186164002B03D49907AA
:1032300001D508300376F0BC7047002181644161FC
:10324000816181777047042817D101F10C008A7AD7
:10325000012A09D0072242750B228275DFF8E42487
:10326000CA600B2141607047152242751922827590
:10327000DFF8D424CA6019214160704760F69C3A97
:1032800089AD84FA0A74513F2DE9FA4F97B0804610
:1032900014460020ADF858008DF801000DF101052D
:1032A0000A2068700020A870E870B8F11D0F64D281
:1032B0004746DFF8880450F827604FF00209307F56
:1032C00000285AD01798C82802D1B420179003E0DC
:1032D000422801D13C201790002C02D1012086F811
:1032E00098009DF988A0BAF1000F09D45FEACA706E
:1032F00006D55346189A17993046FFF76EFF8CE0B3
:1033000006F58E7B0F2F01D0102F06D14146C9B292
:1033100017A8DBF80420926990471A2F06D141467E
:10332000C9B217A8DBF80420926990471B2F06D179
:103330004146C9B217A8DBF804209269904731468C
:103340004046FFF780FF707A00281FD1214649B21E
:103350003046DBF808201268904700280FD0DBF8D1
:10336000040040688047002805D14946A1F10109C1
:10337000C9B20029F3D1002801D100204DE0214637
:1033800049B23046DBF8082052689047707A401CFA
:103390007072002C11D1C0B2012808D139460FF249
:1033A000E43000F053FD51463046FFF746FF5346E8
:1033B000189A17993046FFF712FF0C2F0CD0112FD7
:1033C0000AD00D2F08D0224652B217993046DBF8AA
:1033D00008301B6998470EE0B06B1421C160002CC7
:1033E00009D1002086F81901C6F81C01FFF7ECFB93
:1033F0000021C6E9240100F005F9162F0CD1002C9C
:103400000AD100208DF800003B208DF801000A2031
:10341000687000A800F0D2FA012019B0BDE8F08F62
:103420002DE9F04F97B080460F4614461D46002008
:10343000ADF858008DF801000DF101060A207070FA
:103440000020B070F070B8F11D0F08D2BB4850F8E2
:1034500028904FF0020B99F81C00002801D10020A1
:1034600067E0C82F01D1B42702E0422F00D13C27EA
:1034700099F8090001281DD109F5907A214649B231
:103480004846DAF804209268904700280BD0D9F813
:10349000200180688047002805D15846A0F1010B23
:1034A000C0B20028F3D1214649B24846DAF80420D8
:1034B000D268904799F80900002802D0401E89F888
:1034C0000900002C0AD10020C9F8480099F8090029
:1034D000002803D129464846FFF7AFFEB8F10C0F8C
:1034E0000FD0B8F1110F0CD0B8F10D0F09D0224652
:1034F00052B23946484609F590735B685B69984754
:1035000004E0D9F838004FF0FF31C16000F07AF8DC
:10351000B8F1160F0CD1002C0AD101208DF8000053
:103520003B208DF801000A20707000A800F046FAD8
:10353000012017B0BDE8F08F2DE9F04106460C469A
:1035400015461A461D2E22D27C4850F8267007F1E7
:103550001400017A00291AD0C82C01D1B42402E049
:10356000422C00D13C249DF91830002B06D4D907F9
:1035700004D521463846BDE8F0412EE605EB45016D
:1035800007EB8108D8F838108968002901D5002098
:1035900036E0416B002904D1012A02DB0021796168
:1035A000416021463846FFF71AFE0C2E27D0112E17
:1035B00025D00D2E23D0D8F83800806884421ED044
:1035C000012C1CDB0FF2C41000F040FC2A4652B262
:1035D000D8F8380081683846D7F824315B699847B5
:1035E0002A4652B221463846D7F824311B699847FB
:1035F00000F008F8002D02D1012087F89800012082
:10360000BDE8F08170B56FF0004634464F48016860
:1036100004E08A68A24200DA144609688142F8D1BF
:103620004B4D2878401C28706878F021084202D061
:10363000992002F081F802F0F5F86878401C687073
:10364000B44200D100243B4E7068C467D0F880209B
:1036500021468A4212D0002901D0002A0BD1C0F89D
:1036600080100FF2381000F0F1FB7068D0F8800085
:1036700000F0C8FB02E001200BF00EF86878F021A2
:10368000084202D0992002F057F86878401E68700E
:10369000C0B2002801D102F0BFF802F0ADFB01205A
:1036A00070BD38B505462A4C2078401C20706078E3
:1036B000F021084202D0992002F03EF802F0B2F860
:1036C0006078401C607029460FF2E40000F0BEFBF9
:1036D00018484068C0F880501C48016805E08A68B6
:1036E000B2FBF5F26A43CA6009688142F7D160789B
:1036F000F021084202D0992002F01EF86078401EA6
:103700006070C0B2002801D102F086F8BDE83140F7
:1037100002F072BB0D490A6808E01369012B01DA57
:10372000D368136113691B1A136112688A42F4D1BA
:10373000704700000C44012048450120001E012074
:103740000080FFFF504700206442012020400020FD
:103750000093002058206973206F76657200000086
:1037600059206973206F7665720000005A206973D2
:10377000206F766572000000554353542825642954
:103780004E53000041646420256400006368616E4C
:10379000676520726174653200000000675F7074B5
:1037A00053682D3E6354696D6572203D2025640089
:1037B0006374696D6572203D202564007C48704704
:1037C000F8B50C461646012500282BD1C6EB06108D
:1037D000774901EB8007386AE040C00708D52346E7
:1037E0003A6A31460FF2883000F030FB0220F2BD19
:1037F0004FF0FF30009003462A4679682046FFF7D5
:1038000043FD00280CD023463A6A31460FF270304F
:1038100000F01CFB386A2946A140084338622CE0BE
:103820000220F2BD012828D1C6EB0610604901EB49
:103830008007386AE040C00708D423463A6A314618
:103840000FF24C3000F002FB032516E04FF0FF337F
:103850002A4679682046FFF7E3FD002807D0234673
:103860003A6A31460FF2383000F0F0FA00E00325F2
:10387000386A0121A140884338622846F2BD01F030
:10388000D5BD02B598B00021ADF858108DF80110E3
:103890000DF101010A224A7000228A70CA700521C6
:1038A0008DF800108DF80100042218A90DF1030015
:1038B00000F002FA0020ADF8580000A800F07EF8F1
:1038C00019B000BD10B40022884201D3421A06E0AC
:1038D0000B1A384CA34202D3374A1018421A10462A
:1038E00010BC70470BF046BC38B54478857800783A
:1038F000032822D01A2802D02C282AD031BD012C2E
:103900000CD101200DF0E2F8012322461A210FF21A
:10391000A02001B0BDE8304000F098BA022C21D1BF
:1039200002200DF0D3F8022322461A210FF2942030
:1039300001B0BDE8304000F089BA012C12D1284610
:103940000BF035FC29460FF29020BDE8344000F022
:103950007DBA012C06D129460FF28820BDE83440FB
:1039600000F074BA31BD0FB480B5002805D1084607
:10397000002802D11046002804D00DF080FB0DF085
:1039800024FE01E00DF064FB01BC5DF814FB0DF0BA
:1039900089BB00223C2809D2C0EB0013044800EB8D
:1039A0008300006AC840C00700D501221046704756
:1039B000E8D90020A1780F05005C260530B595B048
:1039C0000446012594F90000062800F2BC80DFE8D7
:1039D00000F0042648647AB2B600E11C82B0684662
:1039E000552209F0A7FA0CBC94F9021094F90100D1
:1039F00001F056F9022809D1607801F01BFB00257F
:103A000061780FF2E81000F021FAA2E0032840F0FC
:103A1000A08061780FF2DC1000F018FA99E060786D
:103A20001A280BD1E01C01F0CBFDA37AD4F80620B4
:103A300061790FF2C81000F009FA04E02C2802D1D5
:103A4000E01C01F0BDFD94F9021094F9010001F0B1
:103A50001CFA03287DD161780FF2B81000F0F6F956
:103A600077E0B4F8581000A801F0FEFA9DF90400C0
:103A700002280AD1009800B201F0DCFA0025009972
:103A80000FF2981000F0E2F963E0032861D1009989
:103A90000FF2901000F0DAF95BE00EF052FB022812
:103AA00009D1607801F0C6FA002561780FF27C1028
:103AB00000F0CCF94DE003284BD161780FF274107F
:103AC00000F0C4F945E0607805280CD128460EF0D6
:103AD0001AFC02280DD003283BD161780FF2641044
:103AE00000F0B4F935E002280DD10EF012FD0228E5
:103AF000F1D1607801F09EFA002561780FF23C1058
:103B000000F0A4F925E02F2823D10EF071FE022841
:103B100009D1607801F08EFA002561780FF22C103F
:103B200000F094F915E0032813D161780FF2241006
:103B300000F08CF90DE0204601F0FBFA09E0204688
:103B400001F09BFC05E061780FF2101000F07EF9A7
:103B50000025284615B030BD012070470FB4022063
:103B600004B0704701207047002070477047000084
:103B7000534D414320256420256420256400000026
:103B8000534D412025642025642025640000000059
:103B9000534D5243202564202564202564000000F5
:103BA000534D522025642025642025640000000028
:103BB0004154205249204E6F72202D2564202564E7
:103BC00020256400415420524920426174202D2553
:103BD000642025642025640050442055542D25641C
:103BE00000000000534C4D2025640000414C4F461E
:103BF00020256400414C4346202564004F4A48205C
:103C0000454C20307825782030782578203078256C
:103C100078000000524C434620256400504C4F462B
:103C200020256400504C43462025640050414F46F7
:103C300020256400504143462025640050504F46E3
:103C400020256400505043462025640050534F46C1
:103C50002025640050534346202564004558204CDD
:103C60004D454C202564000010B504001048007834
:103C7000002805D10F480EF07CFE0D48012101708F
:103C80000C480EF0B0FE20000FF080FD0400094843
:103C90000EF0DDFE200010BD10B5040005480EF04A
:103CA000A2FE20000FF0CCFE02480EF0D0FE10BDA8
:103CB0009F460120C843012010B50400200009F0F0
:103CC00039F9200010BD10B450F8041B81B102680E
:103CD0001218001D50F8043BDC0744BFA9F1010491
:103CE000E31852F8044B43F8044B091FF9D1EBE7F2
:103CF00010BC704738B504000D0017480078401C10
:103D00001549087015480078002802D0A12001F05C
:103D100013FD02F030F8A07E662802D0822001F068
:103D20000BFD802080F3118800BF00BF08E0382120
:103D3000200010F013F9802080F3118800BF00BF2D
:103D4000E06821698842F2D02900200010F02AF9A9
:103D500002F052F831BD00BF009300209D460120C3
:103D600010B5DFF8D8494FF406720021204600F064
:103D70007FFD204610BDDFF8C409704710B5FFF77E
:103D8000EFFF044600231A461146084600F0B6FA33
:103D9000C046C04606F097FA0A21204600F03FF8D8
:103DA00006F03BFE06F0F6F9204600F043FA204606
:103DB00000F018F8DFF88809006806F03CFC20469F
:103DC00000F09BF900F041FB00F0E2F90020607286
:103DD000A072E0722073012060730020E076A0736F
:103DE000012010BD10B50446DFF8580906F085FB28
:103DF0000120607110BD10B5044606F09AFC012048
:103E0000A07110BD80B506F093FF012002BD10B572
:103E10000446E07907F09CF80121217010BD70B5CF
:103E200004460025E679E171FFF7F1FF002807D08D
:103E30002046FFF7D7FF2046FFF7DDFF012503E00F
:103E4000E6712046FFF7E3FF284670BD0EB470B55B
:103E5000C1B0054600A84FF4807100F047FDFFF7A0
:103E60008AFF044645AB2A464FF4807100A810F043
:103E700005F900A810F020F9451C00A82818002119
:103E800000F8011CDFF8C0683078401C3070707892
:103E9000F021084202D0992001F04EFC01F0C2FC52
:103EA0007078401C7070207F2818B0F5FA7F10DA07
:103EB000207F002803D0207F00190A2101772A469D
:103EC00000A9207F00191D30FFF7F6FE207F28187B
:103ED00020777078F021084202D0992001F02CFC64
:103EE0007078401E7070C0B2002801D101F094FCBF
:103EF00001F082FF41B070BC5DF810FBDFF80808EC
:103F0000DFF840180160704710B50446FFF733FF33
:103F1000D0E9042310461946224601F0F9FB00F0CF
:103F2000010011F0000101D100280ED0DFF81C487B
:103F30002068401C20601E2807DB0FF62C00FFF7CE
:103F400085FF07F07FF80020206010BDDFF8FC0738
:103F50000021016070472DE9F84305460E461746DB
:103F60004FF00208DFF8E0476078F021084202D005
:103F7000992001F0E1FB01F055FC6078401C607075
:103F80009DF80000401E8DF8000017F8019B2846A0
:103F9000FFF7B4FF00AB4A463946304607F08CF8CD
:103FA000002812D06078F021084202D0992001F058
:103FB000C3FB6078401E6070C0B2002801D101F0E0
:103FC0002BFCFFF7C3FF01201FE05FFA88F8424691
:103FD00029460FF2A870FFF739FF4046A0F101080B
:103FE0000028D7D16078F021084202D0992001F052
:103FF000A3FB6078401E6070C0B2002801D101F0C0
:104000000BFC2846FFF780FF0020BDE8F2832DE976
:10401000F04704460D4616461F46DFF8F48608981A
:1040200088F80000DFF8209799F80100F021084295
:1040300002D0992001F080FB01F0F4FB99F8010017
:10404000401C89F801002046FFF758FF4FF0020A94
:10405000434632463946284607F0E2F8002815D094
:1040600099F80100F021084202D0992001F064FB88
:1040700099F80100401E89F80100C0B2002801D162
:1040800001F0CAFBFFF762FF012022E05FFA8AFA23
:10409000524621460FF2F060FFF7D8FE5046A0F1DD
:1040A000010A0028D4D199F80100F021084202D079
:1040B000992001F041FB99F80100401E89F80100A8
:1040C000C0B2002801D101F0A7FB2046FFF71CFF7A
:1040D0000020BDE8F08780B51146029A184606F028
:1040E00089FA012002BD80B510465A1E92B20178AD
:1040F000401C06F05FFA012002BD1CB504460120F9
:10410000009001AB8F221B210020FFF7E4FF9DF8F8
:10411000043040F21A220FF27C610FF29060FFF738
:1041200095FE9DF80410692907D1012084F8120238
:10413000CAA0FFF78BFE012016BD0FF28860FFF7C3
:1041400085FE012084F812020FF29460FFF77EFED4
:10415000012016BD30B587B0044600A80FF29C615F
:10416000182208F0F7FEFFF706FE90F8120200A9E9
:1041700001EBC000255CFFF7FEFD2B46224690F8C0
:1041800012120FF29060FFF761FE284607B030BDB3
:1041900010F0ABBC2DE9F843054602264FF00008AD
:1041A000DFF8689516E03046461EC0B2002814D1EC
:1041B000002C0CD1D5E9046701200021424610F003
:1041C000CFFD26EA000027EA0101C5E90401022625
:1041D00008F10108B8F11D0F18DA59F82800D0F8D5
:1041E0002001006880470446012CDCD1D5E9046732
:1041F00001200021424610F0B3FD30433943C5E9A8
:10420000040159F8280001210177D1E7D5E904011B
:10421000002901D1032807D0002901D1022803D0A9
:10422000002905D1012803D140F48050C5E90401DB
:10423000BDE8F18307F039B907F09FB907F049B934
:10424000DFF80405026A036A00BF00BF00BF00BFB9
:1042500000BF9B1A8B42F6DB7047417230B597B0B6
:10426000FBF792FF0446FFF786FD054600A85C2198
:1042700000F03CFB0020ADF858008DF801000DF176
:1042800001000A21417000218170C170697A002902
:104290000DD0002C18D000218DF8001005218DF8CC
:1042A00001100B21417000A8FFF788FB0CE0002CE7
:1042B0000AD001218DF8001005218DF801100B2185
:1042C000417000A8FFF77AFB17B030BD07F074B952
:1042D00007F07CB902210120F8E702210120F7E76D
:1042E00001210846F2E701210846F1E707F078B915
:1042F00010B50446FFF73FFD447610BD2DE9F047A9
:1043000082B00C4615462F46264680464FF47A71F9
:104310004FF03C0C4FF4616918FB09F216FB0C22BC
:10432000BA1801FB0232DFF8ECE39EF900A01AFB99
:1043300009F99EF901A01AFB0C9C9EF902904CFA17
:1043400089FCBEF9039001FB0C919EF808C0BCF1FA
:10435000000F22D144EA00012943194302D0012170
:104360008EF808108EF80000B8F1000F04D59EF802
:10437000000018308EF800008EF801408EF80250D0
:10438000AEF8033000933B4632469EF900100FF220
:10439000CC40FFF75BFDBDE8F38791420DD3A1EB65
:1043A000020CACF2D17CDFF8A893CC45DAD30FF243
:1043B000884002B0BDE8F04748E5D3D2A2EB010C3B
:1043C000ACF2D179DFF888A3D145CBD363460FF2A5
:1043D000784002B0BDE8F04738E510B504002FD0B2
:1043E000FBF7BAFFCB49CA68002A00D0841AB1F89B
:1043F0000320A218A1F8032012B2B2F57A7F06DBDF
:10440000A2F57A72A1F803208A78521C8A7091F979
:1044100002203C2A04DB3C3A8A704A78521C4A70DB
:1044200091F901203C2A04DB3C3A4A700A78521C7C
:104430000A7091F90020182A01DB00220A70C86076
:1044400010BDB449052208F075BDB34800210170C4
:1044500041701E22B14800F00BBA000053544D00C9
:104460003FB400210120AC4A1278002A0CD12CE084
:104470005C68019DAC4224D11B89BDF80840A34271
:104480001FD10020491CC9B291421EDAC1EBC10301
:10449000A24C04EB43039DF80340DD78A54213D101
:1044A000002CE5D09C88BDF80450AC4209D1DC88D2
:1044B000BDF80650AC4204D11B89BDF80840A342A8
:1044C000DFD000F00100DDE7012004B030BC704710
:1044D0007FB40020014626E0C0EBC00254008F4D9F
:1044E00066193C224FF46163645D757812FB05F533
:1044F00013FB0454B57864199DF800509DF80160D1
:1045000012FB06F213FB05229DF8023052FA83F2E9
:10451000A24201D2824B9A18121BB2F5966F00D9B3
:10452000491C401CC0B27C4A13789842D4DBC9B203
:104530008B4202D20020107001E0581A10707FBC2C
:1045400070472DE9FF419DF80340022C5EDA00A878
:104550000FC8FFF785FF012858D100A80FC8FFF743
:10456000B7FF9DF802509DF801606C4FDFF8A881FD
:1045700098F80000032825D13C214FF461603A7877
:104580007B7811FB03F310FB0232BB78D2189DF845
:10459000003011FB06F110FB031050FA85F0904239
:1045A00001D25F490818811AB1F5966F02D94FF40C
:1045B000966000E0801AA8F80200FFF746FF01208D
:1045C00088F8010098F80000C0EBC00149009DF890
:1045D0000020CA55C9194E708D70CC70BDF80820E6
:1045E000002C09D1019B4B600A81BDF80A204A8149
:1045F000BDF80C208A8106E0BDF804308B80BDF840
:104600000630CB800A81401C88F80000BDE8FF819D
:104610004149487800224A7070473F4840887047B7
:10462000242200214B4800F023B91CB500A8FFF755
:1046300008FF484C24220021204600F019F99DF87B
:104640000000607604F219009DF8011041709DF899
:1046500002108170FF21817213BD00000FB410B5EC
:104660002DED028B2F4C104610F08CFB2E4A2F4B59
:1046700009F0ECFE206161619FED2D8B049810F034
:1046800081FB53EC182B09F0E1FE20606160059876
:1046900010F078FB53EC182B09F0D8FEA060E16015
:1046A0009DF81C00207604F118009DF81D10417043
:1046B0009DF81E1081709DF81F10C1709DF820108C
:1046C0000171BDF8210000EE100AB8EE400A10EEAC
:1046D000100A09F093FE184A1F4B09F0B7FE09F0C3
:1046E00087FFC4F81D00BDF82300A4F821009DF841
:1046F000250084F82300BDEC028B10BC5DF814FB90
:104700000849242208F016BCD0940020001E012085
:10471000764601201C440120C84501208440012028
:104720008051010084410120FCA9F1D24D62503F2B
:104730008DEDB5A0F7C6B03E3BDF4F8D5023012075
:10474000FC9400200054004000930020CC45012040
:104750005F4C2605A8410120976EA23F80B510F05E
:1047600007FC002104BD0000233E496E6974696C9A
:1047700061697A65204932430000000049574520AD
:104780002564202564000000495245202564202529
:104790006400000053485F48415F436865636B36BF
:1047A0004178697353656E736F7200002573282515
:1047B0006429203A20726567203D205B30782530DF
:1047C00032785D0057484F414D49206661696C2041
:1047D0003A207265675B3078253032785D000000E2
:1047E000556E6B6E6F776E203661786973207365D6
:1047F0006E736F722121212100000000000102036D
:104800000407060500010203040706050300010270
:104810000504070665364178697353656E736F72D8
:104820002825642920446F7428256429204178694B
:10483000732825642900000041542D536574545396
:10484000312025642025640041542D536574545350
:1048500032202564202564202564000041542D5316
:104860006574542025643A25643A25642E25640035
:1048700010B5040010000A000100200010F0DEFC5A
:10488000200010BD50EA010200F00E80094200BF76
:104890000BD1B0FA80F18840C1F19D01C905020633
:1048A00072F1004241EB10207047B1FA81F24140B1
:1048B0009040C2F1200261FA02F181EA000018BFC3
:1048C00040F0010002F19D01E8E750F8041B61B1DE
:1048D00050F8042BD30744BFA9F101039A18002311
:1048E00042F8043B091FFAD1EFE77047002210F0AD
:1048F000D9BC8268521C8260426832B10268531C83
:10490000036011704168491E4160704770B5DFF85F
:10491000244BFEF74DF9E06410F0DEFCFEF74EFF8D
:104920002065002517E04FF0FF31C176DFF8081B46
:104930004162DFF8941C8162DFF8982CC262DFF8D4
:10494000A02C0263DFF89C2C42638163206D301839
:10495000806B80476D1C3C2D80F2A081216DC5EBE2
:104960000510860000207054701800224270012249
:10497000C276002282764FF0FF32426000228270BF
:104980000262C2702A46921E392ACCD8DFE812F0A1
:1049900047003B005A014F00570062007C003A007C
:1049A0003A003A003A003A003A0085008E003A0098
:1049B0003A003A003A0096003A009F003A0060013F
:1049C000B000F80004010E013A00C800D000D90080
:1049D000E100F0003A003A003A003A003A003A00AA
:1049E0003A003A001A012F013A0046016A007400A9
:1049F00051016B01BC003A00A8003B0180017B0122
:104A0000730127018FE7DFF8E00BC1F8EC0001200C
:104A100081F8CE0001F17C003C21C16396E701F1F1
:104A20007C00DFF8C82B42631420C8678EE701F1D1
:104A3000EC00DFF8BC1B81671421416486E701F5B7
:104A4000B670DFF8B02B4263012282753C20C1F8BA
:104A50006C017BE701F5B670DFF89C1B01673C2118
:104A6000C16373E701F63C30DFF8901BC16301219D
:104A700081773C21816069E701F63C30DFF8801BDB
:104A80008167B421416461E7DFF8780BC1F818024F
:104A900001F5B6701421816758E701F56270DFF8FF
:104AA000682B4263B420C1F888034FE701F56270B8
:104AB000DFF8581B01673C21C16347E701F59E60A1
:104AC000DFF84C2B42633C20C1F8F0043EE7DFF8EE
:104AD000440BC1F89C0501F59E603C21816735E7D8
:104AE00001F66840DFF8301B81673C2141642DE707
:104AF00001F21460DFF8241BC1630721C177012193
:104B000081773C21816021E7DFF8140BC1F8680C44
:104B1000012081F84A0C01F6BC30B421816715E709
:104B200001F20470DFF8FC1A8167142141640DE77B
:104B300001F28470DFF8F02A42633C20C1F8840758
:104B400004E701F28470DFF8E41A01671421C163FD
:104B5000FCE6FFF710F9216D90F81202012803D14D
:104B6000DFF8CC0AC1F830080A20C1F8FC07EDE6EE
:104B7000DFF8C00AC1F86C081420C1F83808E5E66F
:104B8000DFF8B40AC1F88C06012081F86E0601F244
:104B900014603C214164D9E601F28C60DFF89C1A74
:104BA000C1630121817714218160CFE6DFF8900A8B
:104BB000C1F80407012081F8E60601F28C603C216F
:104BC0004164C3E601F65420DFF8782A42630322E9
:104BD000C275012282753C20C1F8540AB6E601F67E
:104BE0009450DFF8641A816714214164AEE6DFF85F
:104BF0005C0AC1F8C40A012081F8A60A01F6542013
:104C00003C21C163A2E601F6E840DFF8442A426392
:104C1000012282751420C1F8E80C97E6DFF8340A07
:104C2000C1F83C0B012081F81E0B1420C1F8080BC1
:104C30008CE601F6BC30DFF8202A42631420C1F86C
:104C4000BC0B83E601F1EC00DFF8101AC1637DE6CE
:104C5000DFF80C0AC1F81406012081F8F6053C20A3
:104C6000C1F8E00572E601F6BC30DFF8F81901671B
:104C70001421C1636AE601F69450DFF8EC19C163B0
:104C80001421816062E6DFF8E409C1F8940D5DE665
:104C900001F6E840DFF8D819016757E6012070BD3A
:104CA0000CB42DE9F04393B006460F460125344677
:104CB0001A2C42D02C2C40D0C4EB04104FEA8008B0
:104CC000DFF870970B2F18D1D9F850004044417885
:104CD000002912D090F91B20012A0EDB91420CDB37
:104CE000304600F068F90546D9F8500040440021EC
:104CF00041700FF68C10FFF7A9F8D9F8500018F89A
:104D0000001000294FD108EB00014A78002A4AD14F
:104D1000002208F80020104648701AA983B068469F
:104D2000582208F017F90EBC304600F06AF8022845
:104D300034D0032837D1032535E00B2F15D1C4EB30
:104D400004104FEA8008DFF8EC96D9F85000404490
:104D500090F91B20012A08DB4078904205DB0FF612
:104D60002810FFF773F8022046E01A2C04D13846C9
:104D7000C0B20AF0A6FF05E02C2C03D13846C0B221
:104D800010F04CFB1AA983B06846582208F0E2F8EC
:104D90000EBC304600F035F8022801D102202BE08D
:104DA000032800D103250A2F0DD1DFF88896D9F802
:104DB0005000C4EB04114FEA810818F80010491C98
:104DC00008F8001017E00B2F15D1DFF86896032CB8
:104DD00007D1D9F8500090F8B500002801D10AF0A9
:104DE00010F9C4EB04104FEA8008D9F85000404491
:104DF0004178491C4170284613B0BDE8F0035DF8C6
:104E00000CFB0EB42DE9F04193B005460124C0EB34
:104E100000118F00DFF81C66D6F850801A2801D0E8
:104E20002C2808D117F80800002809D107EB080042
:104E30004078002804D107EB08000021817001624E
:104E400019A984B06846582208F084F80FBC47447A
:104E50007F6AB847022801D1022011E0032801D15E
:104E600003240CE0D6F84C80D8E91C6720460021CA
:104E70002A460FF075FF30433943C8E91C0120462C
:104E800013B0BDE8F0015DF810FB2DE9F8430446CE
:104E90000D4601262746C7EB07104FEA8008DFF8CA
:104EA0009495D9F850001A2F4ED02C2F4CD0404456
:104EB000417802290BDB90F91B20012A07DB1346FE
:104EC000994204DB42700FF2CC70FEF7BFFFD9F8B5
:104ED000500018F80010002904D108EB00025278A5
:104EE000002A65D02A460A2A09D1002903D0491E82
:104EF00008F8001017E0002108F8001013E00B2A52
:104F000011D108EB00014A78002A02D0521E4A70E3
:104F100001E000224A70032F05D190F8B500002867
:104F200001D10AF07DF8D9F8500018F800100029D6
:104F30003ED14044407800283AD1204600F03BF86A
:104F4000032835D1032633E018F80010002904D1D6
:104F500008EB00025278002A2AD02A460A2A09D1F0
:104F6000002903D0491E08F800100EE0002108F8BF
:104F700000100AE00B2A08D140444178002902D0F1
:104F8000491E417001E0002141701A2F04D12846CA
:104F9000C0B20AF096FE05E02C2F03D12846C0B21D
:104FA00010F03CFA204600F006F8032800D1032652
:104FB0003046BDE8F2832DE9F04107460126B846A8
:104FC000C8EB08108500DFF86C44206D2818806A53
:104FD0008047032800D10326B8F12C0F07D1206D9C
:104FE000295C00290AD128184078002806D13846C3
:104FF00040B200F07BF9032800D10326206D295C24
:10500000002914D128184178002910D1002181707D
:105010000162D4F84C80D8E91C4501203A460FF0D3
:105020009FFE24EA000025EA0101C8E91C01304680
:10503000BDE8F08138B50446C4EB04108000DFF809
:10504000F453296D00224254401811464170204605
:10505000FFF7B1FFE86CD0E91C2321460FF23C605A
:10506000FEF7F4FE012032BD2DE9F041B6B0044652
:105070000E46B6B201208DF86400DFF8B8531AA8C6
:10508000E96C6C2207F066FF17951AA984B0684690
:105090006C2207F05FFF0FBC00F0D0F900270BE097
:1050A000032803D1189703208DF86400286D40442D
:1050B000002181707F1C7FB23C2F2ADAEA6CD2E992
:1050C0001C013A4600F024FB00F0010011F0000141
:1050D00001D10028EED0C7EB07104FEA8008286DF9
:1050E000404441680029E5D48278521C8270D2B2D3
:1050F000724389B28A42DDDBC06A80470228CFD181
:10510000189702208DF86400DDE91801C4E9000158
:1051100003E0DDE91801C4E9000136B0BDE8F08123
:105120000021401F42F20C72904200D20121084639
:1051300070472DE9F04383B004460020019004221B
:10514000E11C01A8FEF7B8FD6178BA4E376D3C2529
:1051500015FB01704068019A904204D10FF24C5047
:10516000FEF774FE68E01046FFF7DAFF002809D169
:105170006178019B15FB017042680FF23C50FEF70D
:1051800065FE59E0DFF8EC743868D0F8008025E05F
:1051900090F908906078316D15FB0010006A20FAD4
:1051A00009F0C00717D54FF0FF30009003460122E9
:1051B00001994846FEF768F840B200280BD16178A3
:1051C00001980090306D15FB010043684A460FF2CC
:1051D000FC40FEF73BFE4046D0F80080B842D7D1F5
:1051E0003868D0F800801FE090F90890086A20FA2B
:1051F00009F0C00715D54FF0FF3301224968484632
:10520000FEF70EF940B200280BD1617801980090AA
:10521000306D15FB010043684A460FF2C840FEF7A7
:1052200015FE4046D0F800806178326D15FB0121F3
:10523000B842D9D101984860BDE8F7832DE9F84319
:105240008146002425467B4F21E0C5EB05108600F2
:10525000386D06EB0008002088F80300FA6CD2E9EC
:105260001C012A4600F054FA00F0010011F0000180
:1052700001D100280AD04846D8F8301088470028C5
:1052800004D0386D30180121C1700C466D1C3C2DC6
:10529000DBDB2046BDE8F2836648C16CD1E91C2304
:1052A000002B01D1002A0DD0002107E0C2EB021330
:1052B000026D02EB83020023D370491C49B20A46F7
:1052C0003C2AF3DB704700B502465A48C36CD3E969
:1052D0001C0100F01DFA00F0010011F0000101D1E5
:1052E000002801D0012000BD084600BD2DE9F0478F
:1052F00081460124C9EB091085004E4E306D2818F7
:10530000006A002828D0DB4F3868D0F8008003E01E
:1053100003244046D0F80080B8421DD090F908A080
:10532000306D2818016A012202FA0AF2114021FAAE
:105330000AF149B20129ECD14FF0FF330122416853
:105340005046FEF76DF80028E2D0524649460FF26B
:10535000AC30FEF77BFDDCE72046BDE8F08710B5FA
:1053600098B004465A22002100A8FFF781FA0020D5
:10537000ADF858008DF801000DF101000A214170CF
:1053800000218170C1700846ADF85800600737D51C
:105390000520FFF798FF002808D004208DF80000B2
:1053A00005208DF8010000A8FEF708FB0220FFF79A
:1053B0008AFF002808D004208DF8000002208DF814
:1053C000010000A8FEF7FAFA2F20FFF77CFF002863
:1053D00008D004208DF800002F208DF8010000A8CF
:1053E000FEF7ECFA0320FFF76EFF002808D0042038
:1053F0008DF8000003208DF8010000A8FEF7DEFA0A
:10540000E00611D50820FFF75EFF00280CD003202E
:105410008DF8000008208DF8010000A8FEF7CEFAF4
:105420000FF2E420FEF712FD18B010BD01494C2226
:1054300007F090BD4C3C01205D3B00080FB41B9869
:105440000099016001994160029981600399C160EE
:105450000499016105994161BDF85A100183BDF8B5
:105460005C104183BDF85E1081830C990162139931
:1054700041621499816204B070474178122904D1C5
:10548000401C0179002009F07EBE132904D1401C84
:105490004179012009F077BE142904D1401C81799B
:1054A000022009F070BE152903D1401C007909F0D3
:1054B0008FBE302904D1401C90F904000DF0FCB9D6
:1054C000012904D1401C90F906000DF0E1B917291B
:1054D00075D1411CCA78032A0AD01B2A14D01C2A71
:1054E00033D01D2A1BD02C2A3FD0342A59D07047E4
:1054F00090F85610012902D1401D0AF079BA02290C
:105500005DD1401D0AF074BA087A012802D188885A
:105510000BF0A2BD022852D1C8880BF09BBD4A7B7C
:10552000012A02D188880CF036B8022A02D1C88834
:105530000CF025B8042A03D1B0F811000CF02DB8F6
:10554000032A3CD1C8890CF034B8C879012802D1AB
:10555000087911F0B9B8022802D1487911F0C3B81E
:1055600005282CD1887911F0AEB88A7B012A02D1A6
:10557000087A10F026BD022A02D1008A10F00DBD73
:10558000032A02D1408A10F012BD042A03D112303E
:10559000408810F02FBD052A11D11230808810F0FC
:1055A0001ABD0A7B012A05D1D0F8051000EE101AA9
:1055B00011F0BEB8022A02D1886811F0C2B8704753
:1055C0002D49086070470000593B00082A480068D0
:1055D00070470000653B00082849087070470000CC
:1055E000693B00086D3B0008BFE90008E1240108A1
:1055F000A122010871470308D91603088B45030847
:10560000773D0308912001086D560308E75C030805
:10561000715A030835590308315F03085F08010810
:105620009F6901081DFE01081B5E0308A5410308D0
:105630002D260308A9FC0108E70F0108856601086B
:1056400039150108CD5E0108314F0308CF57030813
:10565000F3CF0008BD270108AF1F0308D9B9000820
:10566000AD5B0308A9FD0208B7550308B55303084D
:105670002D5203082C400020D04501207746012000
:10568000414C204558000000414C2045582D4154C4
:1056900000000000524C2045580000005445524D77
:1056A00020256420256C6C75000000004558204CB6
:1056B0004D435231202564004558204C4D43523211
:1056C0002025642025642025640000004558204CD6
:1056D0004D43523320256420256420256420256411
:1056E000000000004558204C4D43523420256420D2
:1056F000256420256420256400000000534D52419C
:105700002025642025640000485720534D410000A7
:10571000D2B2203A22BF21FA02F000217047203293
:10572000D141D04048409140D14048407047026844
:10573000531C03601170704700B585B002460FF22C
:10574000140100A811F0E8F900A8C046C04605B051
:1057500000BD00004F45256400000000344881680A
:10576000002904BF08B008E0EFF30982A2F1280283
:10577000036882E8F84F83685A6000F056F9816840
:1057800059B14A6892E8F84F036002F1280282F3A7
:10579000098813F47F4F3FD070472648264909688F
:1057A000401A80F308884FF08071C16123498161FC
:1057B0007FF0060E704701BC2046DFF884E000BD94
:1057C000FEE7204800681C490968401A203820F08C
:1057D000070080F308884FF000011548417081F3FD
:1057E000118862B600F014F8FEE703680CB44FF0BD
:1057F000000141704FF0000181F311881249134AF2
:105800000A604FF0800181F311880CBC036070477F
:105810000D490E4A0A6070474FF0000181F311886C
:10582000704700BF4FF0800181F31188704700BFBF
:1058300000930020E00F00205C630308816D0108E5
:10584000C15700080000000804ED00E0000000104F
:1058500010B4802080F3118800BF00BFDFF8F0078C
:105860008068DFF8EC1700220A71002181F31188AB
:1058700000282ED0016800292BD0426901684969AF
:10588000914226D1016800E019000B68002B02D07C
:105890005C699442F8D0802282F3118800BF00BF77
:1058A000DFF8AC271269824203D1DFF8A42703682E
:1058B0001361026A036813601A6201620B68036075
:1058C0000268002A00D01862086091F8450081F84B
:1058D0004400002080F3118810BC7047802080F3C2
:1058E000118800BF00BFDFF86C070068DFF86017A1
:1058F000096A401A01283ADADFF85407006A05E01D
:10590000DFF84C170862002181F31188DFF848178F
:105910000978C90726D5802181F3118800BF00BF0F
:10592000DFF8341709788907EAD5DFF82C170978EA
:1059300011F0FD01DFF820271170002181F311889B
:10594000DFF80C17096A8842FAD0DFF804170862FA
:10595000DFF800070068401CDFF8F8160860DFF881
:10596000F0164862802080F3118800BF00BF7047A6
:1059700010B5DFF8DC0600214171DFF8D406006ABB
:1059800010F18040DFF8C8164862DFF8C406C0692D
:10599000002805D0DFF8B806DFF8B416C9698847D3
:1059A000002080F31188DFF8A806C4680EE0E068E4
:1059B000DFF89C16496A401A002803D5DFF89006E4
:1059C000E1684162002080F311882468002C26D011
:1059D000802080F3118800BF00BFDFF874060069E3
:1059E000002806D06069DFF86816096949698842AD
:1059F0001AD3207C4007E5D5E068DFF85416096A21
:105A0000401A0128D3DA200000F036FA802080F313
:105A1000118800BF00BF207C0028C8D104E080208E
:105A200080F3118800BF00BF10BD38B5DFF8200635
:105A300000214170DFF8180601210170DFF810061F
:105A4000C06B002818D0802080F3118800BF00BFF1
:105A5000DFF8FC05C06B8047002080F31188DFF879
:105A6000F0050021C163DFF8E80500214163DFF89C
:105A7000E005002180F8381011F068F80078C0B215
:105A8000CD2802D07D20FFF757FEDFF8C4058068DF
:105A9000002812D0DFF8B8058068806C00280CD090
:105AA000DFF8AC058068806C01680800002804D02D
:105AB000DFF89C05806840688847DFF8940590F817
:105AC000310000280FD0DFF888058068DFF88015E6
:105AD00091F8301080F84410DFF874050079002840
