:100000000010002025890408458C0008598C000840
:100010006D8C0008818C0008958C000800000000A1
:10002000000000000000000000000000A98C000893
:10003000BD8C0008000000009D560008A365010863
:10004000858A0408898A04088D8A0408EF650108F6
:10005000918A0408219E0008259400081B96000838
:100060004397000839980008958A0408998A04087B
:100070009D8A0408A18A0408A58A0408A98A04089C
:10008000359900085D9A0008AD8A0408B18A040811
:10009000B58A0408B98A0408BD8A0408D99B0008F7
:1000A000C18A0408C58A0408C98A0408CD8A0408DC
:1000B000D18A0408D58A0408D98A0408DD8A04088C
:1000C000E18A0408E58A0408E98A0408D58C000856
:1000D000ED8A0408F18A0408F58A0408F98A0408FC
:1000E000419B0008159D0008FD8A0408018B040847
:1000F000058B0408098B04080D8B0408118B040878
:10010000158B0408198B04081D8B0408218B040827
:10011000258B0408298B04082D8B0408318B0408D7
:10012000358B0408398B04083D8B0408418B040887
:10013000458B0408498B04084D8B0408518B040837
:10014000558B0408598B04085D8B0408618B0408E7
:10015000658B0408698B04086D8B0408718B040897
:10016000758B0408798B04087D8B0408818B040847
:10017000858B0408898B04088D8B0408918B0408F7
:10018000958B0408998B0408DFF8840B007870477E
:100190002DE9F04798B002F085FC0446DFF8740BB7
:1001A000856BDFF8746B376826E098F81910D8F87B
:1001B0001000D8F804208018D7F820215269904701
:1001C000002802D0384602F0ABFD00213846D9F8AD
:1001D000042092699047022802D1012088F8160075
:1001E00001213846D9F8042092699047022802D1AB
:1001F000384602F08BFE3F68B74242D097F90800BC
:100200001A28F8D01B28F6D00728F4D00B2807DBD3
:100210000E2805D00F2803D0102801D01828EAD1C5
:100220000628E8D007F10808D8F84800002804D5C7
:10023000D4F880100818C8F8480007F590794FF0F6
:10024000FF313846D9F80420926990478246BAF1C6
:10025000010F05D198F84C00D7F82011096988479B
:10026000BAF1020FB1D197F9080001289DD1687A3F
:1002700000289AD0A87F012897D1384602F050FD77
:10028000A3E7D4E91C01002901D100280CD00A20E1
:100290008DF8020002208DF80000D4F88000ADF83F
:1002A000580000A803F0F4FA012018B0BDE8F08768
:1002B00030B585B004460D46CA208DF80000288868
:1002C000ADF801000220ADF80300BDF80100001DEB
:1002D00003F034FCCDF8090002220DF1030103F014
:1002E00055FC02222946DDF80900801C03F04EFC73
:1002F0002A882146DDF80900001D03F047FC002094
:10030000288000A9DFF8140A03F05EFC05B030BDB8
:1003100042F23411081A322801DA01207047002015
:10032000704780B503F091FC407B002804D002F0B8
:10033000C5FBDFF8EC19086001BD80B502F0BEFB1B
:10034000DFF8E019086001BD80B502F0C0FBDFF8FE
:10035000D829C2E9000101BDDFF8C809006870476B
:10036000DFF8C429D2E90001704770B582B00446B5
:100370000020009004F10C05FFF7EEFFE96F401A32
:100380000090E96AC968DFF8A4295118081800909C
:10039000687DAB7DEE68E4686968891B994205D188
:1003A000042200A9001903F0F1FB73BD042200A987
:1003B00034191B19C01803F0E9FB73BD70B582B086
:1003C000044600200090054604F19006307A01288A
:1003D00034D104F10800016C01290CDB8168827EB4
:1003E00091FBF2F1012908D0006BC0684FF47A71DB
:1003F0004843009001E00120009094F908000C2887
:1004000001D011280ED1FFF7A7FFD4E92423801AC9
:100410000090DFF818190818009001460FF26810D4
:1004200003F07EFC2846C4F814017822014604F14A
:100430009C0004F0B1F92846307288E094F9080075
:100440000C2801D0112821D1FFF786FFD4E92423FD
:10045000801A0090FFF780FF2946D4E924239942AF
:1004600009D801D3904206D26420009001460FF2D1
:10047000301003F055FC0098DFF8B0180818009011
:1004800001460FF2301003F04BFC26E0FFF768FF47
:10049000D4E9242300F0ACF8009004F10800006BCC
:1004A000C0680099002914D09DED000AB8EE400AFA
:1004B00000EE900AF8EEE00A9FED661A60EE810AFF
:1004C000B7EE081A60EE810AF4EE400AF1EE10FA77
:1004D00003D54FF47A714843009094F908000C2832
:1004E0002CD011282AD0D4F81401411CC4F81411BE
:1004F00004EB80000099C0F89C10284605E004EB4E
:100500008001D1F89C104D19401CD4F81411884278
:10051000F5DBB5FBF1F00090D4F814011E280DDBDB
:100520001D20C4F81401002006E004EB8001D1F87E
:10053000A020C1F89C20401C1D28F6DB04F58A7021
:100540000179012903D1002101715020009004F1AB
:100550000800042200A9437E05694068281818187D
:1005600003F014FB94F908000C2801D0112805D1E0
:10057000FFF7F2FE0021C4E9240173BDFFF7F0FE8E
:10058000C4E9240173BD0000466972737420546984
:100590006D652064696666203D20256400000000CA
:1005A00054696D655F646966665F6F766572203D4C
:1005B0002025640054696D655F64696666203D208E
:1005C000256400000020DFF84C178A68D26A926820
:1005D0000969C96A8968002903D4012A02DB8A42B1
:1005E00000DA0120002801D0022070470420704763
:1005F00038B52DED028B04460D4610461946A9422A
:1006000005D801D3A04202D29FED138A01E09FEDED
:10061000138A04F0CBF800EE100A30EE088A204668
:10062000294604F0C3F800EE100A38EE400ABCEE8A
:10063000C00ADFF8FC16B8EEC00AD1ED010A20EEC0
:10064000200ABCEEC00A10EE100A0860BDEC028B56
:1006500032BD000000007A44000080460000000027
:1006600030B41488651C1580052565541488651CF4
:100670001580635413885C1C1480007A585430BC75
:10068000704732B515461C4621884A1C2280372205
:100690004A5521884A1C2280007A4855022200A926
:1006A0002088401903F072FA2088801C208031BD18
:1006B0002DE9F041054616461F4605F10808069C3F
:1006C000A4B298F81A0004FB00F2D8F80400091844
:1006D0003888801903F05AFA388898F81A1061435C
:1006E00011FA80F038803888FFF712FE002803D016
:1006F00039463046FFF7DCFD95F9080016280AD187
:10070000D8F81000D8F80410415C0FF21000BDE8D2
:10071000F04103F005BBBDE8F08100002323205326
:1007200068616B652025640030B400F110039B7C88
:10073000914203D1006990FBF3F00DE00C461546A1
:1007400003D2281B90FBF3F006E00069001B90FB2E
:10075000F3F095FBF3F1081880B230BC704700F15C
:1007600010018A688B7CD2188A600069824201D1AC
:100770000020886000208873704770B582B00446FE
:100780000D461E4692B289B2FFF7CEFF0090069B3F
:10079000324629462046FFF78BFF73BDF8B5044665
:1007A00015461E462269002D00D11546069F00976A
:1007B000FFF7E3FF2069854206DA009733462A46B1
:1007C00000212046FFF7D9FFF1BD2DE9F04184B0AB
:1007D00004460F469046A1696069002816D5002599
:1007E0000A4692B289B22046FFF79EFF064643466C
:1007F0003A4631462046FFF744FFA269CDF8008013
:100800003B4611462046FFF7C9FF39E0814217DA1F
:1008100001250A4692B2014689B22046FFF784FFBD
:10082000064643463A4631462046FFF72AFFCDF8B2
:1008300000803B46A26961692046FFF7AFFF1FE0D9
:100840000225884206D00A4692B2014689B2204665
:10085000FFF76AFFA26992B2616989B22046FFF789
:1008600063FF064643463A4631462046FFF709FFF6
:10087000CDF800803B46A26961692046FFF77DFF05
:10088000A06B80680290A0690190606900902B467F
:10089000324694F908100FF20C0003F041FABDE85B
:1008A000FF8100005061636B203D2564202564209A
:1008B00025642025642025642025640070B582B05D
:1008C00004460D461646A06C012811DAA07F0128C7
:1008D00011D133462A4601212046FFF7D2FE0120DE
:1008E000009033462A46A1692046FFF7E1FE02E068
:1008F0002046FFF76AFF0123324629462046FFF7CC
:10090000AFFE00206061A061A36CE26C94F9081056
:100910000FF20C0003F004FAA06CE06473BD000059
:10092000666C7573682025642025642025640000AA
:100930002DE9F84304460D46164602F0B3F8814609
:1009400003F083F9804604F10807B87D00280ED033
:100950002046FFF733FD94F908000C2807D1012049
:1009600084F81901D4F81C01401CC4F81C01386C2F
:100970000128C0F2DC8098F80E00002848D0B87D2D
:10098000002800F01C81786CD9F88010401A786437
:10099000B87E3969FA68531A834205D0002A33D1E8
:1009A000BA68511A81422FD194F90820397E0FF28A
:1009B000142003F0B5F9397E00291ED094F90820DF
:1009C0000FF2182003F0ACF93869B97E421892B2E0
:1009D000F96889B22046FFF7A7FE33462A4601464A
:1009E0002046FFF74EFE00962B463869B97E421826
:1009F000F9682046FFF7D2FE06E04FF0FF30F860BE
:100A0000FFF7AAFCC4F888002046BDE8F243A6E63A
:100A100098F80E00002840F0D280786CD9F8801049
:100A2000401A7864F96811F1010F10D1B87D0028DF
:100A300002D02046FFF793FE2046FFF796FC324691
:100A400029462046FFF7C1FE3869F860B7E0012863
:100A50004CDA386C7864386BD0F80C8094F9083034
:100A60008268396C0FF2901003F05AF994F908007B
:100A70000C281FD0B868B97E90FBF1F0396C91FB5F
:100A8000F8F1814202DB4FF0FF30F860B87D0028BA
:100A9000204607D0FFF763FE324629462046FFF77F
:100AA00094FE20E0FFF78AFC324629462046FFF7F5
:100AB0008CFE18E094F81901012814D1D4F81C0117
:100AC000B968BA7E91FBF2F1884202D14FF0FF3053
:100AD000F860324629462046FFF777FE0020C4F82A
:100AE0001C0184F819013869F86068E094F908007D
:100AF0000C2815D1D4F81C01B968BA7E91FBF2F12B
:100B000088420DD14FF0FF30F8603246294620462A
:100B1000FFF75BFE0020C4F81C0184F819014EE0C9
:100B2000B87D00284BD02046BDE8F24317E6B87DDB
:100B3000002844D094F9080098F80A1000291FD022
:100B4000072807D00D2805D0162803D01A2801D071
:100B50001B282FD133462A4601212046FFF791FD5D
:100B60000120009033462A4639692046FFF7A0FD50
:100B70007A7894F908100FF2940003F0D1F819E094
:100B8000092809D194F87210012905D10FF28C00BF
:100B9000BDE8F44303F0C4B833462A460121204699
:100BA000FFF76FFD0120009033462A463969204641
:100BB000FFF77EFD2046FFF7D2FD3869F860BDE8FB
:100BC000F183000073757370656E64206669666FEB
:100BD0002066756C6C202564202564007375737025
:100BE000656E64206669666F2066756C6C203220C5
:100BF00025642025640000006669666F2066756CB8
:100C00006C33202564202564202564004150205346
:100C1000757320256420256400000000233E6C7558
:100C2000785F73617420256400000000F8B5044605
:100C30000D463848466896F8730001281DD10020FB
:100C400086F873002888411C29800821015500205E
:100C5000ADF8000007460EE006EB8700006EADF829
:100C60000000022200A92888001902F08FFF2888BE
:100C7000801C28807F1C032FEEDBF1BDF8B50446F5
:100C80000D46FFF7D3FF244E376805E02A4621467C
:100C90003846FFF74DFE3F68B742F7D1F1BD2DE969
:100CA000F04104460D461B4EF76907F10C0898F811
:100CB0001510D8F80C00FA688018D7F8202152696E
:100CC000904700280AD0012088F81200787A00287E
:100CD00004D02A4621463846FFF72AFEB66906F1B7
:100CE0000C07797DF868F2688018D6F820215269DF
:100CF0009047002809D00120B874707A002804D0E9
:100D00002A4621463046FFF713FE0120BDE8F08158
:100D100070BE0120CCAA01202C5000204CDE002007
:100D2000F4BD0120F8BD012068BD012000CA9A3B36
:100D3000F8DB00200288D21C02800A80704780B550
:100D40000B889B1AADF80030BDF80030002B09D09D
:100D50001018012100F8031C022200A9801E02F0D5
:100D600015FF01BD0888C01E088001BD2DE9F04FA8
:100D7000ADF68C2D04460D4601F094FE064602F0B9
:100D800064FF804610A840F6482103F043FD002090
:100D90008DF8020006A8282103F03CFD01A81421CB
:100DA00003F038FD0020ADF800000746D6E91C012D
:100DB000002902D1002800F02C8598F9090004F0E0
:100DC000DCF9002800F0258500A92846FFF7B2FFCE
:100DD000B8461CE0D6E91C01424604F039FC00F09C
:100DE000010011F0000101D100280ED0C8EB08105D
:100DF000DFF8581E01EB800292F90300012804D1AC
:100E00000DF1020110A8526B904708F10108B8F1EA
:100E10003C0FDFDBBA461BE029884A1C2A80807819
:100E200008552888FFF774FA00280DD0BDF8002077
:100E300029462046FFF783FF29462046FFF738FA68
:100E400000A92846FFF776FF0AF1010A4FFA8AFA4D
:100E50009DF80200824580F2D4842988481C2880AD
:100E600040F2491010FB0AF010AA825C0A5529884A
:100E70004A1C2A8010AA8618707808552988481CB0
:100E80002880701C42780A554178032927D0092907
:100E900000F09A810C2900F075811A2900F09182E6
:100EA0001B2900F0A4811C2900F0BB821D2900F041
:100EB000AE811E2900F0A682262900F0DE822C29B0
:100EC00000F00A832F2900F0E782302900F06183C7
:100ED000312900F08C83342900F0EA839CE7717893
:100EE000032904D129884A1C2A8082780A55298836
:100EF0004A1C2A80C2780A55C178C0290FD106F24F
:100F00002708B8F82E20D8F830102888001902F0E9
:100F10003DFE2888B8F82E100818288081E708467A
:100F2000E0284AD106F20506002035E056F82010E8
:100F30000A0222F0FF12090A01F0FF11114346F8DC
:100F400020104FEA314146F8201006EB80014A6834
:100F5000130223F0FF13120A02F0FF121A434A6031
:100F60004FEA32424A608A68130223F0FF13120AE2
:100F700002F0FF121A438A604FEA32428A60CA685E
:100F8000130223F0FF13120A02F0FF121A43CA6081
:100F90004FEA3242CA60001D1428C7DB50210FF609
:100FA0007C0002F0BDFE502231462888001902F074
:100FB000EDFD28885030288033E7791C000647D49F
:100FC00001A8321D52783A54C9B2B2790A54491C68
:100FD000C9B200220A544A1C06F20601D2B24B786A
:100FE0001354521CF389D2B21F0A1754521CD2B2A6
:100FF0001354521C06F20E03D2B29F781754521C9F
:10100000D2B2DB781354521CD2B2B37C1354521CAC
:10101000D2B2F37C1354521CD2B28B781354521CAC
:10102000D2B2C9781154511CC9B2B27A0A54491CBF
:10103000C9B2F27A0A544F1CFFB23A4601A9288875
:10104000001902F0A3FD288850FA87F02880E8E60E
:10105000D6F8052006A8130C3B54C9B2130A0B544A
:10106000491CC9B20A54491CD6F80920C9B2130C4C
:101070000B54491CC9B2130A0B54491CC9B20A5477
:10108000491CD6F80D20C9B2130C0B54491CC9B227
:10109000130A0B54491CC9B20A54491CD6F8112032
:1010A000C9B2130C0B54491CC9B2130A0B54491C86
:1010B000C9B20A54491CD6F82720C9B2130C0B54E4
:1010C000491CC9B2130A0B54491CC9B20A54491C21
:1010D00006F22708C9B298F804200A54491CC9B27C
:1010E00098F805200A54491CB8F80620C9B2130A1A
:1010F0000B54491CC9B20A54491CC9B298F80820BB
:101100000A54491CD6F81520C9B2130C0B54491CBB
:10111000C9B2130A0B54491CC9B20A54491CD6F867
:101120001920C9B2130C0B54491CC9B2130A0B5431
:10113000491CC9B20A54491CD6F81D20C9B2130C67
:101140000B54491CC9B2130A0B54491CC9B20A54A6
:10115000491CD6F82120C9B2130C0B54491CC9B242
:10116000130A0B54491CC9B20A544F1CFFB23A4629
:1011700006A92888001902F009FD288850FA87F08E
:1011800028804EE6F11CB1F90300C0F3072242EAC1
:101190000020A1F80300B1F90700C0F3072242EADA
:1011A0000020A1F80700B1F90500C0F3072242EAC8
:1011B0000020A1F8050009222888001902F0E6FCA9
:1011C0002888093028802CE629880B467278032A63
:1011D00008D10222F11C181902F0D8FC2888801CC2
:1011E00028801EE6491C29808078185519E6298830
:1011F0004A1C2A8080780855707805287FF411AE43
:101200002888411C2980311D4978015509E606F1DD
:1012100003087078012840F0C4802888411C298088
:1012200098F8041001554FF00009A1E0C9EB4910EE
:1012300000EB080BDBF81800010221F0FF11000A97
:1012400000F0FF100843CBF818004FEA3040CBF80D
:10125000180004220BF118012888001902F096FCEE
:101260002888001D2880DBF80800010221F0FF110A
:10127000001200F0FF100843CBF80800C0F30F4144
:1012800041EA0040CBF8080004220BF1080128884D
:10129000001902F07BFC2888001D2880DBF80C0078
:1012A000010221F0FF11001200F0FF100843CBF8FB
:1012B0000C00C0F30F4141EA0040CBF80C000422BF
:1012C0000BF10C012888001902F060FC2888001D31
:1012D0002880DBF81000010221F0FF11001200F05D
:1012E000FF100843CBF81000C0F30F4141EA004063
:1012F000CBF8100004220BF110012888001902F02D
:1013000045FC2888001D2880DBF81C00010221F024
:10131000FF11000A00F0FF100843CBF81C004FEA51
:101320003040CBF81C0004220BF11C012888001966
:1013300002F02CFC2888001D2880BBF81600010A4A
:1013400041EA0020ABF8160002220BF116012888B2
:10135000001902F01BFC2888801C2880411C298071
:1013600080B2DBF82010015509F101095FFA89F913
:1013700098F804008145FFF659AFB6F84321D6F836
:1013800045112888001902F001FC2888B6F843119D
:1013900008182880B6F843110FF2904002F0C0FC04
:1013A0003FE505287FF43DAD2888411C298098F849
:1013B000021001552888411C298098F80310015516
:1013C0002FE5F11C7078032804D12888421C2A805C
:1013D000B27A0255D1F80100020222F0FF12000A8F
:1013E00000F0FF101043C1F801004FEA3040C1F88F
:1013F000010007222888001902F0C8FB2888C01DB8
:1014000028800EE5F11C0888020A42EA00200880C4
:1014100002222888001902F0B9FB2888801C288045
:10142000FFE4F11C7278012A7FF4FBAC807801287C
:1014300015D12888421C2A8009780155B288D6F82F
:1014400006102888001902F0A1FB2888B188081826
:101450002880B1880FF2E83002F062FCE1E4022853
:101460007FF4DFAC2888421C2A800A78025528883D
:10147000421C2A80C9790155D3E4F11C0888020A6C
:1014800042EA0020088002222888001902F07EFB30
:101490002888801C2880C4E4F01C29884A1C2A80E3
:1014A00001220A5529884A1C2A8005220A552988C2
:1014B0004A1C2A80C1220A5529884A1C2A8042795E
:1014C0000A5529884A1C2A8042780A5529884A1CCC
:1014D0002A8080780855A4E4F61C29880B463078C9
:1014E000020727D5481C2880307818552888411CC9
:1014F0002980F17901552888411C2980317A0155CC
:10150000D6F80900010221F0FF11000A00F0FF10D7
:101510000843C6F809004FEA3040C6F80900042223
:1015200006F109012888001902F030FB2888001D07
:10153000288076E4400721D5481C2880307818554B
:101540002888411C298071780155D6F803000102D2
:1015500021F0FF11000A00F0FF100843C6F8030055
:101560004FEA3040C6F803000422F11C2888001915
:1015700002F00CFB2888001D288052E4B278D6F8CF
:101580000D10181902F002FB2888B1784018288045
:1015900047E4F61C3068010221F0FF11001200F050
:1015A000FF1008433060011441EA0040306004221B
:1015B00031462888001902F0E9FA2888001D2880A1
:1015C0007068010221F0FF11001200F0FF100843C3
:1015D0007060011441EA004070600422311D2888C7
:1015E000001902F0D3FA2888001D288019E4F61C9F
:1015F0003068010221F0FF11001200F0FF100843D3
:101600003060C0F30F4141EA0040306004223146AF
:101610002888001902F0BAFA2888001D288070680E
:10162000010221F0FF11001200F0FF10084370606A
:10163000C0F30F4141EA004070600422311D288848
:10164000001902F0A3FA2888001D2880B068010262
:1016500021F0FF11001200F0FF100843B060C0F34A
:101660000F4141EA0040B060042206F108012888D9
:10167000001902F08BFA2888001D2880F06801020A
:1016800021F0FF11001200F0FF100843F060C0F3DA
:101690000F4141EA0040F060042206F10C01288865
:1016A000001902F073FA2888001D2880FFF7B9BBE3
:1016B000F61C3068010221F0FF11001200F0FF104B
:1016C00008433060011441EA004030600422314692
:1016D0002888001902F05AFA2888001D28807068AE
:1016E000010221F0FF11001200F0FF1008437060AA
:1016F000011441EA004070600422311D288800195D
:1017000002F044FA2888001D2880B068010221F008
:10171000FF11001200F0FF100843B060011441EA0D
:101720000040B060042206F108012888001902F088
:101730002DFA2888001D2880F2683369F068316925
:101740001B0243EA1263120222F0FF1223F0FF137E
:10175000000A40EA0160090A00F0FF1001F0FF11E1
:1017600010431943F0603161D6F80C80D6F8109020
:10177000F06831694FEA094949EA1849DFF8D0248D
:10178000134602EA084209EA03039046000C40EAC5
:1017900001404FF6FF7210404246104353EA114198
:1017A000F0603161F2683369F068316913460846C8
:1017B00000211943F0603161F0683169082206F1B7
:1017C0000C012888001902F0E1F9288808302880E7
:1017D0007069010221F0FF11001200F0FF100843B0
:1017E0007061011441EA00407061042206F11401A5
:1017F0002888001902F0CAF92888001D2880FFF700
:1018000010BBBDF8002029462046FFF798FA03F0E8
:10181000E2FC0DF68C2DBDE8F08F00005044205303
:10182000462053656E742564000000004F4A483A14
:1018300020415442442073697A653A2025640000AF
:101840004F4A483A20415044522073697A653A2001
:10185000256400002DE9F04105460E4602F0F5F939
:101860000746DFF8F0432078401C20706078F021B4
:10187000084202D0992003F0FFFE03F073FF607866
:10188000401C607097F81C80B8F1000F27D030889A
:10189000404480B2FEF73CFD002803D03146284684
:1018A000FEF706FD3088411C318003214155308808
:1018B000411C318000F80580424607F11D01308847
:1018C000401902F063F93088404430804FF4FA72D6
:1018D000002107F11D0002F05FFF002038776078DB
:1018E000F021084202D0992003F0C6FE6078401E25
:1018F0006070C0B2002801D103F02EFFBDE8F041B6
:1019000004F01ABA38B504460D4602F09EF9817A01
:10191000002909D1417B002906D129884A1C2A8047
:1019200006220A550121417331BD38B504460D46E2
:10193000288800280CD02046FFF78CFF2946204637
:10194000FFF7E0FF29462046BDE83440FEF7B0BC73
:1019500031BD14B585B0049101A900221346144687
:101960001CC10A21ADF8001004218DF804108DF877
:1019700005000A4605A90DF1060002F007F9042248
:1019800004A90DF10A0002F001F900A901A8FEF76F
:101990008FFC06B010BD80B502F057F94FF4967178
:1019A00002F0DEFB07208DF802000120ADF80000F8
:1019B00000A90DF10200FEF77BFC01BD2DE9F0430B
:1019C00083B005460F46904602F03FF98146002657
:1019D000D5F80900041D28780146012900F0868009
:1019E0000F2939D035294AD036293FD040294FD048
:1019F0007F2936D0802900F0A580812900F0AC80B5
:101A0000822900F0A980852900F0A680862900F0AF
:101A1000A380882900F0A0808A2900F0A5808B2966
:101A200000F0C0808C2900F0CC808D2900F0D78098
:101A3000DD2900F0E180DF2900F0F580F0292CD0CD
:101A4000F4293DD0F62946D0F82964D0F92952D09E
:101A5000FF2900F0C9807CE099F81A00207001206D
:101A600078E099F812022070012073E004F004FF7E
:101A700015220146204602F089F801206AE0012083
:101A800006F03FFE304606F040FE0120207061E087
:101A9000204606F059F901205CE004226E492046F8
:101AA00002F074F807F0B5FD002804D108F06EFECE
:101AB000012007F0AAFD012009F04AFD012049E0BC
:101AC000484602F0F7FA082209F11001204602F018
:101AD0005DF801203EE00322214630465F4B9B68C3
:101AE000D3F820311B6A9847012033E0204609F0E3
:101AF000EBFE01202EE0B5F80120B5F80300C01080
:101B0000C0EB0011D5F8050000EB8111204602F072
:101B10003DF801201EE03046ADF80400012069794F
:101B2000012900D1032008F0DDFF09F016F8ADF817
:101B3000040009F029F8022201A9204602F026F843
:101B4000012007E0D5F8050020702146304601F05D
:101B5000A0FA3046BDE8FE8331462170214600F0F0
:101B60007F0001F096FAF4E7012020703B484568B9
:101B70003746287F002801D13046EBE7687A0028F5
:101B800004D1D5F820014068804707462046D5F8A3
:101B90002011C9698847002FDBD0D5F82001806863
:101BA0008047D6E70120B5F80310C1F3C101091D34
:101BB000884040F0020020702146012001F069FABF
:101BC000C7E799F8000020700120607099F80500BF
:101BD000A07099F80600E07001202071BAE7204655
:101BE00009F086FE0646B4E704F10802211D2046EE
:101BF00009F052FD0120ADE76879184951F82050ED
:101C0000687A00280BD0424639462846FEF756FE31
:101C10001349082009F02EFF0120207001E0304612
:101C20002070012096E768790C4951F82050286906
:101C300095F8221090FBF1F0401E0090042200A9BC
:101C4000204601F0A3FF012084E70000A02F01201F
:101C50000000FFFF08DA002014DC0020CCAA0120DD
:101C6000F41301202DE9F041B6B0064601F0EDFF76
:101C7000054600F017FF8046D6F80900041D3078AD
:101C8000002102914FF0FF3119910F460146312991
:101C900000F06081322900F06781332900F0738100
:101CA000342900F07A81372900F07F807D2900F007
:101CB000B880A12900F08D81A22900F0D981A42942
:101CC00000F0E481A52900F08C80A62900F08F8027
:101CD000B12900F05B84B22900F03386B82900F006
:101CE000F081C12900F00F82CD2900F0B280CE2909
:101CF00000F0C780D02932D0D12928D0D22933D0C2
:101D0000D32937D0D42939D0D6295AD0D72958D079
:101D1000D8295ED0D9295CD0EC2900F08C80F1293B
:101D20006BD0F22900F0C680F52900F0E780F72992
:101D300000F0FC80FA2900F05286FB2900F0528660
:101D4000FD2900F0E780FE2900F05686FEE0002124
:101D5000284602F012FA0020A8730120F7E00020C4
:101D600009F0F6FB0120F2E00121284602F005FA15
:101D70000120ECE00020A8720120E8E00120A87218
:101D8000002068730120A873DFF8800C016808E068
:101D90008A6B92F91420012A02DB012281F81821B2
:101DA00009688142F4D10120D1E000222146104689
:101DB000DFF85C3C1B68D3F820311B6A9847012090
:101DC000C5E0D62801D1012000E00020E872012002
:101DD000BDE0D92801D1012000E0002028730120B6
:101DE000B5E0D6F8090009F0CEFE0120AFE0D6F844
:101DF000090009F0FDFF0120A9E000200DE000EB43
:101E00000801025D81F88420022805D108F18401CF
:101E1000025DCA70025D0A71401C0328EFDB0120DD
:101E200095E0207802F026F908F18401487088F8DE
:101E3000840001208BE0237840F2A172DFF8D41BEC
:101E4000DFF8D40B01F06CFF207806F047FA012090
:101E50007DE0002511E0DFF8B80B466806EB85064B
:101E6000022204EB450106F1600001F08FFE316EA5
:101E7000DFF8A80B01F054FF6D1C032DEBDB0120F4
:101E800065E0002512E0DFF8880B066806EB4506E2
:101E9000022204EB450106F1580001F077FEB6F985
:101EA0005810DFF87C0B01F03BFF6D1C032DEADBC3
:101EB00001204CE0D5E9040100F0800011F00001A0
:101EC00003D1002801D1012041E008F184012078EC
:101ED000627812EB0020C880A078E27812EB002034
:101EE000088104212046DFF8282BD269D2F820216E
:101EF00092699047002829D0012028E0032221463A
:101F00000120DFF80C3B9B68D3F820311B6A98470F
:101F100001201CE01B2221460720DFF8F43A9B68D1
:101F2000D3F820311B6A9847012010E0DFF8E00A5F
:101F30008669D6F8200180688047002806D00122F3
:101F400021460520D6F820311B6A9847002036B07C
:101F5000BDE8F08106F0DDFB012801D10120F6E7A4
:101F6000204606F04DFBF1E706F0D3FB012801D136
:101F70000120ECE7204606F070FB20780028E5D031
:101F800006F0A8FBE2E706F0C4FB012801D101201E
:101F9000DDE7207806F0A5FBD8E706F0BAFB0128BC
:101FA00001D10120D3E7DFF87C0A01F0B9FE00205F
:101FB00006F0A7FB012006F07DFA04F030FE0120B8
:101FC00006F0A3FB207806F0A7FB06F0DDFA01205F
:101FD000BDE794F900500422611C02A801F0D6FD6F
:101FE000B6F80100062806DB0422611D19A801F0DD
:101FF000CDFD94F909702846DFF8141A042802D19F
:102000000A690023937251F8206000F04BFDD0E97B
:102010001C23C2F3401800F045FDD0E91C23C2F395
:102020008020804400F03EFDD0E91C23C2F38000F4
:1020300000EB080296F90800072804D1717A0029FC
:1020400001D0002A04D0182809D1707A002806D0BF
:10205000717ADFF8D40901F063FE012077E7009779
:10206000199B00220299284601F080F820706DE744
:1020700094F900500422611C02A801F087FD00239E
:102080001A460299284601F043F960E794F9005096
:102090000422611C02A801F079FDB6F801000628AF
:1020A00006DB0422611D19A801F070FD94F9097086
:1020B0000097199B00220299284601F0A8F9207088
:1020C00044E720780146032904D01A2910D02C298E
:1020D0000ED011E060780DF10D025070012805D18D
:1020E000A0788DF80F00204601F068FB01202EE754
:1020F000204601F063FBF9E794F9011040B200209B
:10210000C046C0B223E720780146491E51D00D39A0
:102110000DD0C91E55D0491E032921D9091F00F031
:10212000A680491E00F0048119393AD016E20E202B
:102130008DF80C0060780DF10D025070A1788DF8CB
:102140000F10E2780DF10F035A700023ADF8113033
:1021500052B249B240B202F061F801F02DFBFDE14C
:102160008DF80C000146122903D10DF10D006278A3
:102170004270132902D160788DF80F00142903D121
:102180000DF10F0062784270152903D10DF10D0099
:102190006178417062782178DFF8900801F0C0FD25
:1021A000DCE130208DF80C000DF10D0061784170FC
:1021B000D4E101208DF80C000DF10F006178417021
:1021C000CCE10DF10D0061784170A0788DF80F0021
:1021D0000DF10F00E178417020798DF81100002891
:1021E00002D001281FD030E06079A179090401EB09
:1021F0000060E17900EB0120217A4018CDF812004F
:102200000DF11206607AA17A11EB0020B080E07A1D
:10221000217B11EB0020F080607BA17B11EB002083
:10222000ADF81A0011E06079A17911EB0020ADF84A
:1022300012000DF11206E079217A11EB0020708076
:10224000607AA17A11EB0020B0801AA80DF10E017E
:102250000E2209F0A3FF1AA80FC802F002F902F03B
:1022600067F9012840F07A8101F0FBFA76E16078A5
:10227000A178090401EB0060E17800EB01202179ED
:102280004018CDF80E006179A279120402EB0161C9
:10229000E27901EB0221227A8918CDF81210627AD4
:1022A000A37A1B0403EB0262E37A02EB0322237B93
:1022B000D2180DF112067260637B8DF81A30A37B81
:1022C0008DF81B300DF11B03E57B5D70257C9D7047
:1022D000657CDD70A57CE67C16EB05252DB29D8026
:1022E000267D05EB0625667DAD19DD80A57D1D7279
:1022F000002803D1002901D1002A0CD00DF10E01D4
:1023000084B06846162209F049FF0FBC02F036F986
:1023100002F016F901E002F018F90DF10E0184B097
:102320006846162209F03AFF0FBC01F086FA15E163
:1023300060788DF80D001D283ED10DF11206A178B0
:102340007171A17801290DD1E178227912EB012177
:10235000ADF80E1089B20A460146DFF8D40601F046
:10236000DFFCFBE002290BD1E078217911EB0021A1
:10237000ADF8101089B2DFF8BC0601F0D1FCEDE039
:1023800003290AD1E078217911EB0021F18089B28B
:10239000DFF8A40601F0C4FCE0E0042940F0DE8090
:1023A000E078217911EB0021ADF81A1089B2DFF83D
:1023B0008C0601F0B5FCD1E0032828D1A1780DF1FD
:1023C0005E056970DFF8780601F0AAFC68780128DC
:1023D00016D10020142880F2C18004EB8001CA7855
:1023E0000B791B0403EB02624B7902EB0322897920
:1023F000511803AA02EB8002C2F80210401CE9E760
:10240000022840F0AB80E0788DF85E00A6E01C2842
:1024100027D1A0788DF81100A078012808D1E178A3
:102420000DF10D025170DFF81C0601F079FC95E00A
:10243000022807D1E1788DF80F10DFF80C0601F0C3
:102440006FFC8BE0032800F08980052840F086802F
:10245000E1780DF10F035970DFF8F00501F060FC31
:102460007CE02C2830D10DF11200A1788171A07888
:10247000012803D1E0788DF812006FE0022806D120
:10248000E078217911EB0020ADF8190066E003280F
:1024900006D1E078217911EB0020ADF81B005DE05A
:1024A000042807D1E078217911EB00200DF11B0100
:1024B000488053E0052851D1E078217911EB0020C4
:1024C0000DF11B01888049E0372803D1204609F02F
:1024D000D5FF43E030281BD1A0788DF80F00A078FD
:1024E000012804D10DF10D00E178417036E0022899
:1024F00034D140F65922DFF81C15DFF8540501F0FD
:102500000FFCB6F80110E01C0AF09EFF01201EE54A
:10251000342823D10DF11200A1780171A07801288F
:1025200017D10DF10E00E1782279120402EB01615E
:10253000627901EB0221A279891800EE101AB8EE37
:10254000C00ADFED850A80EE200A10EE101A016045
:1025500004E0022802D1E078CDF8120006208DF8C0
:10256000780020788DF879000DF17B0003A95522C1
:1025700009F014FE0DF179000B2141700020ADF837
:10258000D0001EA801F084F9C0B2E0E42078014632
:102590003C2905DBDFF8BC0401F0C2FB0020D6E4D7
:1025A000C1EB0112DFF8B01401EB8201897E012931
:1025B00040F09381014603292ED006296BD00929CA
:1025C00031D00C294BD00D2957D0192900F0968015
:1025D0001A296DD01B2900F0A6801C2900F0E58087
:1025E0001D2900F0BB801E2900F0ED80262900F097
:1025F000F880272900F003812C2900F028812D295B
:1026000000F03E812F2900F05081302900F04681F2
:10261000342900F056815BE10322611C0DF10E00AC
:1026200001F0B4FA59E10722611C0DF10E0001F02E
:10263000ADFABDF80E00010A41EA0020ADF80E0027
:10264000BDF81000010A41EA0020ADF81000BDF805
:102650001200010A41EA0020ADF812003DE1032218
:10266000611C0DF10E0001F091FABDF80F00010A96
:1026700041EA0020ADF80F002FE10322611C0DF1AB
:102680000E0001F083FABDF80F00010A41EA0020B4
:10269000ADF80F0021E10122611C0DF10E0001F0E7
:1026A00075FA0DF10D004178EC4801F039FB14E1A9
:1026B0000B22611C0DF10E0001F068FADDF80F002D
:1026C000010221F0FF11000A00F0FF100843CDF8CD
:1026D0000F004FEA3040CDF80F000DF11206708860
:1026E000010A41EA00207080002396F9062096F93D
:1026F000051096F9040001F091FDEEE00622611C40
:102700000DF10E0001F042FABDF80E00010A41EA97
:102710000020ADF80E00BDF81200010A41EA0020C9
:10272000ADF81200D9E00422611C0DF10E0001F099
:102730002DFABDF80E00010A41EA0020ADF80E00A6
:10274000BDF81000010A41EA0020ADF81000C448AD
:1027500001F0E6FAC1E000BF00401C460922611CFE
:102760000DF10E0001F012FABDF80E00010A41EA67
:102770000020ADF80E00BDF81000010A41EA00206B
:10278000ADF81000BDF81200010A41EA0020ADF8D2
:1027900012000DF11206002396F9042096F9031099
:1027A00096F9020001F03AFD97E00DF10D00617815
:1027B0004170A0788DF80F00A27861780FF2A82000
:1027C00001F0AEFA89E00322611C0DF10E0001F068
:1027D000DDF9BDF80F00010A41EA0020ADF80F0055
:1027E0007BE00522611C0DF10E0001F0CFF9BDF870
:1027F0000F00010A41EA0020ADF80F006DE00A2247
:10280000611C0DF10E0001F0C1F9BDF90E00C0F31D
:10281000072141EA0020ADF80E00BDF91000C0F319
:10282000072141EA0020ADF81000BDF91200C0F305
:10283000072141EA0020ADF812000DF11206B6F9A9
:102840000200C0F3072141EA0020708045E0082221
:10285000611C0DF10E0001F099F9BDF81000010A9C
:1028600041EA0020ADF810000DF11206002396F9A0
:10287000032096F9021096F9010001F0CFFC2CE03C
:102880000222611C0DF10E0001F080F9BDF80E006E
:10289000010A41EA0020ADF80E001EE00222611C90
:1028A0000DF10E0001F072F917E00DF10D00E17865
:1028B000417020798DF80F000DF10F0061794170A2
:1028C0000BE00922611C0DF10E0001F05FF904E03C
:1028D0008DF80C0060788DF80D00207801460529F0
:1028E00008D1604801210170687A002810D108469B
:1028F000FFF72DBB18290BD18DF80C0060788DF8EF
:102900000D000DF10D00A1784170E0788DF80F00F9
:1029100000208DF8780020788DF879000DF17B008B
:1029200003A9552209F03AFC0DF179000B21417001
:102930000020ADF8D0001EA800F0AAFFC0B2FFF73B
:1029400006BB207801463C2906DB0FF22C1001F073
:10295000E7F90020FFF7FBBA052905D1414800211E
:1029600001700120FFF7F3BA1A291CD10822611C5B
:102970000DF10E0001F00AF9DDF80F00010221F05F
:10298000FF11000A00F0FF100843CDF80F004FEAD6
:102990003040CDF80F000DF112067088010A41EAAF
:1029A0000020708005E02C2903D10DF10D00617825
:1029B000417001208DF8780020788DF879000DF1B4
:1029C0007B0003A9552209F0E9FB0DF179000B21E9
:1029D00041701EA800F05CFFC0B2FFF7B8BA01203A
:1029E000FFF7B5BA2078002803D10FF2AC000BF046
:1029F00097F90120FFF7ABBA04F10802211D204628
:102A000008F008FE0120FFF7A2BA00002C500020B9
:102A1000CCAA01200C74040824740408507404081F
:102A20005C74040868740408787404089C740408CE
:102A3000AC740408BC740408C8740408D474040892
:102A4000E0740408F4740408087504081C7504088C
:102A5000307504086C750408A02F012088750408DF
:102A60009475040870BE01204150445220414444F2
:102A700020256420256400004C696272617279200F
:102A800072616E6765206973206F7665722C2052C3
:102A9000656D6F766500000051505F524551554598
:102AA000535400000048704740AB012080B5FFF749
:102AB000F9FFDFF8541B4860012002BD80B508F023
:102AC0006BFEDFF8481BD1E90023801A02BD01F03C
:102AD000D5BD2DE9F8430446002005460646DFF83B
:102AE000301B496804F108073A697B6802EB030868
:102AF00094F90820002A15D1B8F90000B8F902505D
:102B0000B8F90460B7F85010411AA8F80010B7F8E7
:102B10005210691AA8F80210B7F85410711AA8F8E0
:102B2000041040E004F16C09012A27D1B8F8001024
:102B3000A4F86C10B8F80210A9F80210B8F8041044
:102B4000A9F80410B4F86C10BA6D891AA8F800102E
:102B5000B9F80210FA6D891AA8F80210B9F8041031
:102B60003A6E891AA8F80410B96DA8F80610F96D24
:102B7000A8F80810396EA8F80A1014E0B4F86C2010
:102B8000A8F80020B9F80220A8F80220B9F804201B
:102B9000A8F804200A6EA8F806204A6EA8F80820B3
:102BA000896EA8F80A1094F90810002951D1B8F9D3
:102BB0000010C913B1EBE03F14D0B7F95010C9139E
:102BC000B1EBE03F0ED00FF6602001F0A9F8B8F9A4
:102BD0000000012802DBDFF83C0A01E047F6FF7045
:102BE000A8F80000B8F90210C913B1EBE53F14D002
:102BF000B7F95210C913B1EBE53F0ED00FF63420F0
:102C000001F08EF8B8F90200012802DBDFF8040AAF
:102C100001E047F6FF70A8F80200B8F90410C913E4
:102C2000B1EBE63F70D0B7F95410C913B1EBE63FF2
:102C30006AD00FF60C2001F073F8B8F904000128EF
:102C400002DBDFF8D00901E047F6FF70A8F80400C6
:102C50005AE0012958D1B4F96C00B8F90010C91331
:102C6000B1EBE03F14D0B7F95810C913B1EBE03F16
:102C70000ED00FF6B41001F053F8B8F90000012897
:102C800002DBDFF8900901E047F6FF70A8F80000CA
:102C900004F16C09B9F90200B8F90210C913B1EBDB
:102CA000E03F14D0B7F95C10C913B1EBE03F0ED090
:102CB0000FF6801001F034F8B8F90200012802DBA9
:102CC000DFF8500901E047F6FF70A8F80200B9F9F3
:102CD0000400B8F90410C913B1EBE03F14D0B7F900
:102CE0006010C913B1EBE03F0ED00FF6541001F0A5
:102CF00017F8B8F90400012802DBDFF8180901E031
:102D000047F6FF70A8F8040094F90800002804D1E1
:102D1000002000E0401C0328FCDBBDE8F18300003C
:102D2000F8B50446A069E1684518002794F90860E1
:102D3000052E02D30E2E40F0B480012E01D00E2EAF
:102D400002D12046FFF7C5FE3046012804D9C01E37
:102D500002D00B3840F0A080002E01D14FF6FF7753
:102D6000DFF8A40840680E2E03D0301890F88400D5
:102D700001E090F88500401E062870D8DFE800F0DA
:102D80000413222F3E4D5E00B5F902002988791AFE
:102D9000B5F90420B5F90830B5F806C0A7EB0C0C5E
:102DA000B5F90A7067E02888381A6988791AB5F980
:102DB0000420EB88FB1AB5F808C0A7EB0C0CB5F99A
:102DC0000A7058E06888381AB5F90010B5F904207F
:102DD0002B89FB1AB5F906C0B5F90A704BE02888B3
:102DE000381AB5F90210AA88BA1AEB88FB1AB5F995
:102DF00008C0B5F80AE0A7EB0E073CE0B5F9020001
:102E0000B5F90010AA88BA1AB5F90830B5F906C0A4
:102E1000B5F80AE0A7EB0E072DE0B5F900006988C8
:102E2000791AAA88BA1AB5F90630B5F808C0A7EB1E
:102E30000C0CB5F80AE0A7EB0E071CE06888381AFE
:102E40002988791AAA88BA1A2B89FB1AB5F806C0FC
:102E5000A7EB0C0CB5F80AE0A7EB0E070BE0B5F9F1
:102E60000000B5F90210B5F90420B5F90630B5F93E
:102E700008C0B5F90A70012E07D14FF0000E01E02D
:102E80000EF1010EBEF1030FFADB28806980AA80E3
:102E9000EB80A5F808C06F81002E02D12046FFF715
:102EA00018FE0120F2BD000070B404680D681668B9
:102EB0005B1E062B27D8DFE803F004080D11161B54
:102EC00020000560604208601DE0624202606842C6
:102ED000086018E06A4202600C6014E06142016020
:102EE000704210600FE005600C60704210600AE0F4
:102EF000684208607042106005E06B420360604207
:102F000008607042106070BC7047000070B52DED15
:102F1000028B82B08169C2688A1890F9081008464D
:102F20000A2800F2AD80DFE800F0062B89ABAB6524
:102F3000ABABAB96A400B2F90240B2F90450DFF893
:102F4000C80641689FED860AB2F9000000EE900ABB
:102F5000F8EEE00A60EE800AC1ED000A00EE904A49
:102F6000F8EEE00A60EE800AC1ED010A00EE905A28
:102F7000F8EEE00A20EE800A081D80ED010A83E0E9
:102F8000B2F90240B2F90450DFF87C0641680E1D28
:102F90009FED748BB2F9000000EE100AB8EEC00A83
:102FA00010EE100A0AF048FF53EC182B0AF06CFFE1
:102FB0000BF03CF8B06000EE104AB8EEC00A10EE1C
:102FC000100A0AF039FF53EC182B0AF05DFF0BF0E2
:102FD0002DF8F06000EE105AB8EEC00A10EE100A9C
:102FE0000AF02AFF53EC182B0AF04EFF0BF01EF8E4
:102FF000306149E00020009010680090DFF808067A
:1030000041689DED000AB8EEC00ADFEDC00A20EE6F
:10301000200A81ED0C0A91ED0C0AB5EE400AF1EEA2
:1030200010FA31D090ED020AD1ED0C0A30EE200AF0
:1030300080ED020A0188491C018025E0DFF8C805FF
:1030400041681088A1F85A0001F25A005188418065
:103050009188818018E0DFF8B005416801F25A00DC
:103060001188C1805188018191884181D1888181F5
:103070000AE0DFF894054068118880F8681003E0E2
:103080000FF2C85000F04CFE012002B0BDEC028BE4
:1030900070BD70B50D46DFF8781551F82040002658
:1030A000207F002801D1304670BD607A002804D00E
:1030B000D4F820018068804706462846D4F82011BD
:1030C000C96988470546002E03D0D4F8200140681E
:1030D0008047284670BD01207047F0B4002A14D400
:1030E00000F10804A57EA66892FBF1F76F43B74292
:1030F00002DA2264626408E090F908700C2F02D0B2
:1031000096FBF5F24A4322646264002B03D49907CC
:1031100001D508300376F0BC70470021816441611D
:1031200081610269C06801F037BB042817D101F141
:103130000C008A7A012A09D0072242750B22827577
:10314000DFF8D424CA600B21416070471522427514
:1031500019228275DFF8C424CA60192141607047C2
:1031600060F69C3A89AD84FA0A74513F2DE9F24F1A
:1031700098B08046144699460020ADF858008DF866
:1031800001000DF101050A2068700020A870E870A8
:10319000B8F11D0F7BD24646DFF8740450F8267054
:1031A0004FF0020A387F002871D01898C82802D141
:1031B000B420189003E0422801D13C201890002C44
:1031C00002D1012087F898009DF988B0BBF1000F6B
:1031D00009D45FEACB7006D55B464A461899384653
:1031E000FFF779FF8FE0002C14D1787A00280BD1FB
:1031F00031460FF2644000F093FD59463846FFF720
:103200008CFF012087F899005B464A46189938469A
:10321000FFF763FF07F58E790F2E01D0102E06D130
:103220004146C9B218A8D9F80420926990471A2ECD
:1032300006D14146C9B218A8D9F80420926990472E
:103240001B2E06D14146C9B218A8D9F804209269AC
:10325000904739464046FFF768FF787A00281FD12B
:10326000214649B23846D9F808201268904700280C
:103270000FD0D9F8040040688047002805D1514696
:10328000A1F1010AC9B20029F3D1002801D100201F
:1032900039E0214649B23846D9F8082052689047AB
:1032A000787A401C78720C2E0CD0112E0AD00D2E7C
:1032B00008D0224652B218993846D9F808301B690E
:1032C00098470EE0B86B1421C160002C09D1002092
:1032D00087F81901C7F81C01FFF7F0FB0021C7E9C7
:1032E000240100F0FAF8162E0CD1002C0AD100208F
:1032F0008DF800003B208DF801000A20687000A8BE
:1033000000F0C6FA012019B0BDE8F08F0AD7233CBF
:103310002DE9F04798B007460E461446194600209E
:10332000ADF858008DF801000DF101050A20687014
:103330000020A870E8701D2F08D2B54850F82780EB
:103340004FF0020998F81C00002801D100205BE032
:10335000C82E01D1B42602E0422E00D13C26002C1A
:1033600002D14046FFF7D9FE98F8090001281DD187
:1033700008F5907A214649B24046DAF8042092686E
:10338000904700280BD0D8F820018068804700289B
:1033900005D14846A0F10109C0B20028F3D1214669
:1033A00049B24046DAF80420D268904798F80900FC
:1033B000002802D0401E88F809000C2F0DD0112FD4
:1033C0000BD00D2F09D0224652B23146404608F5A7
:1033D00090735B685B69984704E0D8F838004FF059
:1033E000FF31C16000F079F8162F0CD1002C0AD102
:1033F00001208DF800003B208DF801000A20687044
:1034000000A800F045FA012018B0BDE8F0872DE9CA
:10341000F04106460C4615461A461D2E22D27C481F
:1034200050F8267007F11400017A00291AD0C82C30
:1034300001D1B42402E0422C00D13C249DF9183083
:10344000002B06D4D90704D521463846BDE8F04103
:1034500041E605EB450107EB8108D8F8381089688B
:10346000002901D5002036E0416B002904D1012A52
:1034700002DB00217961416021463846FFF72DFECD
:103480000C2E27D0112E25D00D2E23D0D8F83800A1
:10349000806884421ED0012C1CDB0FF2C41000F0A7
:1034A0003FFC2A4652B2D8F8380081683846D7F82F
:1034B00024315B6998472A4652B221463846D7F8EC
:1034C00024311B69984700F008F8002D02D1012033
:1034D00087F898000120BDE8F08170B56FF00046D4
:1034E00034464F48016804E08A68A24200DA144674
:1034F00009688142F8D14B4D2878401C28706878C3
:10350000F021084202D0992002F0B6F802F02AF920
:103510006878401C6870B44200D100243A4E70684C
:10352000C467D0F8802021468A4212D0002901D0F9
:10353000002A0BD1C0F880100FF2341000F0F0FB1D
:103540007068D0F8800000F0C7FB02E001200AF0AC
:10355000C1FD6878F021084202D0992002F08CF871
:103560006878401E6870C0B2002801D102F0F4F8FB
:1035700002F0E2FB012070BD38B50546294C2078E9
:10358000401C20706078F021084202D0992002F09F
:1035900073F802F0E7F86078401C607029460FF27B
:1035A000E40000F0BDFB18484068C0F880501C489B
:1035B000016805E08A68B2FBF5F26A43CA600968EF
:1035C0008142F7D16078F021084202D0992002F0C0
:1035D00053F86078401E6070C0B2002801D102F03C
:1035E000BBF8BDE8314002F0A7BB0D490A6808E00E
:1035F0001369012B01DAD368136113691B1A136174
:1036000012688A42F4D17047ECBB012020BD012032
:10361000CCAA01200080FFFF505700200CBA0120E7
:103620002050002008DA002058206973206F76654A
:103630007200000059206973206F766572000000E7
:103640005A206973206F7665720000005543535409
:10365000282564294E53000041646420256400003D
:103660006368616E676520726174653200000000F6
:10367000675F707453682D3E6354696D6572203DB9
:10368000202564006374696D6572203D2025640007
:103690007C487047F8B50C461646012500282BD10A
:1036A000C6EB0610774901EB8007386AE040C00797
:1036B00008D523463A6A31460FF2883000F030FBD5
:1036C0000220F2BD4FF0FF30009003462A46796891
:1036D0002046FFF74BFD00280CD023463A6A3146BE
:1036E0000FF2703000F01CFB386A2946A1400843F5
:1036F00038622CE00220F2BD012828D1C6EB06106A
:10370000604901EB8007386AE040C00708D42346CF
:103710003A6A31460FF24C3000F002FB032516E006
:103720004FF0FF332A4679682046FFF7F1FD002865
:1037300007D023463A6A31460FF2383000F0F0FAEB
:1037400000E00325386A0121A140884338622846F9
:10375000F2BD01F00ABE02B598B00021ADF85810D4
:103760008DF801100DF101010A224A7000228A70C1
:10377000CA7005218DF800108DF80100042218A9E7
:103780000DF1030000F002FA0020ADF8580000A887
:1037900000F07EF819B000BD10B40022884201D3B9
:1037A000421A06E00B1A384CA34202D3374A1018CB
:1037B000421A104610BC70470BF0FAB938B544787D
:1037C00085780078032822D01A2802D02C282AD005
:1037D00031BD012C0CD101200CF096FE01232246B4
:1037E0001A210FF2A02001B0BDE8304000F098BAD5
:1037F000022C21D102200CF087FE022322461A213E
:103800000FF2942001B0BDE8304000F089BA012CDD
:1038100012D128460BF0E9F929460FF29020BDE8B5
:10382000344000F07DBA012C06D129460FF28820E1
:10383000BDE8344000F074BA31BD0FB480B5002843
:1038400005D10846002802D11046002804D00DF00A
:1038500034F90DF0D8FB01E00DF018F901BC5DF86A
:1038600014FB0DF03DB900223C2809D2C0EB001337
:10387000044800EB8300006AC840C00700D501225D
:1038800010467047A02F0120A1780F05005C260587
:1038900030B595B00446012594F90000062800F2E1
:1038A000BC80DFE800F0042648647AB2B600E11C70
:1038B00082B06846552208F071FC0CBC94F90210E5
:1038C00094F9010001F08BF9022809D1607801F028
:1038D00050FB002561780FF2E81000F021FAA2E019
:1038E000032840F0A08061780FF2DC1000F018FA95
:1038F00099E060781A280BD1E01C01F005FEA37A4C
:10390000D4F8062061790FF2C81000F009FA04E03B
:103910002C2802D1E01C01F0F7FD94F9021094F973
:10392000010001F051FA03287DD161780FF2B8103F
:1039300000F0F6F977E0B4F8581000A801F033FB76
:103940009DF9040002280AD1009800B201F011FB91
:10395000002500990FF2981000F0E2F963E00328C7
:1039600061D100990FF2901000F0DAF95BE00EF0EF
:1039700006F9022809D1607801F0FBFA0025617888
:103980000FF27C1000F0CCF94DE003284BD16178A8
:103990000FF2741000F0C4F945E0607805280CD1EE
:1039A00028460EF0CEF902280DD003283BD16178CD
:1039B0000FF2641000F0B4F935E002280DD10EF0DA
:1039C000C6FA0228F1D1607801F0D3FA00256178B7
:1039D0000FF23C1000F0A4F925E02F2823D10EF0BF
:1039E00025FC022809D1607801F0C3FA002561782E
:1039F0000FF22C1000F094F915E0032813D1617830
:103A00000FF2241000F08CF90DE0204601F030FB9D
:103A100009E0204601F0D5FC05E061780FF21010B6
:103A200000F07EF90025284615B030BD0120704712
:103A30000FB4022004B07047012070470020704787
:103A400070470000534D4143202564202564202504
:103A500064000000534D4120256420256420256426
:103A600000000000534D524320256420256420258A
:103A700064000000534D52202564202564202564F5
:103A8000000000004154205249204E6F72202D2525
:103A9000642025642025640041542052492042615D
:103AA00074202D2564202564202564005044205571
:103AB000542D256400000000534C4D202564000067
:103AC000414C4F4620256400414C4346202564006C
:103AD0004F4A4820454C203078257820307825788A
:103AE0002030782578000000524C434620256400A1
:103AF000504C4F4620256400504C4346202564001E
:103B000050414F4620256400504143462025640023
:103B100050504F46202564005050434620256400F5
:103B200050534F46202564005053434620256400DF
:103B30004558204C4D454C202564000010B504002C
:103B400010480078002805D10F480EF030FC0D48D1
:103B5000012101700C480EF064FC20000FF034FBD2
:103B6000040009480EF091FC200010BD10B50400BF
:103B700005480EF056FC20000FF080FC02480EF0C5
:103B800084FC10BD79BE0120B8BB012010B5040033
:103B9000200008F003FB200010BD10B450F8041BF7
:103BA00081B102681218001D50F8043BDC0744BFC5
:103BB000A9F10104E31852F8044B43F8044B091F20
:103BC000F9D1EBE710BC704738B504000D00174879
:103BD0000078401C1549087015480078002802D06C
:103BE000A12001F049FD02F066F8A07E662802D00F
:103BF000822001F041FD802080F3118800BF00BFCA
:103C000008E0382120000FF0C7FE802080F31188E3
:103C100000BF00BFE06821698842F2D0290020007F
:103C20000FF0DEFE02F088F831BD00BF08DA002098
:103C300077BE012010B5DFF8244A4FF40672002148
:103C4000204600F0A9FD204610BDDFF8100A70479D
:103C500010B5FFF7EFFF044600231A461146084649
:103C600000F0DCFAC046C04606F0A7FA0A2120465A
:103C700000F03FF806F04BFE06F006FA204600F092
:103C800069FA204600F018F8DFF8D409006806F059
:103C90004CFC204600F09BF900F067FB00F008FAAE
:103CA00000206072A072E072207301206073002017
:103CB000E076A073012010BD10B50446DFF8A4091A
:103CC00006F095FB0120607110BD10B5044606F0AA
:103CD000AAFC0120A07110BD80B506F088FF01206C
:103CE00002BD10B50446E07907F092F80121217079
:103CF00010BD70B504460025E679E171FFF7F1FFCC
:103D0000002807D02046FFF7D7FF2046FFF7DDFF4A
:103D1000012503E0E6712046FFF7E3FF284670BD6A
:103D20000EB470B5C1B0054600A84FF4807100F024
:103D300071FDFFF78AFF044645AB2A464FF48071B8
:103D400000A80FF0B9FE00A80FF0D4FE451C00A893
:103D50002818002100F8011CDFF80C693078401C9D
:103D600030707078F021084202D0992001F084FC74
:103D700001F0F8FC7078401C7070207F2818B0F5B6
:103D8000FA7F10DA207F002803D0207F00190A2153
:103D900001772A4600A9207F00191D30FFF7F6FEA3
:103DA000207F281820777078F021084202D09920CF
:103DB00001F062FC7078401E7070C0B2002801D122
:103DC00001F0CAFC01F0B8FF41B070BC5DF810FB17
:103DD000DFF85408DFF88C180160704710B504460E
:103DE000FFF733FFD0E9042310461946224601F0BD
:103DF0002FFC00F0010011F0000101D100280ED0CD
:103E0000DFF868482068401C20601E2807DB0FF69A
:103E10007800FFF785FF07F075F80020206010BDDF
:103E2000DFF848080021016070472DE9F843054696
:103E30000E4617464FF00208DFF82C486078F02154
:103E4000084202D0992001F017FC01F08BFC607849
:103E5000401C60709DF80000401E8DF8000017F8AF
:103E6000019B2846FFF7B4FF00AB4A46394630466F
:103E700007F080F8002812D06078F021084202D0C4
:103E8000992001F0F9FB6078401E6070C0B20028F4
:103E900001D101F061FCFFF7C3FF01201FE05FFAD1
:103EA00088F8424629460FF2F470FFF739FF404682
:103EB000A0F101080028D7D16078F021084202D093
:103EC000992001F0D9FB6078401E6070C0B20028D4
:103ED00001D101F041FC2846FFF780FF0020BDE83A
:103EE000F2832DE9F04704460D4616461F46DFF8DB
:103EF0004087089888F80000DFF86C9799F801006F
:103F0000F021084202D0992001F0B6FB01F02AFC12
:103F100099F80100401C89F801002046FFF758FF7E
:103F20004FF0020A434632463946284607F0D8F891
:103F3000002815D099F80100F021084202D09920FC
:103F400001F09AFB99F80100401E89F80100C0B207
:103F5000002801D101F000FCFFF762FF012022E000
:103F60005FFA8AFA524621460FF23C70FFF7D8FEFC
:103F70005046A0F1010A0028D4D199F80100F0219F
:103F8000084202D0992001F077FB99F80100401E09
:103F900089F80100C0B2002801D101F0DDFB204604
:103FA000FFF71CFF0020BDE8F08780B51146029A9C
:103FB000184606F099FA012002BD80B510465A1E37
:103FC00092B20178401C06F06FFA012002BD7CB568
:103FD00004460120009001AB8022D0210020FFF791
:103FE000E4FF0FF2E8650FF2CC669DF8043040F272
:103FF0000F2231462846FFF793FE9DF80400D02893
:1040000003D0D12801D0D22808D1022084F812028E
:104010000FF2D060FFF784FE012076BD01200090F2
:1040200001AB8F221B210020FFF7BFFF9DF804305A
:1040300040F21A2231462846FFF772FE9DF804101E
:10404000692907D1012084F81202CCA0FFF768FE8D
:10405000012076BD0FF29460FFF762FE022084F823
:104060001202012084F812020FF29C60FFF758FE42
:10407000012076BD30B587B0044600A80FF2A461D8
:10408000182208F09BF8FFF7E0FD90F8120200A953
:1040900001EBC000255CFFF7D8FD2B46224690F8C7
:1040A00012120FF29860FFF73BFE284607B030BDB2
:1040B00010F00EBA2DE9F843054602264FF000082D
:1040C000DFF8689516E03046461EC0B2002814D1CD
:1040D000002C0CD1D5E9046701200021424610F0E4
:1040E00039FB26EA000027EA0101C5E9040102269E
:1040F00008F10108B8F11D0F18DA59F82800D0F8B6
:104100002001006880470446012CDCD1D5E9046712
:1041100001200021424610F01DFB30433943C5E920
:10412000040159F8280001210177D1E7D5E90401FC
:10413000002901D1032807D0002901D1022803D08A
:10414000002905D1012803D140F48050C5E90401BC
:10415000BDE8F18307F007B907F06FB907F01AB9A6
:10416000DFF80405026A036A00BF00BF00BF00BF9A
:1041700000BF9B1A8B42F6DB7047417230B597B097
:10418000FCF702F80446FFF760FD054600A85C2135
:1041900000F040FB0020ADF858008DF801000DF153
:1041A00001000A21417000218170C170697A0029E3
:1041B0000DD0002C18D000218DF8001005218DF8AD
:1041C00001100B21417000A8FFF762FB0CE0002CEE
:1041D0000AD001218DF8001005218DF801100B2166
:1041E000417000A8FFF754FB17B030BD07F044B989
:1041F00007F04CB902210120F8E702210120F7E77E
:1042000001210846F2E701210846F1E707F048B925
:1042100010B50446FFF719FD447610BD2DE9F047AF
:1042200082B00C4615462F46264680464FF47A71DA
:104230004FF03C0C4FF4616918FB09F216FB0C229D
:10424000BA1801FB0232DFF8ECE39EF900A01AFB7A
:1042500009F99EF901A01AFB0C9C9EF902904CFAF8
:1042600089FCBEF9039001FB0C919EF808C0BCF1DB
:10427000000F22D144EA00012943194302D0012151
:104280008EF808108EF80000B8F1000F04D59EF8E3
:10429000000018308EF800008EF801408EF80250B1
:1042A000AEF8033000933B4632469EF900100FF201
:1042B000D440FFF735FDBDE8F38791420DD3A1EB64
:1042C000020CACF2D17CDFF8A893CC45DAD30FF224
:1042D000904002B0BDE8F04722E5D3D2A2EB010C3A
:1042E000ACF2D179DFF888A3D145CBD363460FF286
:1042F000804002B0BDE8F04712E510B504002FD0B1
:10430000FCF72AF8CB49CA68002A00D0841AB1F811
:104310000320A218A1F8032012B2B2F57A7F06DBBF
:10432000A2F57A72A1F803208A78521C8A7091F95A
:1043300002203C2A04DB3C3A8A704A78521C4A70BC
:1043400091F901203C2A04DB3C3A4A700A78521C5D
:104350000A7091F90020182A01DB00220A70C86057
:1043600010BDB449052207F019BFB3480021017000
:1043700041701E22B14800F00FBA000053544D00A6
:104380003FB400210120AC4A1278002A0CD12CE065
:104390005C68019DAC4224D11B89BDF80840A34252
:1043A0001FD10020491CC9B291421EDAC1EBC103E2
:1043B000A24C04EB43039DF80340DD78A54213D1E2
:1043C000002CE5D09C88BDF80450AC4209D1DC88B3
:1043D000BDF80650AC4204D11B89BDF80840A34289
:1043E000DFD000F00100DDE7012004B030BC7047F1
:1043F0007FB40020014626E0C0EBC00254008F4D80
:1044000066193C224FF46163645D757812FB05F513
:1044100013FB0454B57864199DF800509DF80160B1
:1044200012FB06F213FB05229DF8023052FA83F2CA
:10443000A24201D2824B9A18121BB2F5966F00D994
:10444000491C401CC0B27C4A13789842D4DBC9B2E4
:104450008B4202D20020107001E0581A10707FBC0D
:1044600070472DE9FF419DF80340022C5EDA00A859
:104470000FC8FFF785FF012858D100A80FC8FFF724
:10448000B7FF9DF802509DF801606C4FDFF8A881DE
:1044900098F80000032825D13C214FF461603A7858
:1044A0007B7811FB03F310FB0232BB78D2189DF826
:1044B000003011FB06F110FB031050FA85F090421A
:1044C00001D25F490818811AB1F5966F02D94FF4ED
:1044D000966000E0801AA8F80200FFF746FF01206E
:1044E00088F8010098F80000C0EBC00149009DF871
:1044F0000020CA55C9194E708D70CC70BDF80820C7
:10450000002C09D1019B4B600A81BDF80A204A8129
:10451000BDF80C208A8106E0BDF804308B80BDF820
:104520000630CB800A81401C88F80000BDE8FF817E
:104530004149487800224A7070473F484088704798
:10454000242200214B4800F027B91CB500A8FFF732
:1045500008FF484C24220021204600F01DF99DF858
:104560000000607604F219009DF8011041709DF87A
:1045700002108170FF21817213BD00000FB410B5CD
:104580002DED028B2F4C104610F0F6F82E4A2F4BD3
:1045900009F07AFC206161619FED2D8B049810F089
:1045A000EBF853EC182B09F06FFC20606160059864
:1045B00010F0E2F853EC182B09F066FCA060E16003
:1045C0009DF81C00207604F118009DF81D10417024
:1045D0009DF81E1081709DF81F10C1709DF820106D
:1045E0000171BDF8210000EE100AB8EE400A10EE8D
:1045F000100A09F021FC184A1F4B09F045FC09F08C
:1046000015FDC4F81D00BDF82300A4F821009DF895
:10461000250084F82300BDEC028B10BC5DF814FB70
:104620000849242207F0BABDE0DB0020CCAA012013
:104630004FBE0120FCBB0120ACBD0120CCB7012046
:1046400080510100CCB80120FCA9F1D24D62503F4D
:104650008DEDB5A0F7C6B03E3BDF4F8DE08C01205D
:104660000CDC00200054004008DA0020B0BD01201E
:104670005F4C2605F0B80120976EA23F80B510F080
:1046800071F9002104BD0000233E496E6974696C14
:1046900061697A652049324300000000495745208E
:1046A000256420256400000049524520256420250A
:1046B0006400000053485F48415F436865636B36A0
:1046C0004178697353656E736F72000025732825F6
:1046D0006429203A20726567203D205B30782530C0
:1046E00032785D00426F73636800000057484F41A5
:1046F0004D49206661696C203A207265675B3078AD
:10470000253032785D000000556E6B6E6F776E203D
:1047100036617869732073656E736F722121212170
:104720000000000000010203040706050001020367
:1047300004070605030001020504070665364178F3
:10474000697353656E736F722825642920446F74F2
:1047500028256429204178697328256429000000F0
:1047600041542D5365745453312025642025640031
:1047700041542D5365745453322025642025642000
:104780002564000041542D536574542025643A2556
:10479000643A25642E25640010B5040010000A0058
:1047A0000100200010F044FA200010BD50EA010280
:1047B00000F00E80094200BF0BD1B0FA80F18840B2
:1047C000C1F19D01C905020672F1004241EB1020C2
:1047D0007047B1FA81F241409040C2F1200261FA83
:1047E00002F181EA000018BF40F0010002F19D01D2
:1047F000E8E750F8041B61B150F8042BD30744BF1D
:10480000A9F101039A18002342F8043B091FFAD1C9
:10481000EFE77047002210F043BA8268521C8260B2
:10482000426832B10268531C036011704168491E2E
:104830004160704770B5DFF83C4BFEF733F9E06438
:1048400010F048FAFEF724FF2065002517E04FF02E
:10485000FF31C176DFF8201B4162DFF8201B816247
:10486000DFF81C2BC262DFF8A82C0263DFF8A42C4F
:1048700042638163206D3018806B80476D1C3C2D36
:1048800080F2AB81216DC5EB0510860000207054CD
:104890007018002242700122C276002282764FF008
:1048A000FF324260002282700262C2702A46921E6B
:1048B000392ACCD8DFE812F047003B0065014F00F1
:1048C000570062007C003A003A003A003A003A0091
:1048D0003A0085008E003A003A003A003A0096000D
:1048E0003A009F003A006B01B00003010F0119016B
:1048F0003A00C800D000D900E100FB003A003A00BD
:104900003A003A003A003A003A003A0025013A01EA
:104910003A0051016A0074005C017601BC003A0063
:10492000A80046018B0186017E0132018FE7DFF886
:10493000F40BC1F8EC00012081F8CE0001F17C00FD
:104940003C21C16396E701F17C00DFF8DC2B426378
:104950001420C8678EE701F1EC00DFF8D01B8167F7
:104960001421416486E701F5B670DFF8C42B426379
:10497000012282753C20C1F86C017BE701F5B6701D
:10498000DFF8B01B01673C21C16373E701F63C30DF
:10499000DFF8A41BC163012181773C21816069E7B5
:1049A00001F63C30DFF8941B8167B421416461E774
:1049B000DFF88C0BC1F8180201F5B670142181677D
:1049C00058E701F56270DFF87C2B4263B420C1F830
:1049D00088034FE701F56270DFF86C1B01673C212B
:1049E000C16347E701F59E60DFF8602B42633C201E
:1049F000C1F8F0043EE7DFF8580BC1F89C0501F55B
:104A00009E603C21816735E701F66840DFF8441B72
:104A100081673C2141642DE701F21460DFF8381B07
:104A2000C1630721C177012181773C21816021E7A2
:104A3000DFF8280BC1F8680C012081F84A0C01F658
:104A4000BC30B421816715E701F20470DFF8101B58
:104A50008167142141640DE701F28470DFF8042BB3
:104A600042633C20C1F8840704E701F28470DFF858
:104A7000F81A01671421C163FCE6FFF7E6F890F825
:104A80001202012808D002280CD1206D00F2FC701F
:104A9000DFF8D81A416305E0206D00F2FC70DFF802
:104AA000D01A4163206D0A21C0F8FC17E2E6DFF856
:104AB000C40AC1F86C081420C1F83808DAE6DFF837
:104AC000B80AC1F88C06012081F86E0601F2146064
:104AD0003C214164CEE601F28C60DFF8A01AC1638C
:104AE0000121817714218160C4E6DFF8940AC1F8BE
:104AF0000407012081F8E60601F28C603C21416444
:104B0000B8E601F65420DFF87C2A42630322C2751E
:104B1000012282753C20C1F8540AABE601F694509C
:104B2000DFF8641A816714214164A3E6DFF85C0AA8
:104B3000C1F8C40A012081F8A60A01F654203C21DC
:104B4000C16397E601F6E840DFF8442A4263012298
:104B500082751420C1F8E80C8CE6DFF8380AC1F839
:104B60003C0B012081F81E0B1420C1F8080B81E6D4
:104B700001F6BC30DFF8202A42631420C1F8BC0BD8
:104B800078E601F1EC00DFF8141AC16372E6DFF891
:104B9000100AC1F81406012081F8F6053C20C1F87E
:104BA000E00567E601F6BC30DFF8F819016714216B
:104BB000C1635FE601F69450DFF8EC19C16314217C
:104BC000816057E6DFF8E409C1F8940D52E601F67A
:104BD000E840DFF8DC1901674CE6012070BD0CB439
:104BE0002DE9F04393B006460F46012534461A2CB2
:104BF00042D02C2C40D0C4EB04104FEA8008DFF8E0
:104C000074970B2F18D1D9F85000404441780029EF
:104C100012D090F91B20012A0EDB91420CDB3046AA
:104C200000F068F90546D9F8500040440021417071
:104C30000FF68C10FFF774F8D9F8500018F8001030
:104C400000294FD108EB00014A78002A4AD10022FE
:104C500008F80020104648701AA983B06846582208
:104C600007F0ACFA0EBC304600F06AF8022834D0E7
:104C7000032837D1032535E00B2F15D1C4EB0410E1
:104C80004FEA8008DFF8EC96D9F85000404490F9DC
:104C90001B20012A08DB4078904205DB0FF6281024
:104CA000FFF73EF8022046E01A2C04D13846C0B285
:104CB0000AF025FD05E02C2C03D13846C0B210F0D7
:104CC000ABF81AA983B06846582207F077FA0EBCF1
:104CD000304600F035F8022801D102202BE00328ED
:104CE00000D103250A2F0DD1DFF88896D9F850009E
:104CF000C4EB04114FEA810818F80010491C08F8A9
:104D0000001017E00B2F15D1DFF86896032C07D1A0
:104D1000D9F8500090F8B500002801D109F08FFEB5
:104D2000C4EB04104FEA8008D9F8500040444178A1
:104D3000491C4170284613B0BDE8F0035DF80CFB38
:104D40000EB42DE9F04193B005460124C0EB0011EB
:104D50008F00DFF82066D6F850801A2801D02C2862
:104D600008D117F80800002809D107EB080040789F
:104D7000002804D107EB080000218170016219A905
:104D800084B06846582207F019FA0FBC47447F6A7E
:104D9000B847022801D1022011E0032801D10324E1
:104DA0000CE0D6F84C80D8E91C67204600212A4642
:104DB0000FF0D0FC30433943C8E91C01204613B042
:104DC000BDE8F0015DF810FB2DE9F84304460D46FF
:104DD00001262746C7EB07104FEA8008DFF89495B5
:104DE000D9F850001A2F4ED02C2F4CD04044417887
:104DF00002290BDB90F91B20012A07DB134699429D
:104E000004DB42700FF2CC70FEF78AFFD9F8500035
:104E100018F80010002904D108EB00025278002A8B
:104E200065D02A460A2A09D1002903D0491E08F86C
:104E3000001017E0002108F8001013E00B2A11D130
:104E400008EB00014A78002A02D0521E4A7001E0A5
:104E500000224A70032F05D190F8B500002801D137
:104E600009F0FCFDD9F8500018F8001000293ED1D7
:104E70004044407800283AD1204600F03BF803280F
:104E800035D1032633E018F80010002904D108EBCF
:104E900000025278002A2AD02A460A2A09D100297B
:104EA00003D0491E08F800100EE0002108F8001099
:104EB0000AE00B2A08D140444178002902D0491E5B
:104EC000417001E0002141701A2F04D12846C0B280
:104ED0000AF015FC05E02C2F03D12846C0B20FF0D4
:104EE0009BFF204600F006F8032800D10326304639
:104EF000BDE8F2832DE9F04107460126B846C8EB2C
:104F000008108500DFF86C44206D2818806A8047FF
:104F1000032800D10326B8F12C0F07D1206D295C9E
:104F200000290AD128184078002806D1384640B216
:104F300000F07BF9032800D10326206D295C0029AD
:104F400014D128184178002910D100218170016204
:104F5000D4F84C80D8E91C4501203A460FF0FAFB02
:104F600024EA000025EA0101C8E91C013046BDE839
:104F7000F08138B50446C4EB04108000DFF8F45328
:104F8000296D002242544018114641702046FFF717
:104F9000B1FFE86CD0E91C2321460FF24060FEF718
:104FA000BFFE012032BD2DE9F041B6B004460E46E9
:104FB000B6B201208DF86400DFF8B8531AA8E96C86
:104FC0006C2207F0FBF817951AA984B068466C228A
:104FD00007F0F4F80FBC00F0D5F900270BE0032828
:104FE00003D1189703208DF86400286D40440021F8
:104FF00081707F1C7FB23C2F2ADAEA6CD2E91C0157
:105000003A4600F025FB00F0010011F0000101D14B
:105010000028EED0C7EB07104FEA8008286D404407
:1050200041680029E5D48278521C8270D2B2724362
:1050300089B28A42DDDBC06A80470228CFD1189747
:1050400002208DF86400DDE91801C4E9000103E0E5
:10505000DDE91801C4E9000136B0BDE8F0810021A6
:10506000401F42F20C72904200D201210846704764
:105070002DE9F04383B00446002001900422E11C96
:1050800001A8FEF783FD6178BA4E376D3C2515FB0C
:1050900001704068019A904204D10FF25050FEF71F
:1050A0003FFE68E01046FFF7DAFF002809D161787B
:1050B000019B15FB017042680FF23C50FEF730FE79
:1050C00059E0DFF8F0743868D0F8008025E090F9F6
:1050D00008906078316D15FB0010006A20FA09F025
:1050E000C00717D54FF0FF30009003460122019909
:1050F0004846FEF73BF840B200280BD16178019892
:105100000090306D15FB010043684A460FF2FC40E9
:10511000FEF706FE4046D0F80080B842D7D1386886
:10512000D0F800801FE090F90890086A20FA09F092
:10513000C00715D54FF0FF33012249684846FEF7F6
:10514000E7F840B200280BD1617801980090306DEB
:1051500015FB010043684A460FF2C840FEF7E0FD28
:105160004046D0F800806178326D15FB0121B842CD
:10517000D9D101984860BDE8F7832DE9F84381460D
:10518000002425467B4F21E0C5EB05108600386DD5
:1051900006EB0008002088F80300FA6CD2E91C0135
:1051A0002A4600F055FA00F0010011F0000101D18B
:1051B00000280AD04846D8F830108847002804D084
:1051C000386D30180121C1700C466D1C3C2DDBDBA5
:1051D0002046BDE8F2836748C16CD1E91C23002B4F
:1051E00001D1002A0DD0002107E0C2EB0213026DAD
:1051F00002EB83020023D370491C49B20A463C2AC1
:10520000F3DB704700B502465A48C36CD3E91C0172
:1052100000F01EFA00F0010011F0000101D1002899
:1052200001D0012000BD084600BD2DE9F0478146B0
:105230000124C9EB091085004E4E306D2818006A14
:10524000002828D0DB4F3868D0F8008003E0032422
:105250004046D0F80080B8421DD090F908A0306DCB
:105260002818016A012202FA0AF2114021FA0AF111
:1052700049B20129ECD14FF0FF3301224168504679
:10528000FEF746F80028E2D0524649460FF2AC300D
:10529000FEF746FDDCE72046BDE8F08710B598B084
:1052A00004465A22002100A8FFF776FA0020ADF844
:1052B00058008DF801000DF101000A214170002114
:1052C0008170C1700846ADF85800600737D50520D9
:1052D000FFF798FF002808D004208DF80000052073
:1052E0008DF8010000A8FEF7D3FA0220FFF78AFF2D
:1052F000002808D004208DF8000002208DF801005D
:1053000000A8FEF7C5FA2F20FFF77CFF002808D081
:1053100004208DF800002F208DF8010000A8FEF772
:10532000B7FA0320FFF76EFF002808D004208DF89D
:10533000000003208DF8010000A8FEF7A9FAE0069E
:1053400011D50820FFF75EFF00280CD003208DF850
:10535000000008208DF8010000A8FEF799FA0FF26E
:10536000E820FEF7DDFC18B010BD02494C2206F023
:1053700025BF0000D8B40120313A00082D3A0008BA
:10538000393A00080FB41B980099016001994160F7
:10539000029981600399C160049901610599416195
:1053A000BDF85A100183BDF85C104183BDF85E1052
:1053B00081830C990162139941621499816204B04E
:1053C00070474178122904D1401C0179002009F06E
:1053D000F8BB132904D1401C4179012009F0F1BB2D
:1053E000142904D1401C8179022009F0EABB152957
:1053F00003D1401C007909F009BC302904D1401CBC
:1054000090F904000CF076BF012904D1401C90F9FA
:1054100006000CF05BBF172975D1411CCA78032A1E
:105420000AD01B2A14D01C2A33D01D2A1BD02C2AA8
:105430003FD0342A59D0704790F85610012902D134
:10544000401D09F0F3BF02295DD1401D09F0EEBFF8
:10545000087A012802D188880BF01CBB022852D19F
:10546000C8880BF015BB4A7B012A02D188880BF053
:10547000B0BD022A02D1C8880BF09FBD042A03D117
:10548000B0F811000BF0A7BD032A3CD1C8890BF07E
:10549000AEBDC879012802D1087910F013BE0228E8
:1054A00002D1487910F01DBE05282CD1887910F062
:1054B00008BE8A7B012A02D1087A10F080BA022A3B
:1054C00002D1008A10F067BA032A02D1408A10F094
:1054D0006CBA042A03D11230408810F089BA052A28
:1054E00011D11230808810F074BA0A7B012A05D1DC
:1054F000D0F8051000EE101A10F018BE022A02D1E2
:10550000886810F01CBE70472B4908607047000087
:105510003D3A0008413A000827480068704727498B
:1055200008707047FBE300081D1F0108DD1C01081F
:10553000BD6E0408BD4104085F640408EB660408FE
:10554000CD1A0108957D04080F8404089981040888
:105550005D800408598604089B0201089B630108CA
:1055600029EC010843850408196B040829EE030897
:105570001F290408B5EA0108230A0108816001080F
:10558000750F0108C958010859760408F77E040808
:105590005BC20008F9210108934A04088DB800088D
:1055A000D5820408E5FC0308DF7C0408DD7A0408E2
:1055B000557904082C500020B4BD012050BE0120B4
:1055C000414C204558000000414C2045582D415485
:1055D00000000000524C2045580000005445524D38
:1055E00020256420256C6C75000000004558204C77
:1055F0004D435231202564004558204C4D435232D2
:105600002025642025642025640000004558204C96
:105610004D435233202564202564202564202564D1
:10562000000000004558204C4D4352342025642092
:10563000256420256420256400000000534D52415C
:105640002025642025640000485720534D41000068
:10565000D2B2203A22BF21FA02F000217047203254
:10566000D141D04048409140D14048407047026805
:10567000531C03601170704700B585B002460FF2ED
:10568000140100A810F046FF00A808F049FB05B07F
:1056900000BD00004F4525640000000034488168CB
:1056A000002904BF08B008E0EFF30982A2F1280244
:1056B000036882E8F84F83685A6000F056F9816801
:1056C00059B14A6892E8F84F036002F1280282F368
:1056D000098813F47F4F3FD0704726482649096850
:1056E000401A80F308884FF08071C16123498161BD
:1056F0007FF0060E704701BC2046DFF884E000BD55
:10570000FEE7204800681C490968401A203820F04C
:10571000070080F308884FF000011548417081F3BD
:10572000118862B600F014F8FEE703680CB44FF07D
:10573000000141704FF0000181F311881249134AB2
:105740000A604FF0800181F311880CBC0360704740
:105750000D490E4A0A6070474FF0000181F311882D
:10576000704700BF4FF0800181F31188704700BF80
:1057700008DA0020E00F00205CAE01087D67010818
:10578000015700080000000804ED00E000000010D0
:1057900010B4802080F3118800BF00BFDFF8F0074D
:1057A0008068DFF8EC1700220A71002181F311886C
:1057B00000282ED0016800292BD042690168496970
:1057C000914226D1016800E019000B68002B02D03D
:1057D0005C699442F8D0802282F3118800BF00BF38
:1057E000DFF8AC271269824203D1DFF8A4270368EF
:1057F0001361026A036813601A6201620B68036036
:105800000268002A00D01862086091F8450081F80B
:105810004400002080F3118810BC7047802080F382
:10582000118800BF00BFDFF86C070068DFF8601761
:10583000096A401A01283ADADFF85407006A05E0DD
:10584000DFF84C170862002181F31188DFF8481750
:105850000978C90726D5802181F3118800BF00BFD0
:10586000DFF8341709788907EAD5DFF82C170978AB
:1058700011F0FD01DFF820271170002181F311885C
:10588000DFF80C17096A8842FAD0DFF804170862BB
:10589000DFF800070068401CDFF8F8160860DFF842
:1058A000F0164862802080F3118800BF00BF704767
:1058B00010B5DFF8DC0600214171DFF8D406006A7C
:1058C00010F18040DFF8C8164862DFF8C406C069EE
:1058D000002805D0DFF8B806DFF8B416C969884794
:1058E000002080F31188DFF8A806C4680EE0E068A5
:1058F000DFF89C16496A401A002803D5DFF89006A5
:10590000E1684162002080F311882468002C26D0D1
:10591000802080F3118800BF00BFDFF874060069A3
:10592000002806D06069DFF868160969496988426D
:105930001AD3207C4007E5D5E068DFF85416096AE1
:10594000401A0128D3DA200000F036FA802080F3D4
:10595000118800BF00BF207C0028C8D104E080204F
:1059600080F3118800BF00BF10BD38B5DFF82006F6
:1059700000214170DFF8180601210170DFF81006E0
:10598000C06B002818D0802080F3118800BF00BFB2
:10599000DFF8FC05C06B8047002080F31188DFF83A
:1059A000F0050021C163DFF8E80500214163DFF85D
:1059B000E005002180F8381010F0C6FD0078C0B274
:1059C000CD2802D07D20FFF757FEDFF8C4058068A0
:1059D000002812D0DFF8B8058068806C00280CD051
:1059E000DFF8AC058068806C01680800002804D0EE
:1059F000DFF89C05806840688847DFF8940590F8D8
:105A0000310000280FD0DFF888058068DFF88015A6
:105A100091F8301080F84410DFF874050079002800
:105A200001D0FFF7B5FEDFF8680590F840000028C8
:105A30003DD0DFF85C0590F84000C00718D5DFF8CE
:105A40005C050068DFF84815096A401A00280FD580
:105A5000DFF83C0590F8400010F0FE00DFF830154C
:105A600081F84000DFF8280590F8400000281ED09B
:105A7000802080F3118800BF00BF10F0C2FE00211B
:105A800081F31188DFF80815896800290CD0DFF848
:105A900000158968896B4118DFF804251268891A96
:105AA000DFF8EC2492689163DFF8F4140860DFF803
:105AB000E004806800280ED0DFF8D4048068007C01
:105AC000002808D1DFF8C8048068406B401CDFF86C
:105AD000C01489684863DFF8B8040069002839D029
